{
	"data": {
		"bytecode": {
			"linkReferences": {},
			"object": "608060405234801561000f575f5ffd5b5060405161417a38038061417a83398181016040528101906100319190610320565b8181815f908161004191906105a6565b50806001908161005191906105a6565b5050506100665f5f1b3361006d60201b60201c565b5050610675565b61007d828261008160201b60201c565b5050565b610091828261016860201b60201c565b61016457600160065f8481526020019081526020015f205f015f8373ffffffffffffffffffffffffffffffffffffffff1673ffffffffffffffffffffffffffffffffffffffff1681526020019081526020015f205f6101000a81548160ff0219169083151502179055506101096101cc60201b60201c565b73ffffffffffffffffffffffffffffffffffffffff168173ffffffffffffffffffffffffffffffffffffffff16837f2f8788117e7eff1d82e926ec794901d17c78024a50270940304540a733656f0d60405160405180910390a45b5050565b5f60065f8481526020019081526020015f205f015f8373ffffffffffffffffffffffffffffffffffffffff1673ffffffffffffffffffffffffffffffffffffffff1681526020019081526020015f205f9054906101000a900460ff16905092915050565b5f33905090565b5f604051905090565b5f5ffd5b5f5ffd5b5f5ffd5b5f5ffd5b5f601f19601f8301169050919050565b7f4e487b71000000000000000000000000000000000000000000000000000000005f52604160045260245ffd5b610232826101ec565b810181811067ffffffffffffffff82111715610251576102506101fc565b5b80604052505050565b5f6102636101d3565b905061026f8282610229565b919050565b5f67ffffffffffffffff82111561028e5761028d6101fc565b5b610297826101ec565b9050602081019050919050565b8281835e5f83830152505050565b5f6102c46102bf84610274565b61025a565b9050828152602081018484840111156102e0576102df6101e8565b5b6102eb8482856102a4565b509392505050565b5f82601f830112610307576103066101e4565b5b81516103178482602086016102b2565b91505092915050565b5f5f60408385031215610336576103356101dc565b5b5f83015167ffffffffffffffff811115610353576103526101e0565b5b61035f858286016102f3565b925050602083015167ffffffffffffffff8111156103805761037f6101e0565b5b61038c858286016102f3565b9150509250929050565b5f81519050919050565b7f4e487b71000000000000000000000000000000000000000000000000000000005f52602260045260245ffd5b5f60028204905060018216806103e457607f821691505b6020821081036103f7576103f66103a0565b5b50919050565b5f819050815f5260205f209050919050565b5f6020601f8301049050919050565b5f82821b905092915050565b5f600883026104597fffffffffffffffffffffffffffffffffffffffffffffffffffffffffffffffff8261041e565b610463868361041e565b95508019841693508086168417925050509392505050565b5f819050919050565b5f819050919050565b5f6104a76104a261049d8461047b565b610484565b61047b565b9050919050565b5f819050919050565b6104c08361048d565b6104d46104cc826104ae565b84845461042a565b825550505050565b5f5f905090565b6104eb6104dc565b6104f68184846104b7565b505050565b5b818110156105195761050e5f826104e3565b6001810190506104fc565b5050565b601f82111561055e5761052f816103fd565b6105388461040f565b81016020851015610547578190505b61055b6105538561040f565b8301826104fb565b50505b505050565b5f82821c905092915050565b5f61057e5f1984600802610563565b1980831691505092915050565b5f610596838361056f565b9150826002028217905092915050565b6105af82610396565b67ffffffffffffffff8111156105c8576105c76101fc565b5b6105d282546103cd565b6105dd82828561051d565b5f60209050601f83116001811461060e575f84156105fc578287015190505b610606858261058b565b86555061066d565b601f19841661061c866103fd565b5f5b828110156106435784890151825560018201915060208501945060208101905061061e565b86831015610660578489015161065c601f89168261056f565b8355505b6001600288020188555050505b505050505050565b613af8806106825f395ff3fe608060405234801561000f575f5ffd5b50600436106101c2575f3560e01c806375b238fc116100f7578063b88d4fde11610095578063e7705db61161006f578063e7705db61461054e578063e985e9c51461056c578063f10a6dfc1461059c578063f320beac146105ba576101c2565b8063b88d4fde146104e6578063c87b56dd14610502578063d547741f14610532576101c2565b80639ec2c153116100d15780639ec2c1531461044c578063a217fddf1461047c578063a22cb4651461049a578063a378484c146104b6576101c2565b806375b238fc146103e057806391d14854146103fe57806395d89b411461042e576101c2565b80632f2ff15d116101645780634e865f981161013e5780634e865f981461033457806354403efc146103645780636352211e1461038057806370a08231146103b0576101c2565b80632f2ff15d146102e057806336568abe146102fc57806342842e0e14610318576101c2565b8063095ea7b3116101a0578063095ea7b314610244578063107046bd1461026057806323b872dd14610294578063248a9ca3146102b0576101c2565b806301ffc9a7146101c657806306fdde03146101f6578063081812fc14610214575b5f5ffd5b6101e060048036038101906101db919061263d565b6105d6565b6040516101ed9190612682565b60405180910390f35b6101fe6105e7565b60405161020b919061270b565b60405180910390f35b61022e6004803603810190610229919061275e565b610676565b60405161023b91906127c8565b60405180910390f35b61025e6004803603810190610259919061280b565b6106b8565b005b61027a6004803603810190610275919061275e565b6107ce565b60405161028b959493929190612858565b60405180910390f35b6102ae60048036038101906102a991906128b7565b610918565b005b6102ca60048036038101906102c5919061293a565b610978565b6040516102d79190612974565b60405180910390f35b6102fa60048036038101906102f5919061298d565b610995565b005b6103166004803603810190610311919061298d565b6109b6565b005b610332600480360381019061032d91906128b7565b610a39565b005b61034e6004803603810190610349919061275e565b610a58565b60405161035b91906129cb565b60405180910390f35b61037e600480360381019061037991906129e4565b610a6d565b005b61039a6004803603810190610395919061275e565b610b5b565b6040516103a791906127c8565b60405180910390f35b6103ca60048036038101906103c59190612a34565b610bdf565b6040516103d791906129cb565b60405180910390f35b6103e8610c93565b6040516103f59190612974565b60405180910390f35b6104186004803603810190610413919061298d565b610c99565b6040516104259190612682565b60405180910390f35b610436610cfd565b604051610443919061270b565b60405180910390f35b6104666004803603810190610461919061275e565b610d8d565b60405161047391906129cb565b60405180910390f35b610484610da2565b6040516104919190612974565b60405180910390f35b6104b460048036038101906104af9190612a89565b610da8565b005b6104d060048036038101906104cb9190612b28565b610dbe565b6040516104dd91906129cb565b60405180910390f35b61050060048036038101906104fb9190612cf3565b610f7d565b005b61051c6004803603810190610517919061275e565b610fdf565b604051610529919061270b565b60405180910390f35b61054c6004803603810190610547919061298d565b611044565b005b610556611065565b6040516105639190612974565b60405180910390f35b61058660048036038101906105819190612d73565b611089565b6040516105939190612682565b60405180910390f35b6105a4611117565b6040516105b19190612974565b60405180910390f35b6105d460048036038101906105cf9190612db1565b61113b565b005b5f6105e082611215565b9050919050565b60605f80546105f590612e1c565b80601f016020809104026020016040519081016040528092919081815260200182805461062190612e1c565b801561066c5780601f106106435761010080835404028352916020019161066c565b820191905f5260205f20905b81548152906001019060200180831161064f57829003601f168201915b5050505050905090565b5f6106808261128e565b60045f8381526020019081526020015f205f9054906101000a900473ffffffffffffffffffffffffffffffffffffffff169050919050565b5f6106c282610b5b565b90508073ffffffffffffffffffffffffffffffffffffffff168373ffffffffffffffffffffffffffffffffffffffff1603610732576040517f08c379a000000000000000000000000000000000000000000000000000000000815260040161072990612ebc565b60405180910390fd5b8073ffffffffffffffffffffffffffffffffffffffff166107516112d9565b73ffffffffffffffffffffffffffffffffffffffff161480610780575061077f8161077a6112d9565b611089565b5b6107bf576040517f08c379a00000000000000000000000000000000000000000000000000000000081526004016107b690612f4a565b60405180910390fd5b6107c983836112e0565b505050565b6008602052805f5260405f205f91509050805f0180546107ed90612e1c565b80601f016020809104026020016040519081016040528092919081815260200182805461081990612e1c565b80156108645780601f1061083b57610100808354040283529160200191610864565b820191905f5260205f20905b81548152906001019060200180831161084757829003601f168201915b50505050509080600101549080600201805461087f90612e1c565b80601f01602080910402602001604051908101604052809291908181526020018280546108ab90612e1c565b80156108f65780601f106108cd576101008083540402835291602001916108f6565b820191905f5260205f20905b8154815290600101906020018083116108d957829003601f168201915b505050505090806003015490806004015f9054906101000a900460ff16905085565b6109296109236112d9565b82611396565b610968576040517f08c379a000000000000000000000000000000000000000000000000000000000815260040161095f90612fd8565b60405180910390fd5b61097383838361142a565b505050565b5f60065f8381526020019081526020015f20600101549050919050565b61099e82610978565b6109a781611716565b6109b1838361172a565b505050565b6109be6112d9565b73ffffffffffffffffffffffffffffffffffffffff168173ffffffffffffffffffffffffffffffffffffffff1614610a2b576040517f08c379a0000000000000000000000000000000000000000000000000000000008152600401610a2290613066565b60405180910390fd5b610a358282611805565b5050565b610a5383838360405180602001604052805f815250610f7d565b505050565b6009602052805f5260405f205f915090505481565b7f0ce23c3e399818cfee81a7ab0880f714e53d7672b08df0fa62f2843416e1ea09610a9781611716565b610aa0846118e0565b610adf576040517f08c379a0000000000000000000000000000000000000000000000000000000008152600401610ad6906130ce565b60405180910390fd5b8260095f8681526020019081526020015f208190555081600a5f8681526020019081526020015f205f828254610b159190613119565b9250508190555082847f1a43e2d936094a29ced9f8fb2c1df0c7c08ddbe1d75aebff8b87dcd97c055f6c84604051610b4d91906129cb565b60405180910390a350505050565b5f5f610b6683611920565b90505f73ffffffffffffffffffffffffffffffffffffffff168173ffffffffffffffffffffffffffffffffffffffff1603610bd6576040517f08c379a0000000000000000000000000000000000000000000000000000000008152600401610bcd90613196565b60405180910390fd5b80915050919050565b5f5f73ffffffffffffffffffffffffffffffffffffffff168273ffffffffffffffffffffffffffffffffffffffff1603610c4e576040517f08c379a0000000000000000000000000000000000000000000000000000000008152600401610c4590613224565b60405180910390fd5b60035f8373ffffffffffffffffffffffffffffffffffffffff1673ffffffffffffffffffffffffffffffffffffffff1681526020019081526020015f20549050919050565b5f5f1b81565b5f60065f8481526020019081526020015f205f015f8373ffffffffffffffffffffffffffffffffffffffff1673ffffffffffffffffffffffffffffffffffffffff1681526020019081526020015f205f9054906101000a900460ff16905092915050565b606060018054610d0c90612e1c565b80601f0160208091040260200160405190810160405280929190818152602001828054610d3890612e1c565b8015610d835780601f10610d5a57610100808354040283529160200191610d83565b820191905f5260205f20905b815481529060010190602001808311610d6657829003601f168201915b5050505050905090565b600a602052805f5260405f205f915090505481565b5f5f1b81565b610dba610db36112d9565b8383611959565b5050565b5f7f7409dd26ef14054436243be79996fa1ab352eb1e8f34bcf72012e7de1d1176f0610de981611716565b610df36007611ac0565b5f610dfe6007611ad4565b90506040518060a0016040528089898080601f0160208091040260200160405190810160405280939291908181526020018383808284375f81840152601f19601f82011690508083019250505050505050815260200187815260200186868080601f0160208091040260200160405190810160405280939291908181526020018383808284375f81840152601f19601f8201169050808301925050505050505081526020014281526020015f151581525060085f8381526020019081526020015f205f820151815f019081610ed391906133e2565b50602082015181600101556040820151816002019081610ef391906133e2565b50606082015181600301556080820151816004015f6101000a81548160ff021916908315150217905550905050610f2a8982611ae0565b8873ffffffffffffffffffffffffffffffffffffffff16817f8cc21e69f47223aa07e145829f349af742ddadbc1ac6b242607a0694cd47a66a60405160405180910390a380925050509695505050505050565b610f8e610f886112d9565b83611396565b610fcd576040517f08c379a0000000000000000000000000000000000000000000000000000000008152600401610fc490612fd8565b60405180910390fd5b610fd984848484611afd565b50505050565b6060610fea8261128e565b5f610ff3611b59565b90505f8151116110115760405180602001604052805f81525061103c565b8061101b84611b6f565b60405160200161102c9291906134eb565b6040516020818303038152906040525b915050919050565b61104d82610978565b61105681611716565b6110608383611805565b505050565b7f0ce23c3e399818cfee81a7ab0880f714e53d7672b08df0fa62f2843416e1ea0981565b5f60055f8473ffffffffffffffffffffffffffffffffffffffff1673ffffffffffffffffffffffffffffffffffffffff1681526020019081526020015f205f8373ffffffffffffffffffffffffffffffffffffffff1673ffffffffffffffffffffffffffffffffffffffff1681526020019081526020015f205f9054906101000a900460ff16905092915050565b7f7409dd26ef14054436243be79996fa1ab352eb1e8f34bcf72012e7de1d1176f081565b7f0ce23c3e399818cfee81a7ab0880f714e53d7672b08df0fa62f2843416e1ea0961116581611716565b61116e836118e0565b6111ad576040517f08c379a00000000000000000000000000000000000000000000000000000000081526004016111a4906130ce565b60405180910390fd5b8160085f8581526020019081526020015f206004015f6101000a81548160ff021916908315150217905550827f4b50f64cf60b845001af6ec00bf4365ecb69047b3d8896de0fdfa37c7c8815e9836040516112089190612682565b60405180910390a2505050565b5f7f7965db0b000000000000000000000000000000000000000000000000000000007bffffffffffffffffffffffffffffffffffffffffffffffffffffffff1916827bffffffffffffffffffffffffffffffffffffffffffffffffffffffff19161480611287575061128682611c39565b5b9050919050565b611297816118e0565b6112d6576040517f08c379a00000000000000000000000000000000000000000000000000000000081526004016112cd90613196565b60405180910390fd5b50565b5f33905090565b8160045f8381526020019081526020015f205f6101000a81548173ffffffffffffffffffffffffffffffffffffffff021916908373ffffffffffffffffffffffffffffffffffffffff160217905550808273ffffffffffffffffffffffffffffffffffffffff1661135083610b5b565b73ffffffffffffffffffffffffffffffffffffffff167f8c5be1e5ebec7d5bd14f71427d1e84f3dd0314c0f7b2291e5b200ac8c7c3b92560405160405180910390a45050565b5f5f6113a183610b5b565b90508073ffffffffffffffffffffffffffffffffffffffff168473ffffffffffffffffffffffffffffffffffffffff1614806113e357506113e28185611089565b5b8061142157508373ffffffffffffffffffffffffffffffffffffffff1661140984610676565b73ffffffffffffffffffffffffffffffffffffffff16145b91505092915050565b8273ffffffffffffffffffffffffffffffffffffffff1661144a82610b5b565b73ffffffffffffffffffffffffffffffffffffffff16146114a0576040517f08c379a00000000000000000000000000000000000000000000000000000000081526004016114979061357e565b60405180910390fd5b5f73ffffffffffffffffffffffffffffffffffffffff168273ffffffffffffffffffffffffffffffffffffffff160361150e576040517f08c379a00000000000000000000000000000000000000000000000000000000081526004016115059061360c565b60405180910390fd5b61151b8383836001611d1a565b8273ffffffffffffffffffffffffffffffffffffffff1661153b82610b5b565b73ffffffffffffffffffffffffffffffffffffffff1614611591576040517f08c379a00000000000000000000000000000000000000000000000000000000081526004016115889061357e565b60405180910390fd5b60045f8281526020019081526020015f205f6101000a81549073ffffffffffffffffffffffffffffffffffffffff0219169055600160035f8573ffffffffffffffffffffffffffffffffffffffff1673ffffffffffffffffffffffffffffffffffffffff1681526020019081526020015f205f8282540392505081905550600160035f8473ffffffffffffffffffffffffffffffffffffffff1673ffffffffffffffffffffffffffffffffffffffff1681526020019081526020015f205f82825401925050819055508160025f8381526020019081526020015f205f6101000a81548173ffffffffffffffffffffffffffffffffffffffff021916908373ffffffffffffffffffffffffffffffffffffffff160217905550808273ffffffffffffffffffffffffffffffffffffffff168473ffffffffffffffffffffffffffffffffffffffff167fddf252ad1be2c89b69c2b068fc378daa952ba7f163c4a11628f55a4df523b3ef60405160405180910390a46117118383836001611d20565b505050565b611727816117226112d9565b611d26565b50565b6117348282610c99565b61180157600160065f8481526020019081526020015f205f015f8373ffffffffffffffffffffffffffffffffffffffff1673ffffffffffffffffffffffffffffffffffffffff1681526020019081526020015f205f6101000a81548160ff0219169083151502179055506117a66112d9565b73ffffffffffffffffffffffffffffffffffffffff168173ffffffffffffffffffffffffffffffffffffffff16837f2f8788117e7eff1d82e926ec794901d17c78024a50270940304540a733656f0d60405160405180910390a45b5050565b61180f8282610c99565b156118dc575f60065f8481526020019081526020015f205f015f8373ffffffffffffffffffffffffffffffffffffffff1673ffffffffffffffffffffffffffffffffffffffff1681526020019081526020015f205f6101000a81548160ff0219169083151502179055506118816112d9565b73ffffffffffffffffffffffffffffffffffffffff168173ffffffffffffffffffffffffffffffffffffffff16837ff6391f5c32d9c69d2a47ea670b442974b53935d1edc7fd64eb21e047a839171b60405160405180910390a45b5050565b5f5f73ffffffffffffffffffffffffffffffffffffffff1661190183611920565b73ffffffffffffffffffffffffffffffffffffffff1614159050919050565b5f60025f8381526020019081526020015f205f9054906101000a900473ffffffffffffffffffffffffffffffffffffffff169050919050565b8173ffffffffffffffffffffffffffffffffffffffff168373ffffffffffffffffffffffffffffffffffffffff16036119c7576040517f08c379a00000000000000000000000000000000000000000000000000000000081526004016119be90613674565b60405180910390fd5b8060055f8573ffffffffffffffffffffffffffffffffffffffff1673ffffffffffffffffffffffffffffffffffffffff1681526020019081526020015f205f8473ffffffffffffffffffffffffffffffffffffffff1673ffffffffffffffffffffffffffffffffffffffff1681526020019081526020015f205f6101000a81548160ff0219169083151502179055508173ffffffffffffffffffffffffffffffffffffffff168373ffffffffffffffffffffffffffffffffffffffff167f17307eab39ab6107e8899845ad3d59bd9653f200f220920489ca2b5937696c3183604051611ab39190612682565b60405180910390a3505050565b6001815f015f828254019250508190555050565b5f815f01549050919050565b611af9828260405180602001604052805f815250611daa565b5050565b611b0884848461142a565b611b1484848484611e04565b611b53576040517f08c379a0000000000000000000000000000000000000000000000000000000008152600401611b4a90613702565b60405180910390fd5b50505050565b606060405180602001604052805f815250905090565b60605f6001611b7d84611f86565b0190505f8167ffffffffffffffff811115611b9b57611b9a612bcf565b5b6040519080825280601f01601f191660200182016040528015611bcd5781602001600182028036833780820191505090505b5090505f82602001820190505b600115611c2e578080600190039150507f3031323334353637383961626364656600000000000000000000000000000000600a86061a8153600a8581611c2357611c22613720565b5b0494505f8503611bda575b819350505050919050565b5f7f80ac58cd000000000000000000000000000000000000000000000000000000007bffffffffffffffffffffffffffffffffffffffffffffffffffffffff1916827bffffffffffffffffffffffffffffffffffffffffffffffffffffffff19161480611d0357507f5b5e139f000000000000000000000000000000000000000000000000000000007bffffffffffffffffffffffffffffffffffffffffffffffffffffffff1916827bffffffffffffffffffffffffffffffffffffffffffffffffffffffff1916145b80611d135750611d12826120d7565b5b9050919050565b50505050565b50505050565b611d308282610c99565b611da657611d3d81612140565b611d4a835f1c602061216d565b604051602001611d5b9291906137e1565b6040516020818303038152906040526040517f08c379a0000000000000000000000000000000000000000000000000000000008152600401611d9d919061270b565b60405180910390fd5b5050565b611db483836123a2565b611dc05f848484611e04565b611dff576040517f08c379a0000000000000000000000000000000000000000000000000000000008152600401611df690613702565b60405180910390fd5b505050565b5f611e248473ffffffffffffffffffffffffffffffffffffffff166125b5565b15611f79578373ffffffffffffffffffffffffffffffffffffffff1663150b7a02611e4d6112d9565b8786866040518563ffffffff1660e01b8152600401611e6f949392919061386c565b6020604051808303815f875af1925050508015611eaa57506040513d601f19601f82011682018060405250810190611ea791906138ca565b60015b611f29573d805f8114611ed8576040519150601f19603f3d011682016040523d82523d5f602084013e611edd565b606091505b505f815103611f21576040517f08c379a0000000000000000000000000000000000000000000000000000000008152600401611f1890613702565b60405180910390fd5b805181602001fd5b63150b7a0260e01b7bffffffffffffffffffffffffffffffffffffffffffffffffffffffff1916817bffffffffffffffffffffffffffffffffffffffffffffffffffffffff191614915050611f7e565b600190505b949350505050565b5f5f5f90507a184f03e93ff9f4daa797ed6e38ed64bf6a1f0100000000000000008310611fe2577a184f03e93ff9f4daa797ed6e38ed64bf6a1f0100000000000000008381611fd857611fd7613720565b5b0492506040810190505b6d04ee2d6d415b85acef8100000000831061201f576d04ee2d6d415b85acef8100000000838161201557612014613720565b5b0492506020810190505b662386f26fc10000831061204e57662386f26fc10000838161204457612043613720565b5b0492506010810190505b6305f5e1008310612077576305f5e100838161206d5761206c613720565b5b0492506008810190505b612710831061209c57612710838161209257612091613720565b5b0492506004810190505b606483106120bf57606483816120b5576120b4613720565b5b0492506002810190505b600a83106120ce576001810190505b80915050919050565b5f7f01ffc9a7000000000000000000000000000000000000000000000000000000007bffffffffffffffffffffffffffffffffffffffffffffffffffffffff1916827bffffffffffffffffffffffffffffffffffffffffffffffffffffffff1916149050919050565b60606121668273ffffffffffffffffffffffffffffffffffffffff16601460ff1661216d565b9050919050565b60605f600283600261217f91906138f5565b6121899190613119565b67ffffffffffffffff8111156121a2576121a1612bcf565b5b6040519080825280601f01601f1916602001820160405280156121d45781602001600182028036833780820191505090505b5090507f3000000000000000000000000000000000000000000000000000000000000000815f8151811061220b5761220a613936565b5b60200101907effffffffffffffffffffffffffffffffffffffffffffffffffffffffffffff191690815f1a9053507f78000000000000000000000000000000000000000000000000000000000000008160018151811061226e5761226d613936565b5b60200101907effffffffffffffffffffffffffffffffffffffffffffffffffffffffffffff191690815f1a9053505f60018460026122ac91906138f5565b6122b69190613119565b90505b6001811115612355577f3031323334353637383961626364656600000000000000000000000000000000600f8616601081106122f8576122f7613936565b5b1a60f81b82828151811061230f5761230e613936565b5b60200101907effffffffffffffffffffffffffffffffffffffffffffffffffffffffffffff191690815f1a905350600485901c94508061234e90613963565b90506122b9565b505f8414612398576040517f08c379a000000000000000000000000000000000000000000000000000000000815260040161238f906139d4565b60405180910390fd5b8091505092915050565b5f73ffffffffffffffffffffffffffffffffffffffff168273ffffffffffffffffffffffffffffffffffffffff1603612410576040517f08c379a000000000000000000000000000000000000000000000000000000000815260040161240790613a3c565b60405180910390fd5b612419816118e0565b15612459576040517f08c379a000000000000000000000000000000000000000000000000000000000815260040161245090613aa4565b60405180910390fd5b6124665f83836001611d1a565b61246f816118e0565b156124af576040517f08c379a00000000000000000000000000000000000000000000000000000000081526004016124a690613aa4565b60405180910390fd5b600160035f8473ffffffffffffffffffffffffffffffffffffffff1673ffffffffffffffffffffffffffffffffffffffff1681526020019081526020015f205f82825401925050819055508160025f8381526020019081526020015f205f6101000a81548173ffffffffffffffffffffffffffffffffffffffff021916908373ffffffffffffffffffffffffffffffffffffffff160217905550808273ffffffffffffffffffffffffffffffffffffffff165f73ffffffffffffffffffffffffffffffffffffffff167fddf252ad1be2c89b69c2b068fc378daa952ba7f163c4a11628f55a4df523b3ef60405160405180910390a46125b15f83836001611d20565b5050565b5f5f8273ffffffffffffffffffffffffffffffffffffffff163b119050919050565b5f604051905090565b5f5ffd5b5f5ffd5b5f7fffffffff0000000000000000000000000000000000000000000000000000000082169050919050565b61261c816125e8565b8114612626575f5ffd5b50565b5f8135905061263781612613565b92915050565b5f60208284031215612652576126516125e0565b5b5f61265f84828501612629565b91505092915050565b5f8115159050919050565b61267c81612668565b82525050565b5f6020820190506126955f830184612673565b92915050565b5f81519050919050565b5f82825260208201905092915050565b8281835e5f83830152505050565b5f601f19601f8301169050919050565b5f6126dd8261269b565b6126e781856126a5565b93506126f78185602086016126b5565b612700816126c3565b840191505092915050565b5f6020820190508181035f83015261272381846126d3565b905092915050565b5f819050919050565b61273d8161272b565b8114612747575f5ffd5b50565b5f8135905061275881612734565b92915050565b5f60208284031215612773576127726125e0565b5b5f6127808482850161274a565b91505092915050565b5f73ffffffffffffffffffffffffffffffffffffffff82169050919050565b5f6127b282612789565b9050919050565b6127c2816127a8565b82525050565b5f6020820190506127db5f8301846127b9565b92915050565b6127ea816127a8565b81146127f4575f5ffd5b50565b5f81359050612805816127e1565b92915050565b5f5f60408385031215612821576128206125e0565b5b5f61282e858286016127f7565b925050602061283f8582860161274a565b9150509250929050565b6128528161272b565b82525050565b5f60a0820190508181035f83015261287081886126d3565b905061287f6020830187612849565b818103604083015261289181866126d3565b90506128a06060830185612849565b6128ad6080830184612673565b9695505050505050565b5f5f5f606084860312156128ce576128cd6125e0565b5b5f6128db868287016127f7565b93505060206128ec868287016127f7565b92505060406128fd8682870161274a565b9150509250925092565b5f819050919050565b61291981612907565b8114612923575f5ffd5b50565b5f8135905061293481612910565b92915050565b5f6020828403121561294f5761294e6125e0565b5b5f61295c84828501612926565b91505092915050565b61296e81612907565b82525050565b5f6020820190506129875f830184612965565b92915050565b5f5f604083850312156129a3576129a26125e0565b5b5f6129b085828601612926565b92505060206129c1858286016127f7565b9150509250929050565b5f6020820190506129de5f830184612849565b92915050565b5f5f5f606084860312156129fb576129fa6125e0565b5b5f612a088682870161274a565b9350506020612a198682870161274a565b9250506040612a2a8682870161274a565b9150509250925092565b5f60208284031215612a4957612a486125e0565b5b5f612a56848285016127f7565b91505092915050565b612a6881612668565b8114612a72575f5ffd5b50565b5f81359050612a8381612a5f565b92915050565b5f5f60408385031215612a9f57612a9e6125e0565b5b5f612aac858286016127f7565b9250506020612abd85828601612a75565b9150509250929050565b5f5ffd5b5f5ffd5b5f5ffd5b5f5f83601f840112612ae857612ae7612ac7565b5b8235905067ffffffffffffffff811115612b0557612b04612acb565b5b602083019150836001820283011115612b2157612b20612acf565b5b9250929050565b5f5f5f5f5f5f60808789031215612b4257612b416125e0565b5b5f612b4f89828a016127f7565b965050602087013567ffffffffffffffff811115612b7057612b6f6125e4565b5b612b7c89828a01612ad3565b95509550506040612b8f89828a0161274a565b935050606087013567ffffffffffffffff811115612bb057612baf6125e4565b5b612bbc89828a01612ad3565b92509250509295509295509295565b5f5ffd5b7f4e487b71000000000000000000000000000000000000000000000000000000005f52604160045260245ffd5b612c05826126c3565b810181811067ffffffffffffffff82111715612c2457612c23612bcf565b5b80604052505050565b5f612c366125d7565b9050612c428282612bfc565b919050565b5f67ffffffffffffffff821115612c6157612c60612bcf565b5b612c6a826126c3565b9050602081019050919050565b828183375f83830152505050565b5f612c97612c9284612c47565b612c2d565b905082815260208101848484011115612cb357612cb2612bcb565b5b612cbe848285612c77565b509392505050565b5f82601f830112612cda57612cd9612ac7565b5b8135612cea848260208601612c85565b91505092915050565b5f5f5f5f60808587031215612d0b57612d0a6125e0565b5b5f612d18878288016127f7565b9450506020612d29878288016127f7565b9350506040612d3a8782880161274a565b925050606085013567ffffffffffffffff811115612d5b57612d5a6125e4565b5b612d6787828801612cc6565b91505092959194509250565b5f5f60408385031215612d8957612d886125e0565b5b5f612d96858286016127f7565b9250506020612da7858286016127f7565b9150509250929050565b5f5f60408385031215612dc757612dc66125e0565b5b5f612dd48582860161274a565b9250506020612de585828601612a75565b9150509250929050565b7f4e487b71000000000000000000000000000000000000000000000000000000005f52602260045260245ffd5b5f6002820490506001821680612e3357607f821691505b602082108103612e4657612e45612def565b5b50919050565b7f4552433732313a20617070726f76616c20746f2063757272656e74206f776e655f8201527f7200000000000000000000000000000000000000000000000000000000000000602082015250565b5f612ea66021836126a5565b9150612eb182612e4c565b604082019050919050565b5f6020820190508181035f830152612ed381612e9a565b9050919050565b7f4552433732313a20617070726f76652063616c6c6572206973206e6f7420746f5f8201527f6b656e206f776e6572206f7220617070726f76656420666f7220616c6c000000602082015250565b5f612f34603d836126a5565b9150612f3f82612eda565b604082019050919050565b5f6020820190508181035f830152612f6181612f28565b9050919050565b7f4552433732313a2063616c6c6572206973206e6f7420746f6b656e206f776e655f8201527f72206f7220617070726f76656400000000000000000000000000000000000000602082015250565b5f612fc2602d836126a5565b9150612fcd82612f68565b604082019050919050565b5f6020820190508181035f830152612fef81612fb6565b9050919050565b7f416363657373436f6e74726f6c3a2063616e206f6e6c792072656e6f756e63655f8201527f20726f6c657320666f722073656c660000000000000000000000000000000000602082015250565b5f613050602f836126a5565b915061305b82612ff6565b604082019050919050565b5f6020820190508181035f83015261307d81613044565b9050919050565b7f50726f6a65637420646f6573206e6f74206578697374000000000000000000005f82015250565b5f6130b86016836126a5565b91506130c382613084565b602082019050919050565b5f6020820190508181035f8301526130e5816130ac565b9050919050565b7f4e487b71000000000000000000000000000000000000000000000000000000005f52601160045260245ffd5b5f6131238261272b565b915061312e8361272b565b9250828201905080821115613146576131456130ec565b5b92915050565b7f4552433732313a20696e76616c696420746f6b656e20494400000000000000005f82015250565b5f6131806018836126a5565b915061318b8261314c565b602082019050919050565b5f6020820190508181035f8301526131ad81613174565b9050919050565b7f4552433732313a2061646472657373207a65726f206973206e6f7420612076615f8201527f6c6964206f776e65720000000000000000000000000000000000000000000000602082015250565b5f61320e6029836126a5565b9150613219826131b4565b604082019050919050565b5f6020820190508181035f83015261323b81613202565b9050919050565b5f819050815f5260205f209050919050565b5f6020601f8301049050919050565b5f82821b905092915050565b5f6008830261329e7fffffffffffffffffffffffffffffffffffffffffffffffffffffffffffffffff82613263565b6132a88683613263565b95508019841693508086168417925050509392505050565b5f819050919050565b5f6132e36132de6132d98461272b565b6132c0565b61272b565b9050919050565b5f819050919050565b6132fc836132c9565b613310613308826132ea565b84845461326f565b825550505050565b5f5f905090565b613327613318565b6133328184846132f3565b505050565b5b818110156133555761334a5f8261331f565b600181019050613338565b5050565b601f82111561339a5761336b81613242565b61337484613254565b81016020851015613383578190505b61339761338f85613254565b830182613337565b50505b505050565b5f82821c905092915050565b5f6133ba5f198460080261339f565b1980831691505092915050565b5f6133d283836133ab565b9150826002028217905092915050565b6133eb8261269b565b67ffffffffffffffff81111561340457613403612bcf565b5b61340e8254612e1c565b613419828285613359565b5f60209050601f83116001811461344a575f8415613438578287015190505b61344285826133c7565b8655506134a9565b601f19841661345886613242565b5f5b8281101561347f5784890151825560018201915060208501945060208101905061345a565b8683101561349c5784890151613498601f8916826133ab565b8355505b6001600288020188555050505b505050505050565b5f81905092915050565b5f6134c58261269b565b6134cf81856134b1565b93506134df8185602086016126b5565b80840191505092915050565b5f6134f682856134bb565b915061350282846134bb565b91508190509392505050565b7f4552433732313a207472616e736665722066726f6d20696e636f7272656374205f8201527f6f776e6572000000000000000000000000000000000000000000000000000000602082015250565b5f6135686025836126a5565b91506135738261350e565b604082019050919050565b5f6020820190508181035f8301526135958161355c565b9050919050565b7f4552433732313a207472616e7366657220746f20746865207a65726f206164645f8201527f7265737300000000000000000000000000000000000000000000000000000000602082015250565b5f6135f66024836126a5565b91506136018261359c565b604082019050919050565b5f6020820190508181035f830152613623816135ea565b9050919050565b7f4552433732313a20617070726f766520746f2063616c6c6572000000000000005f82015250565b5f61365e6019836126a5565b91506136698261362a565b602082019050919050565b5f6020820190508181035f83015261368b81613652565b9050919050565b7f4552433732313a207472616e7366657220746f206e6f6e2045524337323152655f8201527f63656976657220696d706c656d656e7465720000000000000000000000000000602082015250565b5f6136ec6032836126a5565b91506136f782613692565b604082019050919050565b5f6020820190508181035f830152613719816136e0565b9050919050565b7f4e487b71000000000000000000000000000000000000000000000000000000005f52601260045260245ffd5b7f416363657373436f6e74726f6c3a206163636f756e74200000000000000000005f82015250565b5f6137816017836134b1565b915061378c8261374d565b601782019050919050565b7f206973206d697373696e6720726f6c65200000000000000000000000000000005f82015250565b5f6137cb6011836134b1565b91506137d682613797565b601182019050919050565b5f6137eb82613775565b91506137f782856134bb565b9150613802826137bf565b915061380e82846134bb565b91508190509392505050565b5f81519050919050565b5f82825260208201905092915050565b5f61383e8261381a565b6138488185613824565b93506138588185602086016126b5565b613861816126c3565b840191505092915050565b5f60808201905061387f5f8301876127b9565b61388c60208301866127b9565b6138996040830185612849565b81810360608301526138ab8184613834565b905095945050505050565b5f815190506138c481612613565b92915050565b5f602082840312156138df576138de6125e0565b5b5f6138ec848285016138b6565b91505092915050565b5f6138ff8261272b565b915061390a8361272b565b92508282026139188161272b565b9150828204841483151761392f5761392e6130ec565b5b5092915050565b7f4e487b71000000000000000000000000000000000000000000000000000000005f52603260045260245ffd5b5f61396d8261272b565b91505f820361397f5761397e6130ec565b5b600182039050919050565b7f537472696e67733a20686578206c656e67746820696e73756666696369656e745f82015250565b5f6139be6020836126a5565b91506139c98261398a565b602082019050919050565b5f6020820190508181035f8301526139eb816139b2565b9050919050565b7f4552433732313a206d696e7420746f20746865207a65726f20616464726573735f82015250565b5f613a266020836126a5565b9150613a31826139f2565b602082019050919050565b5f6020820190508181035f830152613a5381613a1a565b9050919050565b7f4552433732313a20746f6b656e20616c7265616479206d696e746564000000005f82015250565b5f613a8e601c836126a5565b9150613a9982613a5a565b602082019050919050565b5f6020820190508181035f830152613abb81613a82565b905091905056fea2646970667358221220aa655d2968c61a48113ee46375cea2bfe31913e4252a0e347323689392b832f664736f6c634300081e0033",
			"opcodes": "PUSH1 0x80 PUSH1 0x40 MSTORE CALLVALUE DUP1 ISZERO PUSH2 0xF JUMPI PUSH0 PUSH0 REVERT JUMPDEST POP PUSH1 0x40 MLOAD PUSH2 0x417A CODESIZE SUB DUP1 PUSH2 0x417A DUP4 CODECOPY DUP2 DUP2 ADD PUSH1 0x40 MSTORE DUP2 ADD SWAP1 PUSH2 0x31 SWAP2 SWAP1 PUSH2 0x320 JUMP JUMPDEST DUP2 DUP2 DUP2 PUSH0 SWAP1 DUP2 PUSH2 0x41 SWAP2 SWAP1 PUSH2 0x5A6 JUMP JUMPDEST POP DUP1 PUSH1 0x1 SWAP1 DUP2 PUSH2 0x51 SWAP2 SWAP1 PUSH2 0x5A6 JUMP JUMPDEST POP POP POP PUSH2 0x66 PUSH0 PUSH0 SHL CALLER PUSH2 0x6D PUSH1 0x20 SHL PUSH1 0x20 SHR JUMP JUMPDEST POP POP PUSH2 0x675 JUMP JUMPDEST PUSH2 0x7D DUP3 DUP3 PUSH2 0x81 PUSH1 0x20 SHL PUSH1 0x20 SHR JUMP JUMPDEST POP POP JUMP JUMPDEST PUSH2 0x91 DUP3 DUP3 PUSH2 0x168 PUSH1 0x20 SHL PUSH1 0x20 SHR JUMP JUMPDEST PUSH2 0x164 JUMPI PUSH1 0x1 PUSH1 0x6 PUSH0 DUP5 DUP2 MSTORE PUSH1 0x20 ADD SWAP1 DUP2 MSTORE PUSH1 0x20 ADD PUSH0 KECCAK256 PUSH0 ADD PUSH0 DUP4 PUSH20 0xFFFFFFFFFFFFFFFFFFFFFFFFFFFFFFFFFFFFFFFF AND PUSH20 0xFFFFFFFFFFFFFFFFFFFFFFFFFFFFFFFFFFFFFFFF AND DUP2 MSTORE PUSH1 0x20 ADD SWAP1 DUP2 MSTORE PUSH1 0x20 ADD PUSH0 KECCAK256 PUSH0 PUSH2 0x100 EXP DUP2 SLOAD DUP2 PUSH1 0xFF MUL NOT AND SWAP1 DUP4 ISZERO ISZERO MUL OR SWAP1 SSTORE POP PUSH2 0x109 PUSH2 0x1CC PUSH1 0x20 SHL PUSH1 0x20 SHR JUMP JUMPDEST PUSH20 0xFFFFFFFFFFFFFFFFFFFFFFFFFFFFFFFFFFFFFFFF AND DUP2 PUSH20 0xFFFFFFFFFFFFFFFFFFFFFFFFFFFFFFFFFFFFFFFF AND DUP4 PUSH32 0x2F8788117E7EFF1D82E926EC794901D17C78024A50270940304540A733656F0D PUSH1 0x40 MLOAD PUSH1 0x40 MLOAD DUP1 SWAP2 SUB SWAP1 LOG4 JUMPDEST POP POP JUMP JUMPDEST PUSH0 PUSH1 0x6 PUSH0 DUP5 DUP2 MSTORE PUSH1 0x20 ADD SWAP1 DUP2 MSTORE PUSH1 0x20 ADD PUSH0 KECCAK256 PUSH0 ADD PUSH0 DUP4 PUSH20 0xFFFFFFFFFFFFFFFFFFFFFFFFFFFFFFFFFFFFFFFF AND PUSH20 0xFFFFFFFFFFFFFFFFFFFFFFFFFFFFFFFFFFFFFFFF AND DUP2 MSTORE PUSH1 0x20 ADD SWAP1 DUP2 MSTORE PUSH1 0x20 ADD PUSH0 KECCAK256 PUSH0 SWAP1 SLOAD SWAP1 PUSH2 0x100 EXP SWAP1 DIV PUSH1 0xFF AND SWAP1 POP SWAP3 SWAP2 POP POP JUMP JUMPDEST PUSH0 CALLER SWAP1 POP SWAP1 JUMP JUMPDEST PUSH0 PUSH1 0x40 MLOAD SWAP1 POP SWAP1 JUMP JUMPDEST PUSH0 PUSH0 REVERT JUMPDEST PUSH0 PUSH0 REVERT JUMPDEST PUSH0 PUSH0 REVERT JUMPDEST PUSH0 PUSH0 REVERT JUMPDEST PUSH0 PUSH1 0x1F NOT PUSH1 0x1F DUP4 ADD AND SWAP1 POP SWAP2 SWAP1 POP JUMP JUMPDEST PUSH32 0x4E487B7100000000000000000000000000000000000000000000000000000000 PUSH0 MSTORE PUSH1 0x41 PUSH1 0x4 MSTORE PUSH1 0x24 PUSH0 REVERT JUMPDEST PUSH2 0x232 DUP3 PUSH2 0x1EC JUMP JUMPDEST DUP2 ADD DUP2 DUP2 LT PUSH8 0xFFFFFFFFFFFFFFFF DUP3 GT OR ISZERO PUSH2 0x251 JUMPI PUSH2 0x250 PUSH2 0x1FC JUMP JUMPDEST JUMPDEST DUP1 PUSH1 0x40 MSTORE POP POP POP JUMP JUMPDEST PUSH0 PUSH2 0x263 PUSH2 0x1D3 JUMP JUMPDEST SWAP1 POP PUSH2 0x26F DUP3 DUP3 PUSH2 0x229 JUMP JUMPDEST SWAP2 SWAP1 POP JUMP JUMPDEST PUSH0 PUSH8 0xFFFFFFFFFFFFFFFF DUP3 GT ISZERO PUSH2 0x28E JUMPI PUSH2 0x28D PUSH2 0x1FC JUMP JUMPDEST JUMPDEST PUSH2 0x297 DUP3 PUSH2 0x1EC JUMP JUMPDEST SWAP1 POP PUSH1 0x20 DUP2 ADD SWAP1 POP SWAP2 SWAP1 POP JUMP JUMPDEST DUP3 DUP2 DUP4 MCOPY PUSH0 DUP4 DUP4 ADD MSTORE POP POP POP JUMP JUMPDEST PUSH0 PUSH2 0x2C4 PUSH2 0x2BF DUP5 PUSH2 0x274 JUMP JUMPDEST PUSH2 0x25A JUMP JUMPDEST SWAP1 POP DUP3 DUP2 MSTORE PUSH1 0x20 DUP2 ADD DUP5 DUP5 DUP5 ADD GT ISZERO PUSH2 0x2E0 JUMPI PUSH2 0x2DF PUSH2 0x1E8 JUMP JUMPDEST JUMPDEST PUSH2 0x2EB DUP5 DUP3 DUP6 PUSH2 0x2A4 JUMP JUMPDEST POP SWAP4 SWAP3 POP POP POP JUMP JUMPDEST PUSH0 DUP3 PUSH1 0x1F DUP4 ADD SLT PUSH2 0x307 JUMPI PUSH2 0x306 PUSH2 0x1E4 JUMP JUMPDEST JUMPDEST DUP2 MLOAD PUSH2 0x317 DUP5 DUP3 PUSH1 0x20 DUP7 ADD PUSH2 0x2B2 JUMP JUMPDEST SWAP2 POP POP SWAP3 SWAP2 POP POP JUMP JUMPDEST PUSH0 PUSH0 PUSH1 0x40 DUP4 DUP6 SUB SLT ISZERO PUSH2 0x336 JUMPI PUSH2 0x335 PUSH2 0x1DC JUMP JUMPDEST JUMPDEST PUSH0 DUP4 ADD MLOAD PUSH8 0xFFFFFFFFFFFFFFFF DUP2 GT ISZERO PUSH2 0x353 JUMPI PUSH2 0x352 PUSH2 0x1E0 JUMP JUMPDEST JUMPDEST PUSH2 0x35F DUP6 DUP3 DUP7 ADD PUSH2 0x2F3 JUMP JUMPDEST SWAP3 POP POP PUSH1 0x20 DUP4 ADD MLOAD PUSH8 0xFFFFFFFFFFFFFFFF DUP2 GT ISZERO PUSH2 0x380 JUMPI PUSH2 0x37F PUSH2 0x1E0 JUMP JUMPDEST JUMPDEST PUSH2 0x38C DUP6 DUP3 DUP7 ADD PUSH2 0x2F3 JUMP JUMPDEST SWAP2 POP POP SWAP3 POP SWAP3 SWAP1 POP JUMP JUMPDEST PUSH0 DUP2 MLOAD SWAP1 POP SWAP2 SWAP1 POP JUMP JUMPDEST PUSH32 0x4E487B7100000000000000000000000000000000000000000000000000000000 PUSH0 MSTORE PUSH1 0x22 PUSH1 0x4 MSTORE PUSH1 0x24 PUSH0 REVERT JUMPDEST PUSH0 PUSH1 0x2 DUP3 DIV SWAP1 POP PUSH1 0x1 DUP3 AND DUP1 PUSH2 0x3E4 JUMPI PUSH1 0x7F DUP3 AND SWAP2 POP JUMPDEST PUSH1 0x20 DUP3 LT DUP2 SUB PUSH2 0x3F7 JUMPI PUSH2 0x3F6 PUSH2 0x3A0 JUMP JUMPDEST JUMPDEST POP SWAP2 SWAP1 POP JUMP JUMPDEST PUSH0 DUP2 SWAP1 POP DUP2 PUSH0 MSTORE PUSH1 0x20 PUSH0 KECCAK256 SWAP1 POP SWAP2 SWAP1 POP JUMP JUMPDEST PUSH0 PUSH1 0x20 PUSH1 0x1F DUP4 ADD DIV SWAP1 POP SWAP2 SWAP1 POP JUMP JUMPDEST PUSH0 DUP3 DUP3 SHL SWAP1 POP SWAP3 SWAP2 POP POP JUMP JUMPDEST PUSH0 PUSH1 0x8 DUP4 MUL PUSH2 0x459 PUSH32 0xFFFFFFFFFFFFFFFFFFFFFFFFFFFFFFFFFFFFFFFFFFFFFFFFFFFFFFFFFFFFFFFF DUP3 PUSH2 0x41E JUMP JUMPDEST PUSH2 0x463 DUP7 DUP4 PUSH2 0x41E JUMP JUMPDEST SWAP6 POP DUP1 NOT DUP5 AND SWAP4 POP DUP1 DUP7 AND DUP5 OR SWAP3 POP POP POP SWAP4 SWAP3 POP POP POP JUMP JUMPDEST PUSH0 DUP2 SWAP1 POP SWAP2 SWAP1 POP JUMP JUMPDEST PUSH0 DUP2 SWAP1 POP SWAP2 SWAP1 POP JUMP JUMPDEST PUSH0 PUSH2 0x4A7 PUSH2 0x4A2 PUSH2 0x49D DUP5 PUSH2 0x47B JUMP JUMPDEST PUSH2 0x484 JUMP JUMPDEST PUSH2 0x47B JUMP JUMPDEST SWAP1 POP SWAP2 SWAP1 POP JUMP JUMPDEST PUSH0 DUP2 SWAP1 POP SWAP2 SWAP1 POP JUMP JUMPDEST PUSH2 0x4C0 DUP4 PUSH2 0x48D JUMP JUMPDEST PUSH2 0x4D4 PUSH2 0x4CC DUP3 PUSH2 0x4AE JUMP JUMPDEST DUP5 DUP5 SLOAD PUSH2 0x42A JUMP JUMPDEST DUP3 SSTORE POP POP POP POP JUMP JUMPDEST PUSH0 PUSH0 SWAP1 POP SWAP1 JUMP JUMPDEST PUSH2 0x4EB PUSH2 0x4DC JUMP JUMPDEST PUSH2 0x4F6 DUP2 DUP5 DUP5 PUSH2 0x4B7 JUMP JUMPDEST POP POP POP JUMP JUMPDEST JUMPDEST DUP2 DUP2 LT ISZERO PUSH2 0x519 JUMPI PUSH2 0x50E PUSH0 DUP3 PUSH2 0x4E3 JUMP JUMPDEST PUSH1 0x1 DUP2 ADD SWAP1 POP PUSH2 0x4FC JUMP JUMPDEST POP POP JUMP JUMPDEST PUSH1 0x1F DUP3 GT ISZERO PUSH2 0x55E JUMPI PUSH2 0x52F DUP2 PUSH2 0x3FD JUMP JUMPDEST PUSH2 0x538 DUP5 PUSH2 0x40F JUMP JUMPDEST DUP2 ADD PUSH1 0x20 DUP6 LT ISZERO PUSH2 0x547 JUMPI DUP2 SWAP1 POP JUMPDEST PUSH2 0x55B PUSH2 0x553 DUP6 PUSH2 0x40F JUMP JUMPDEST DUP4 ADD DUP3 PUSH2 0x4FB JUMP JUMPDEST POP POP JUMPDEST POP POP POP JUMP JUMPDEST PUSH0 DUP3 DUP3 SHR SWAP1 POP SWAP3 SWAP2 POP POP JUMP JUMPDEST PUSH0 PUSH2 0x57E PUSH0 NOT DUP5 PUSH1 0x8 MUL PUSH2 0x563 JUMP JUMPDEST NOT DUP1 DUP4 AND SWAP2 POP POP SWAP3 SWAP2 POP POP JUMP JUMPDEST PUSH0 PUSH2 0x596 DUP4 DUP4 PUSH2 0x56F JUMP JUMPDEST SWAP2 POP DUP3 PUSH1 0x2 MUL DUP3 OR SWAP1 POP SWAP3 SWAP2 POP POP JUMP JUMPDEST PUSH2 0x5AF DUP3 PUSH2 0x396 JUMP JUMPDEST PUSH8 0xFFFFFFFFFFFFFFFF DUP2 GT ISZERO PUSH2 0x5C8 JUMPI PUSH2 0x5C7 PUSH2 0x1FC JUMP JUMPDEST JUMPDEST PUSH2 0x5D2 DUP3 SLOAD PUSH2 0x3CD JUMP JUMPDEST PUSH2 0x5DD DUP3 DUP3 DUP6 PUSH2 0x51D JUMP JUMPDEST PUSH0 PUSH1 0x20 SWAP1 POP PUSH1 0x1F DUP4 GT PUSH1 0x1 DUP2 EQ PUSH2 0x60E JUMPI PUSH0 DUP5 ISZERO PUSH2 0x5FC JUMPI DUP3 DUP8 ADD MLOAD SWAP1 POP JUMPDEST PUSH2 0x606 DUP6 DUP3 PUSH2 0x58B JUMP JUMPDEST DUP7 SSTORE POP PUSH2 0x66D JUMP JUMPDEST PUSH1 0x1F NOT DUP5 AND PUSH2 0x61C DUP7 PUSH2 0x3FD JUMP JUMPDEST PUSH0 JUMPDEST DUP3 DUP2 LT ISZERO PUSH2 0x643 JUMPI DUP5 DUP10 ADD MLOAD DUP3 SSTORE PUSH1 0x1 DUP3 ADD SWAP2 POP PUSH1 0x20 DUP6 ADD SWAP5 POP PUSH1 0x20 DUP2 ADD SWAP1 POP PUSH2 0x61E JUMP JUMPDEST DUP7 DUP4 LT ISZERO PUSH2 0x660 JUMPI DUP5 DUP10 ADD MLOAD PUSH2 0x65C PUSH1 0x1F DUP10 AND DUP3 PUSH2 0x56F JUMP JUMPDEST DUP4 SSTORE POP JUMPDEST PUSH1 0x1 PUSH1 0x2 DUP9 MUL ADD DUP9 SSTORE POP POP POP JUMPDEST POP POP POP POP POP POP JUMP JUMPDEST PUSH2 0x3AF8 DUP1 PUSH2 0x682 PUSH0 CODECOPY PUSH0 RETURN INVALID PUSH1 0x80 PUSH1 0x40 MSTORE CALLVALUE DUP1 ISZERO PUSH2 0xF JUMPI PUSH0 PUSH0 REVERT JUMPDEST POP PUSH1 0x4 CALLDATASIZE LT PUSH2 0x1C2 JUMPI PUSH0 CALLDATALOAD PUSH1 0xE0 SHR DUP1 PUSH4 0x75B238FC GT PUSH2 0xF7 JUMPI DUP1 PUSH4 0xB88D4FDE GT PUSH2 0x95 JUMPI DUP1 PUSH4 0xE7705DB6 GT PUSH2 0x6F JUMPI DUP1 PUSH4 0xE7705DB6 EQ PUSH2 0x54E JUMPI DUP1 PUSH4 0xE985E9C5 EQ PUSH2 0x56C JUMPI DUP1 PUSH4 0xF10A6DFC EQ PUSH2 0x59C JUMPI DUP1 PUSH4 0xF320BEAC EQ PUSH2 0x5BA JUMPI PUSH2 0x1C2 JUMP JUMPDEST DUP1 PUSH4 0xB88D4FDE EQ PUSH2 0x4E6 JUMPI DUP1 PUSH4 0xC87B56DD EQ PUSH2 0x502 JUMPI DUP1 PUSH4 0xD547741F EQ PUSH2 0x532 JUMPI PUSH2 0x1C2 JUMP JUMPDEST DUP1 PUSH4 0x9EC2C153 GT PUSH2 0xD1 JUMPI DUP1 PUSH4 0x9EC2C153 EQ PUSH2 0x44C JUMPI DUP1 PUSH4 0xA217FDDF EQ PUSH2 0x47C JUMPI DUP1 PUSH4 0xA22CB465 EQ PUSH2 0x49A JUMPI DUP1 PUSH4 0xA378484C EQ PUSH2 0x4B6 JUMPI PUSH2 0x1C2 JUMP JUMPDEST DUP1 PUSH4 0x75B238FC EQ PUSH2 0x3E0 JUMPI DUP1 PUSH4 0x91D14854 EQ PUSH2 0x3FE JUMPI DUP1 PUSH4 0x95D89B41 EQ PUSH2 0x42E JUMPI PUSH2 0x1C2 JUMP JUMPDEST DUP1 PUSH4 0x2F2FF15D GT PUSH2 0x164 JUMPI DUP1 PUSH4 0x4E865F98 GT PUSH2 0x13E JUMPI DUP1 PUSH4 0x4E865F98 EQ PUSH2 0x334 JUMPI DUP1 PUSH4 0x54403EFC EQ PUSH2 0x364 JUMPI DUP1 PUSH4 0x6352211E EQ PUSH2 0x380 JUMPI DUP1 PUSH4 0x70A08231 EQ PUSH2 0x3B0 JUMPI PUSH2 0x1C2 JUMP JUMPDEST DUP1 PUSH4 0x2F2FF15D EQ PUSH2 0x2E0 JUMPI DUP1 PUSH4 0x36568ABE EQ PUSH2 0x2FC JUMPI DUP1 PUSH4 0x42842E0E EQ PUSH2 0x318 JUMPI PUSH2 0x1C2 JUMP JUMPDEST DUP1 PUSH4 0x95EA7B3 GT PUSH2 0x1A0 JUMPI DUP1 PUSH4 0x95EA7B3 EQ PUSH2 0x244 JUMPI DUP1 PUSH4 0x107046BD EQ PUSH2 0x260 JUMPI DUP1 PUSH4 0x23B872DD EQ PUSH2 0x294 JUMPI DUP1 PUSH4 0x248A9CA3 EQ PUSH2 0x2B0 JUMPI PUSH2 0x1C2 JUMP JUMPDEST DUP1 PUSH4 0x1FFC9A7 EQ PUSH2 0x1C6 JUMPI DUP1 PUSH4 0x6FDDE03 EQ PUSH2 0x1F6 JUMPI DUP1 PUSH4 0x81812FC EQ PUSH2 0x214 JUMPI JUMPDEST PUSH0 PUSH0 REVERT JUMPDEST PUSH2 0x1E0 PUSH1 0x4 DUP1 CALLDATASIZE SUB DUP2 ADD SWAP1 PUSH2 0x1DB SWAP2 SWAP1 PUSH2 0x263D JUMP JUMPDEST PUSH2 0x5D6 JUMP JUMPDEST PUSH1 0x40 MLOAD PUSH2 0x1ED SWAP2 SWAP1 PUSH2 0x2682 JUMP JUMPDEST PUSH1 0x40 MLOAD DUP1 SWAP2 SUB SWAP1 RETURN JUMPDEST PUSH2 0x1FE PUSH2 0x5E7 JUMP JUMPDEST PUSH1 0x40 MLOAD PUSH2 0x20B SWAP2 SWAP1 PUSH2 0x270B JUMP JUMPDEST PUSH1 0x40 MLOAD DUP1 SWAP2 SUB SWAP1 RETURN JUMPDEST PUSH2 0x22E PUSH1 0x4 DUP1 CALLDATASIZE SUB DUP2 ADD SWAP1 PUSH2 0x229 SWAP2 SWAP1 PUSH2 0x275E JUMP JUMPDEST PUSH2 0x676 JUMP JUMPDEST PUSH1 0x40 MLOAD PUSH2 0x23B SWAP2 SWAP1 PUSH2 0x27C8 JUMP JUMPDEST PUSH1 0x40 MLOAD DUP1 SWAP2 SUB SWAP1 RETURN JUMPDEST PUSH2 0x25E PUSH1 0x4 DUP1 CALLDATASIZE SUB DUP2 ADD SWAP1 PUSH2 0x259 SWAP2 SWAP1 PUSH2 0x280B JUMP JUMPDEST PUSH2 0x6B8 JUMP JUMPDEST STOP JUMPDEST PUSH2 0x27A PUSH1 0x4 DUP1 CALLDATASIZE SUB DUP2 ADD SWAP1 PUSH2 0x275 SWAP2 SWAP1 PUSH2 0x275E JUMP JUMPDEST PUSH2 0x7CE JUMP JUMPDEST PUSH1 0x40 MLOAD PUSH2 0x28B SWAP6 SWAP5 SWAP4 SWAP3 SWAP2 SWAP1 PUSH2 0x2858 JUMP JUMPDEST PUSH1 0x40 MLOAD DUP1 SWAP2 SUB SWAP1 RETURN JUMPDEST PUSH2 0x2AE PUSH1 0x4 DUP1 CALLDATASIZE SUB DUP2 ADD SWAP1 PUSH2 0x2A9 SWAP2 SWAP1 PUSH2 0x28B7 JUMP JUMPDEST PUSH2 0x918 JUMP JUMPDEST STOP JUMPDEST PUSH2 0x2CA PUSH1 0x4 DUP1 CALLDATASIZE SUB DUP2 ADD SWAP1 PUSH2 0x2C5 SWAP2 SWAP1 PUSH2 0x293A JUMP JUMPDEST PUSH2 0x978 JUMP JUMPDEST PUSH1 0x40 MLOAD PUSH2 0x2D7 SWAP2 SWAP1 PUSH2 0x2974 JUMP JUMPDEST PUSH1 0x40 MLOAD DUP1 SWAP2 SUB SWAP1 RETURN JUMPDEST PUSH2 0x2FA PUSH1 0x4 DUP1 CALLDATASIZE SUB DUP2 ADD SWAP1 PUSH2 0x2F5 SWAP2 SWAP1 PUSH2 0x298D JUMP JUMPDEST PUSH2 0x995 JUMP JUMPDEST STOP JUMPDEST PUSH2 0x316 PUSH1 0x4 DUP1 CALLDATASIZE SUB DUP2 ADD SWAP1 PUSH2 0x311 SWAP2 SWAP1 PUSH2 0x298D JUMP JUMPDEST PUSH2 0x9B6 JUMP JUMPDEST STOP JUMPDEST PUSH2 0x332 PUSH1 0x4 DUP1 CALLDATASIZE SUB DUP2 ADD SWAP1 PUSH2 0x32D SWAP2 SWAP1 PUSH2 0x28B7 JUMP JUMPDEST PUSH2 0xA39 JUMP JUMPDEST STOP JUMPDEST PUSH2 0x34E PUSH1 0x4 DUP1 CALLDATASIZE SUB DUP2 ADD SWAP1 PUSH2 0x349 SWAP2 SWAP1 PUSH2 0x275E JUMP JUMPDEST PUSH2 0xA58 JUMP JUMPDEST PUSH1 0x40 MLOAD PUSH2 0x35B SWAP2 SWAP1 PUSH2 0x29CB JUMP JUMPDEST PUSH1 0x40 MLOAD DUP1 SWAP2 SUB SWAP1 RETURN JUMPDEST PUSH2 0x37E PUSH1 0x4 DUP1 CALLDATASIZE SUB DUP2 ADD SWAP1 PUSH2 0x379 SWAP2 SWAP1 PUSH2 0x29E4 JUMP JUMPDEST PUSH2 0xA6D JUMP JUMPDEST STOP JUMPDEST PUSH2 0x39A PUSH1 0x4 DUP1 CALLDATASIZE SUB DUP2 ADD SWAP1 PUSH2 0x395 SWAP2 SWAP1 PUSH2 0x275E JUMP JUMPDEST PUSH2 0xB5B JUMP JUMPDEST PUSH1 0x40 MLOAD PUSH2 0x3A7 SWAP2 SWAP1 PUSH2 0x27C8 JUMP JUMPDEST PUSH1 0x40 MLOAD DUP1 SWAP2 SUB SWAP1 RETURN JUMPDEST PUSH2 0x3CA PUSH1 0x4 DUP1 CALLDATASIZE SUB DUP2 ADD SWAP1 PUSH2 0x3C5 SWAP2 SWAP1 PUSH2 0x2A34 JUMP JUMPDEST PUSH2 0xBDF JUMP JUMPDEST PUSH1 0x40 MLOAD PUSH2 0x3D7 SWAP2 SWAP1 PUSH2 0x29CB JUMP JUMPDEST PUSH1 0x40 MLOAD DUP1 SWAP2 SUB SWAP1 RETURN JUMPDEST PUSH2 0x3E8 PUSH2 0xC93 JUMP JUMPDEST PUSH1 0x40 MLOAD PUSH2 0x3F5 SWAP2 SWAP1 PUSH2 0x2974 JUMP JUMPDEST PUSH1 0x40 MLOAD DUP1 SWAP2 SUB SWAP1 RETURN JUMPDEST PUSH2 0x418 PUSH1 0x4 DUP1 CALLDATASIZE SUB DUP2 ADD SWAP1 PUSH2 0x413 SWAP2 SWAP1 PUSH2 0x298D JUMP JUMPDEST PUSH2 0xC99 JUMP JUMPDEST PUSH1 0x40 MLOAD PUSH2 0x425 SWAP2 SWAP1 PUSH2 0x2682 JUMP JUMPDEST PUSH1 0x40 MLOAD DUP1 SWAP2 SUB SWAP1 RETURN JUMPDEST PUSH2 0x436 PUSH2 0xCFD JUMP JUMPDEST PUSH1 0x40 MLOAD PUSH2 0x443 SWAP2 SWAP1 PUSH2 0x270B JUMP JUMPDEST PUSH1 0x40 MLOAD DUP1 SWAP2 SUB SWAP1 RETURN JUMPDEST PUSH2 0x466 PUSH1 0x4 DUP1 CALLDATASIZE SUB DUP2 ADD SWAP1 PUSH2 0x461 SWAP2 SWAP1 PUSH2 0x275E JUMP JUMPDEST PUSH2 0xD8D JUMP JUMPDEST PUSH1 0x40 MLOAD PUSH2 0x473 SWAP2 SWAP1 PUSH2 0x29CB JUMP JUMPDEST PUSH1 0x40 MLOAD DUP1 SWAP2 SUB SWAP1 RETURN JUMPDEST PUSH2 0x484 PUSH2 0xDA2 JUMP JUMPDEST PUSH1 0x40 MLOAD PUSH2 0x491 SWAP2 SWAP1 PUSH2 0x2974 JUMP JUMPDEST PUSH1 0x40 MLOAD DUP1 SWAP2 SUB SWAP1 RETURN JUMPDEST PUSH2 0x4B4 PUSH1 0x4 DUP1 CALLDATASIZE SUB DUP2 ADD SWAP1 PUSH2 0x4AF SWAP2 SWAP1 PUSH2 0x2A89 JUMP JUMPDEST PUSH2 0xDA8 JUMP JUMPDEST STOP JUMPDEST PUSH2 0x4D0 PUSH1 0x4 DUP1 CALLDATASIZE SUB DUP2 ADD SWAP1 PUSH2 0x4CB SWAP2 SWAP1 PUSH2 0x2B28 JUMP JUMPDEST PUSH2 0xDBE JUMP JUMPDEST PUSH1 0x40 MLOAD PUSH2 0x4DD SWAP2 SWAP1 PUSH2 0x29CB JUMP JUMPDEST PUSH1 0x40 MLOAD DUP1 SWAP2 SUB SWAP1 RETURN JUMPDEST PUSH2 0x500 PUSH1 0x4 DUP1 CALLDATASIZE SUB DUP2 ADD SWAP1 PUSH2 0x4FB SWAP2 SWAP1 PUSH2 0x2CF3 JUMP JUMPDEST PUSH2 0xF7D JUMP JUMPDEST STOP JUMPDEST PUSH2 0x51C PUSH1 0x4 DUP1 CALLDATASIZE SUB DUP2 ADD SWAP1 PUSH2 0x517 SWAP2 SWAP1 PUSH2 0x275E JUMP JUMPDEST PUSH2 0xFDF JUMP JUMPDEST PUSH1 0x40 MLOAD PUSH2 0x529 SWAP2 SWAP1 PUSH2 0x270B JUMP JUMPDEST PUSH1 0x40 MLOAD DUP1 SWAP2 SUB SWAP1 RETURN JUMPDEST PUSH2 0x54C PUSH1 0x4 DUP1 CALLDATASIZE SUB DUP2 ADD SWAP1 PUSH2 0x547 SWAP2 SWAP1 PUSH2 0x298D JUMP JUMPDEST PUSH2 0x1044 JUMP JUMPDEST STOP JUMPDEST PUSH2 0x556 PUSH2 0x1065 JUMP JUMPDEST PUSH1 0x40 MLOAD PUSH2 0x563 SWAP2 SWAP1 PUSH2 0x2974 JUMP JUMPDEST PUSH1 0x40 MLOAD DUP1 SWAP2 SUB SWAP1 RETURN JUMPDEST PUSH2 0x586 PUSH1 0x4 DUP1 CALLDATASIZE SUB DUP2 ADD SWAP1 PUSH2 0x581 SWAP2 SWAP1 PUSH2 0x2D73 JUMP JUMPDEST PUSH2 0x1089 JUMP JUMPDEST PUSH1 0x40 MLOAD PUSH2 0x593 SWAP2 SWAP1 PUSH2 0x2682 JUMP JUMPDEST PUSH1 0x40 MLOAD DUP1 SWAP2 SUB SWAP1 RETURN JUMPDEST PUSH2 0x5A4 PUSH2 0x1117 JUMP JUMPDEST PUSH1 0x40 MLOAD PUSH2 0x5B1 SWAP2 SWAP1 PUSH2 0x2974 JUMP JUMPDEST PUSH1 0x40 MLOAD DUP1 SWAP2 SUB SWAP1 RETURN JUMPDEST PUSH2 0x5D4 PUSH1 0x4 DUP1 CALLDATASIZE SUB DUP2 ADD SWAP1 PUSH2 0x5CF SWAP2 SWAP1 PUSH2 0x2DB1 JUMP JUMPDEST PUSH2 0x113B JUMP JUMPDEST STOP JUMPDEST PUSH0 PUSH2 0x5E0 DUP3 PUSH2 0x1215 JUMP JUMPDEST SWAP1 POP SWAP2 SWAP1 POP JUMP JUMPDEST PUSH1 0x60 PUSH0 DUP1 SLOAD PUSH2 0x5F5 SWAP1 PUSH2 0x2E1C JUMP JUMPDEST DUP1 PUSH1 0x1F ADD PUSH1 0x20 DUP1 SWAP2 DIV MUL PUSH1 0x20 ADD PUSH1 0x40 MLOAD SWAP1 DUP2 ADD PUSH1 0x40 MSTORE DUP1 SWAP3 SWAP2 SWAP1 DUP2 DUP2 MSTORE PUSH1 0x20 ADD DUP3 DUP1 SLOAD PUSH2 0x621 SWAP1 PUSH2 0x2E1C JUMP JUMPDEST DUP1 ISZERO PUSH2 0x66C JUMPI DUP1 PUSH1 0x1F LT PUSH2 0x643 JUMPI PUSH2 0x100 DUP1 DUP4 SLOAD DIV MUL DUP4 MSTORE SWAP2 PUSH1 0x20 ADD SWAP2 PUSH2 0x66C JUMP JUMPDEST DUP3 ADD SWAP2 SWAP1 PUSH0 MSTORE PUSH1 0x20 PUSH0 KECCAK256 SWAP1 JUMPDEST DUP2 SLOAD DUP2 MSTORE SWAP1 PUSH1 0x1 ADD SWAP1 PUSH1 0x20 ADD DUP1 DUP4 GT PUSH2 0x64F JUMPI DUP3 SWAP1 SUB PUSH1 0x1F AND DUP3 ADD SWAP2 JUMPDEST POP POP POP POP POP SWAP1 POP SWAP1 JUMP JUMPDEST PUSH0 PUSH2 0x680 DUP3 PUSH2 0x128E JUMP JUMPDEST PUSH1 0x4 PUSH0 DUP4 DUP2 MSTORE PUSH1 0x20 ADD SWAP1 DUP2 MSTORE PUSH1 0x20 ADD PUSH0 KECCAK256 PUSH0 SWAP1 SLOAD SWAP1 PUSH2 0x100 EXP SWAP1 DIV PUSH20 0xFFFFFFFFFFFFFFFFFFFFFFFFFFFFFFFFFFFFFFFF AND SWAP1 POP SWAP2 SWAP1 POP JUMP JUMPDEST PUSH0 PUSH2 0x6C2 DUP3 PUSH2 0xB5B JUMP JUMPDEST SWAP1 POP DUP1 PUSH20 0xFFFFFFFFFFFFFFFFFFFFFFFFFFFFFFFFFFFFFFFF AND DUP4 PUSH20 0xFFFFFFFFFFFFFFFFFFFFFFFFFFFFFFFFFFFFFFFF AND SUB PUSH2 0x732 JUMPI PUSH1 0x40 MLOAD PUSH32 0x8C379A000000000000000000000000000000000000000000000000000000000 DUP2 MSTORE PUSH1 0x4 ADD PUSH2 0x729 SWAP1 PUSH2 0x2EBC JUMP JUMPDEST PUSH1 0x40 MLOAD DUP1 SWAP2 SUB SWAP1 REVERT JUMPDEST DUP1 PUSH20 0xFFFFFFFFFFFFFFFFFFFFFFFFFFFFFFFFFFFFFFFF AND PUSH2 0x751 PUSH2 0x12D9 JUMP JUMPDEST PUSH20 0xFFFFFFFFFFFFFFFFFFFFFFFFFFFFFFFFFFFFFFFF AND EQ DUP1 PUSH2 0x780 JUMPI POP PUSH2 0x77F DUP2 PUSH2 0x77A PUSH2 0x12D9 JUMP JUMPDEST PUSH2 0x1089 JUMP JUMPDEST JUMPDEST PUSH2 0x7BF JUMPI PUSH1 0x40 MLOAD PUSH32 0x8C379A000000000000000000000000000000000000000000000000000000000 DUP2 MSTORE PUSH1 0x4 ADD PUSH2 0x7B6 SWAP1 PUSH2 0x2F4A JUMP JUMPDEST PUSH1 0x40 MLOAD DUP1 SWAP2 SUB SWAP1 REVERT JUMPDEST PUSH2 0x7C9 DUP4 DUP4 PUSH2 0x12E0 JUMP JUMPDEST POP POP POP JUMP JUMPDEST PUSH1 0x8 PUSH1 0x20 MSTORE DUP1 PUSH0 MSTORE PUSH1 0x40 PUSH0 KECCAK256 PUSH0 SWAP2 POP SWAP1 POP DUP1 PUSH0 ADD DUP1 SLOAD PUSH2 0x7ED SWAP1 PUSH2 0x2E1C JUMP JUMPDEST DUP1 PUSH1 0x1F ADD PUSH1 0x20 DUP1 SWAP2 DIV MUL PUSH1 0x20 ADD PUSH1 0x40 MLOAD SWAP1 DUP2 ADD PUSH1 0x40 MSTORE DUP1 SWAP3 SWAP2 SWAP1 DUP2 DUP2 MSTORE PUSH1 0x20 ADD DUP3 DUP1 SLOAD PUSH2 0x819 SWAP1 PUSH2 0x2E1C JUMP JUMPDEST DUP1 ISZERO PUSH2 0x864 JUMPI DUP1 PUSH1 0x1F LT PUSH2 0x83B JUMPI PUSH2 0x100 DUP1 DUP4 SLOAD DIV MUL DUP4 MSTORE SWAP2 PUSH1 0x20 ADD SWAP2 PUSH2 0x864 JUMP JUMPDEST DUP3 ADD SWAP2 SWAP1 PUSH0 MSTORE PUSH1 0x20 PUSH0 KECCAK256 SWAP1 JUMPDEST DUP2 SLOAD DUP2 MSTORE SWAP1 PUSH1 0x1 ADD SWAP1 PUSH1 0x20 ADD DUP1 DUP4 GT PUSH2 0x847 JUMPI DUP3 SWAP1 SUB PUSH1 0x1F AND DUP3 ADD SWAP2 JUMPDEST POP POP POP POP POP SWAP1 DUP1 PUSH1 0x1 ADD SLOAD SWAP1 DUP1 PUSH1 0x2 ADD DUP1 SLOAD PUSH2 0x87F SWAP1 PUSH2 0x2E1C JUMP JUMPDEST DUP1 PUSH1 0x1F ADD PUSH1 0x20 DUP1 SWAP2 DIV MUL PUSH1 0x20 ADD PUSH1 0x40 MLOAD SWAP1 DUP2 ADD PUSH1 0x40 MSTORE DUP1 SWAP3 SWAP2 SWAP1 DUP2 DUP2 MSTORE PUSH1 0x20 ADD DUP3 DUP1 SLOAD PUSH2 0x8AB SWAP1 PUSH2 0x2E1C JUMP JUMPDEST DUP1 ISZERO PUSH2 0x8F6 JUMPI DUP1 PUSH1 0x1F LT PUSH2 0x8CD JUMPI PUSH2 0x100 DUP1 DUP4 SLOAD DIV MUL DUP4 MSTORE SWAP2 PUSH1 0x20 ADD SWAP2 PUSH2 0x8F6 JUMP JUMPDEST DUP3 ADD SWAP2 SWAP1 PUSH0 MSTORE PUSH1 0x20 PUSH0 KECCAK256 SWAP1 JUMPDEST DUP2 SLOAD DUP2 MSTORE SWAP1 PUSH1 0x1 ADD SWAP1 PUSH1 0x20 ADD DUP1 DUP4 GT PUSH2 0x8D9 JUMPI DUP3 SWAP1 SUB PUSH1 0x1F AND DUP3 ADD SWAP2 JUMPDEST POP POP POP POP POP SWAP1 DUP1 PUSH1 0x3 ADD SLOAD SWAP1 DUP1 PUSH1 0x4 ADD PUSH0 SWAP1 SLOAD SWAP1 PUSH2 0x100 EXP SWAP1 DIV PUSH1 0xFF AND SWAP1 POP DUP6 JUMP JUMPDEST PUSH2 0x929 PUSH2 0x923 PUSH2 0x12D9 JUMP JUMPDEST DUP3 PUSH2 0x1396 JUMP JUMPDEST PUSH2 0x968 JUMPI PUSH1 0x40 MLOAD PUSH32 0x8C379A000000000000000000000000000000000000000000000000000000000 DUP2 MSTORE PUSH1 0x4 ADD PUSH2 0x95F SWAP1 PUSH2 0x2FD8 JUMP JUMPDEST PUSH1 0x40 MLOAD DUP1 SWAP2 SUB SWAP1 REVERT JUMPDEST PUSH2 0x973 DUP4 DUP4 DUP4 PUSH2 0x142A JUMP JUMPDEST POP POP POP JUMP JUMPDEST PUSH0 PUSH1 0x6 PUSH0 DUP4 DUP2 MSTORE PUSH1 0x20 ADD SWAP1 DUP2 MSTORE PUSH1 0x20 ADD PUSH0 KECCAK256 PUSH1 0x1 ADD SLOAD SWAP1 POP SWAP2 SWAP1 POP JUMP JUMPDEST PUSH2 0x99E DUP3 PUSH2 0x978 JUMP JUMPDEST PUSH2 0x9A7 DUP2 PUSH2 0x1716 JUMP JUMPDEST PUSH2 0x9B1 DUP4 DUP4 PUSH2 0x172A JUMP JUMPDEST POP POP POP JUMP JUMPDEST PUSH2 0x9BE PUSH2 0x12D9 JUMP JUMPDEST PUSH20 0xFFFFFFFFFFFFFFFFFFFFFFFFFFFFFFFFFFFFFFFF AND DUP2 PUSH20 0xFFFFFFFFFFFFFFFFFFFFFFFFFFFFFFFFFFFFFFFF AND EQ PUSH2 0xA2B JUMPI PUSH1 0x40 MLOAD PUSH32 0x8C379A000000000000000000000000000000000000000000000000000000000 DUP2 MSTORE PUSH1 0x4 ADD PUSH2 0xA22 SWAP1 PUSH2 0x3066 JUMP JUMPDEST PUSH1 0x40 MLOAD DUP1 SWAP2 SUB SWAP1 REVERT JUMPDEST PUSH2 0xA35 DUP3 DUP3 PUSH2 0x1805 JUMP JUMPDEST POP POP JUMP JUMPDEST PUSH2 0xA53 DUP4 DUP4 DUP4 PUSH1 0x40 MLOAD DUP1 PUSH1 0x20 ADD PUSH1 0x40 MSTORE DUP1 PUSH0 DUP2 MSTORE POP PUSH2 0xF7D JUMP JUMPDEST POP POP POP JUMP JUMPDEST PUSH1 0x9 PUSH1 0x20 MSTORE DUP1 PUSH0 MSTORE PUSH1 0x40 PUSH0 KECCAK256 PUSH0 SWAP2 POP SWAP1 POP SLOAD DUP2 JUMP JUMPDEST PUSH32 0xCE23C3E399818CFEE81A7AB0880F714E53D7672B08DF0FA62F2843416E1EA09 PUSH2 0xA97 DUP2 PUSH2 0x1716 JUMP JUMPDEST PUSH2 0xAA0 DUP5 PUSH2 0x18E0 JUMP JUMPDEST PUSH2 0xADF JUMPI PUSH1 0x40 MLOAD PUSH32 0x8C379A000000000000000000000000000000000000000000000000000000000 DUP2 MSTORE PUSH1 0x4 ADD PUSH2 0xAD6 SWAP1 PUSH2 0x30CE JUMP JUMPDEST PUSH1 0x40 MLOAD DUP1 SWAP2 SUB SWAP1 REVERT JUMPDEST DUP3 PUSH1 0x9 PUSH0 DUP7 DUP2 MSTORE PUSH1 0x20 ADD SWAP1 DUP2 MSTORE PUSH1 0x20 ADD PUSH0 KECCAK256 DUP2 SWAP1 SSTORE POP DUP2 PUSH1 0xA PUSH0 DUP7 DUP2 MSTORE PUSH1 0x20 ADD SWAP1 DUP2 MSTORE PUSH1 0x20 ADD PUSH0 KECCAK256 PUSH0 DUP3 DUP3 SLOAD PUSH2 0xB15 SWAP2 SWAP1 PUSH2 0x3119 JUMP JUMPDEST SWAP3 POP POP DUP2 SWAP1 SSTORE POP DUP3 DUP5 PUSH32 0x1A43E2D936094A29CED9F8FB2C1DF0C7C08DDBE1D75AEBFF8B87DCD97C055F6C DUP5 PUSH1 0x40 MLOAD PUSH2 0xB4D SWAP2 SWAP1 PUSH2 0x29CB JUMP JUMPDEST PUSH1 0x40 MLOAD DUP1 SWAP2 SUB SWAP1 LOG3 POP POP POP POP JUMP JUMPDEST PUSH0 PUSH0 PUSH2 0xB66 DUP4 PUSH2 0x1920 JUMP JUMPDEST SWAP1 POP PUSH0 PUSH20 0xFFFFFFFFFFFFFFFFFFFFFFFFFFFFFFFFFFFFFFFF AND DUP2 PUSH20 0xFFFFFFFFFFFFFFFFFFFFFFFFFFFFFFFFFFFFFFFF AND SUB PUSH2 0xBD6 JUMPI PUSH1 0x40 MLOAD PUSH32 0x8C379A000000000000000000000000000000000000000000000000000000000 DUP2 MSTORE PUSH1 0x4 ADD PUSH2 0xBCD SWAP1 PUSH2 0x3196 JUMP JUMPDEST PUSH1 0x40 MLOAD DUP1 SWAP2 SUB SWAP1 REVERT JUMPDEST DUP1 SWAP2 POP POP SWAP2 SWAP1 POP JUMP JUMPDEST PUSH0 PUSH0 PUSH20 0xFFFFFFFFFFFFFFFFFFFFFFFFFFFFFFFFFFFFFFFF AND DUP3 PUSH20 0xFFFFFFFFFFFFFFFFFFFFFFFFFFFFFFFFFFFFFFFF AND SUB PUSH2 0xC4E JUMPI PUSH1 0x40 MLOAD PUSH32 0x8C379A000000000000000000000000000000000000000000000000000000000 DUP2 MSTORE PUSH1 0x4 ADD PUSH2 0xC45 SWAP1 PUSH2 0x3224 JUMP JUMPDEST PUSH1 0x40 MLOAD DUP1 SWAP2 SUB SWAP1 REVERT JUMPDEST PUSH1 0x3 PUSH0 DUP4 PUSH20 0xFFFFFFFFFFFFFFFFFFFFFFFFFFFFFFFFFFFFFFFF AND PUSH20 0xFFFFFFFFFFFFFFFFFFFFFFFFFFFFFFFFFFFFFFFF AND DUP2 MSTORE PUSH1 0x20 ADD SWAP1 DUP2 MSTORE PUSH1 0x20 ADD PUSH0 KECCAK256 SLOAD SWAP1 POP SWAP2 SWAP1 POP JUMP JUMPDEST PUSH0 PUSH0 SHL DUP2 JUMP JUMPDEST PUSH0 PUSH1 0x6 PUSH0 DUP5 DUP2 MSTORE PUSH1 0x20 ADD SWAP1 DUP2 MSTORE PUSH1 0x20 ADD PUSH0 KECCAK256 PUSH0 ADD PUSH0 DUP4 PUSH20 0xFFFFFFFFFFFFFFFFFFFFFFFFFFFFFFFFFFFFFFFF AND PUSH20 0xFFFFFFFFFFFFFFFFFFFFFFFFFFFFFFFFFFFFFFFF AND DUP2 MSTORE PUSH1 0x20 ADD SWAP1 DUP2 MSTORE PUSH1 0x20 ADD PUSH0 KECCAK256 PUSH0 SWAP1 SLOAD SWAP1 PUSH2 0x100 EXP SWAP1 DIV PUSH1 0xFF AND SWAP1 POP SWAP3 SWAP2 POP POP JUMP JUMPDEST PUSH1 0x60 PUSH1 0x1 DUP1 SLOAD PUSH2 0xD0C SWAP1 PUSH2 0x2E1C JUMP JUMPDEST DUP1 PUSH1 0x1F ADD PUSH1 0x20 DUP1 SWAP2 DIV MUL PUSH1 0x20 ADD PUSH1 0x40 MLOAD SWAP1 DUP2 ADD PUSH1 0x40 MSTORE DUP1 SWAP3 SWAP2 SWAP1 DUP2 DUP2 MSTORE PUSH1 0x20 ADD DUP3 DUP1 SLOAD PUSH2 0xD38 SWAP1 PUSH2 0x2E1C JUMP JUMPDEST DUP1 ISZERO PUSH2 0xD83 JUMPI DUP1 PUSH1 0x1F LT PUSH2 0xD5A JUMPI PUSH2 0x100 DUP1 DUP4 SLOAD DIV MUL DUP4 MSTORE SWAP2 PUSH1 0x20 ADD SWAP2 PUSH2 0xD83 JUMP JUMPDEST DUP3 ADD SWAP2 SWAP1 PUSH0 MSTORE PUSH1 0x20 PUSH0 KECCAK256 SWAP1 JUMPDEST DUP2 SLOAD DUP2 MSTORE SWAP1 PUSH1 0x1 ADD SWAP1 PUSH1 0x20 ADD DUP1 DUP4 GT PUSH2 0xD66 JUMPI DUP3 SWAP1 SUB PUSH1 0x1F AND DUP3 ADD SWAP2 JUMPDEST POP POP POP POP POP SWAP1 POP SWAP1 JUMP JUMPDEST PUSH1 0xA PUSH1 0x20 MSTORE DUP1 PUSH0 MSTORE PUSH1 0x40 PUSH0 KECCAK256 PUSH0 SWAP2 POP SWAP1 POP SLOAD DUP2 JUMP JUMPDEST PUSH0 PUSH0 SHL DUP2 JUMP JUMPDEST PUSH2 0xDBA PUSH2 0xDB3 PUSH2 0x12D9 JUMP JUMPDEST DUP4 DUP4 PUSH2 0x1959 JUMP JUMPDEST POP POP JUMP JUMPDEST PUSH0 PUSH32 0x7409DD26EF14054436243BE79996FA1AB352EB1E8F34BCF72012E7DE1D1176F0 PUSH2 0xDE9 DUP2 PUSH2 0x1716 JUMP JUMPDEST PUSH2 0xDF3 PUSH1 0x7 PUSH2 0x1AC0 JUMP JUMPDEST PUSH0 PUSH2 0xDFE PUSH1 0x7 PUSH2 0x1AD4 JUMP JUMPDEST SWAP1 POP PUSH1 0x40 MLOAD DUP1 PUSH1 0xA0 ADD PUSH1 0x40 MSTORE DUP1 DUP10 DUP10 DUP1 DUP1 PUSH1 0x1F ADD PUSH1 0x20 DUP1 SWAP2 DIV MUL PUSH1 0x20 ADD PUSH1 0x40 MLOAD SWAP1 DUP2 ADD PUSH1 0x40 MSTORE DUP1 SWAP4 SWAP3 SWAP2 SWAP1 DUP2 DUP2 MSTORE PUSH1 0x20 ADD DUP4 DUP4 DUP1 DUP3 DUP5 CALLDATACOPY PUSH0 DUP2 DUP5 ADD MSTORE PUSH1 0x1F NOT PUSH1 0x1F DUP3 ADD AND SWAP1 POP DUP1 DUP4 ADD SWAP3 POP POP POP POP POP POP POP DUP2 MSTORE PUSH1 0x20 ADD DUP8 DUP2 MSTORE PUSH1 0x20 ADD DUP7 DUP7 DUP1 DUP1 PUSH1 0x1F ADD PUSH1 0x20 DUP1 SWAP2 DIV MUL PUSH1 0x20 ADD PUSH1 0x40 MLOAD SWAP1 DUP2 ADD PUSH1 0x40 MSTORE DUP1 SWAP4 SWAP3 SWAP2 SWAP1 DUP2 DUP2 MSTORE PUSH1 0x20 ADD DUP4 DUP4 DUP1 DUP3 DUP5 CALLDATACOPY PUSH0 DUP2 DUP5 ADD MSTORE PUSH1 0x1F NOT PUSH1 0x1F DUP3 ADD AND SWAP1 POP DUP1 DUP4 ADD SWAP3 POP POP POP POP POP POP POP DUP2 MSTORE PUSH1 0x20 ADD TIMESTAMP DUP2 MSTORE PUSH1 0x20 ADD PUSH0 ISZERO ISZERO DUP2 MSTORE POP PUSH1 0x8 PUSH0 DUP4 DUP2 MSTORE PUSH1 0x20 ADD SWAP1 DUP2 MSTORE PUSH1 0x20 ADD PUSH0 KECCAK256 PUSH0 DUP3 ADD MLOAD DUP2 PUSH0 ADD SWAP1 DUP2 PUSH2 0xED3 SWAP2 SWAP1 PUSH2 0x33E2 JUMP JUMPDEST POP PUSH1 0x20 DUP3 ADD MLOAD DUP2 PUSH1 0x1 ADD SSTORE PUSH1 0x40 DUP3 ADD MLOAD DUP2 PUSH1 0x2 ADD SWAP1 DUP2 PUSH2 0xEF3 SWAP2 SWAP1 PUSH2 0x33E2 JUMP JUMPDEST POP PUSH1 0x60 DUP3 ADD MLOAD DUP2 PUSH1 0x3 ADD SSTORE PUSH1 0x80 DUP3 ADD MLOAD DUP2 PUSH1 0x4 ADD PUSH0 PUSH2 0x100 EXP DUP2 SLOAD DUP2 PUSH1 0xFF MUL NOT AND SWAP1 DUP4 ISZERO ISZERO MUL OR SWAP1 SSTORE POP SWAP1 POP POP PUSH2 0xF2A DUP10 DUP3 PUSH2 0x1AE0 JUMP JUMPDEST DUP9 PUSH20 0xFFFFFFFFFFFFFFFFFFFFFFFFFFFFFFFFFFFFFFFF AND DUP2 PUSH32 0x8CC21E69F47223AA07E145829F349AF742DDADBC1AC6B242607A0694CD47A66A PUSH1 0x40 MLOAD PUSH1 0x40 MLOAD DUP1 SWAP2 SUB SWAP1 LOG3 DUP1 SWAP3 POP POP POP SWAP7 SWAP6 POP POP POP POP POP POP JUMP JUMPDEST PUSH2 0xF8E PUSH2 0xF88 PUSH2 0x12D9 JUMP JUMPDEST DUP4 PUSH2 0x1396 JUMP JUMPDEST PUSH2 0xFCD JUMPI PUSH1 0x40 MLOAD PUSH32 0x8C379A000000000000000000000000000000000000000000000000000000000 DUP2 MSTORE PUSH1 0x4 ADD PUSH2 0xFC4 SWAP1 PUSH2 0x2FD8 JUMP JUMPDEST PUSH1 0x40 MLOAD DUP1 SWAP2 SUB SWAP1 REVERT JUMPDEST PUSH2 0xFD9 DUP5 DUP5 DUP5 DUP5 PUSH2 0x1AFD JUMP JUMPDEST POP POP POP POP JUMP JUMPDEST PUSH1 0x60 PUSH2 0xFEA DUP3 PUSH2 0x128E JUMP JUMPDEST PUSH0 PUSH2 0xFF3 PUSH2 0x1B59 JUMP JUMPDEST SWAP1 POP PUSH0 DUP2 MLOAD GT PUSH2 0x1011 JUMPI PUSH1 0x40 MLOAD DUP1 PUSH1 0x20 ADD PUSH1 0x40 MSTORE DUP1 PUSH0 DUP2 MSTORE POP PUSH2 0x103C JUMP JUMPDEST DUP1 PUSH2 0x101B DUP5 PUSH2 0x1B6F JUMP JUMPDEST PUSH1 0x40 MLOAD PUSH1 0x20 ADD PUSH2 0x102C SWAP3 SWAP2 SWAP1 PUSH2 0x34EB JUMP JUMPDEST PUSH1 0x40 MLOAD PUSH1 0x20 DUP2 DUP4 SUB SUB DUP2 MSTORE SWAP1 PUSH1 0x40 MSTORE JUMPDEST SWAP2 POP POP SWAP2 SWAP1 POP JUMP JUMPDEST PUSH2 0x104D DUP3 PUSH2 0x978 JUMP JUMPDEST PUSH2 0x1056 DUP2 PUSH2 0x1716 JUMP JUMPDEST PUSH2 0x1060 DUP4 DUP4 PUSH2 0x1805 JUMP JUMPDEST POP POP POP JUMP JUMPDEST PUSH32 0xCE23C3E399818CFEE81A7AB0880F714E53D7672B08DF0FA62F2843416E1EA09 DUP2 JUMP JUMPDEST PUSH0 PUSH1 0x5 PUSH0 DUP5 PUSH20 0xFFFFFFFFFFFFFFFFFFFFFFFFFFFFFFFFFFFFFFFF AND PUSH20 0xFFFFFFFFFFFFFFFFFFFFFFFFFFFFFFFFFFFFFFFF AND DUP2 MSTORE PUSH1 0x20 ADD SWAP1 DUP2 MSTORE PUSH1 0x20 ADD PUSH0 KECCAK256 PUSH0 DUP4 PUSH20 0xFFFFFFFFFFFFFFFFFFFFFFFFFFFFFFFFFFFFFFFF AND PUSH20 0xFFFFFFFFFFFFFFFFFFFFFFFFFFFFFFFFFFFFFFFF AND DUP2 MSTORE PUSH1 0x20 ADD SWAP1 DUP2 MSTORE PUSH1 0x20 ADD PUSH0 KECCAK256 PUSH0 SWAP1 SLOAD SWAP1 PUSH2 0x100 EXP SWAP1 DIV PUSH1 0xFF AND SWAP1 POP SWAP3 SWAP2 POP POP JUMP JUMPDEST PUSH32 0x7409DD26EF14054436243BE79996FA1AB352EB1E8F34BCF72012E7DE1D1176F0 DUP2 JUMP JUMPDEST PUSH32 0xCE23C3E399818CFEE81A7AB0880F714E53D7672B08DF0FA62F2843416E1EA09 PUSH2 0x1165 DUP2 PUSH2 0x1716 JUMP JUMPDEST PUSH2 0x116E DUP4 PUSH2 0x18E0 JUMP JUMPDEST PUSH2 0x11AD JUMPI PUSH1 0x40 MLOAD PUSH32 0x8C379A000000000000000000000000000000000000000000000000000000000 DUP2 MSTORE PUSH1 0x4 ADD PUSH2 0x11A4 SWAP1 PUSH2 0x30CE JUMP JUMPDEST PUSH1 0x40 MLOAD DUP1 SWAP2 SUB SWAP1 REVERT JUMPDEST DUP2 PUSH1 0x8 PUSH0 DUP6 DUP2 MSTORE PUSH1 0x20 ADD SWAP1 DUP2 MSTORE PUSH1 0x20 ADD PUSH0 KECCAK256 PUSH1 0x4 ADD PUSH0 PUSH2 0x100 EXP DUP2 SLOAD DUP2 PUSH1 0xFF MUL NOT AND SWAP1 DUP4 ISZERO ISZERO MUL OR SWAP1 SSTORE POP DUP3 PUSH32 0x4B50F64CF60B845001AF6EC00BF4365ECB69047B3D8896DE0FDFA37C7C8815E9 DUP4 PUSH1 0x40 MLOAD PUSH2 0x1208 SWAP2 SWAP1 PUSH2 0x2682 JUMP JUMPDEST PUSH1 0x40 MLOAD DUP1 SWAP2 SUB SWAP1 LOG2 POP POP POP JUMP JUMPDEST PUSH0 PUSH32 0x7965DB0B00000000000000000000000000000000000000000000000000000000 PUSH28 0xFFFFFFFFFFFFFFFFFFFFFFFFFFFFFFFFFFFFFFFFFFFFFFFFFFFFFFFF NOT AND DUP3 PUSH28 0xFFFFFFFFFFFFFFFFFFFFFFFFFFFFFFFFFFFFFFFFFFFFFFFFFFFFFFFF NOT AND EQ DUP1 PUSH2 0x1287 JUMPI POP PUSH2 0x1286 DUP3 PUSH2 0x1C39 JUMP JUMPDEST JUMPDEST SWAP1 POP SWAP2 SWAP1 POP JUMP JUMPDEST PUSH2 0x1297 DUP2 PUSH2 0x18E0 JUMP JUMPDEST PUSH2 0x12D6 JUMPI PUSH1 0x40 MLOAD PUSH32 0x8C379A000000000000000000000000000000000000000000000000000000000 DUP2 MSTORE PUSH1 0x4 ADD PUSH2 0x12CD SWAP1 PUSH2 0x3196 JUMP JUMPDEST PUSH1 0x40 MLOAD DUP1 SWAP2 SUB SWAP1 REVERT JUMPDEST POP JUMP JUMPDEST PUSH0 CALLER SWAP1 POP SWAP1 JUMP JUMPDEST DUP2 PUSH1 0x4 PUSH0 DUP4 DUP2 MSTORE PUSH1 0x20 ADD SWAP1 DUP2 MSTORE PUSH1 0x20 ADD PUSH0 KECCAK256 PUSH0 PUSH2 0x100 EXP DUP2 SLOAD DUP2 PUSH20 0xFFFFFFFFFFFFFFFFFFFFFFFFFFFFFFFFFFFFFFFF MUL NOT AND SWAP1 DUP4 PUSH20 0xFFFFFFFFFFFFFFFFFFFFFFFFFFFFFFFFFFFFFFFF AND MUL OR SWAP1 SSTORE POP DUP1 DUP3 PUSH20 0xFFFFFFFFFFFFFFFFFFFFFFFFFFFFFFFFFFFFFFFF AND PUSH2 0x1350 DUP4 PUSH2 0xB5B JUMP JUMPDEST PUSH20 0xFFFFFFFFFFFFFFFFFFFFFFFFFFFFFFFFFFFFFFFF AND PUSH32 0x8C5BE1E5EBEC7D5BD14F71427D1E84F3DD0314C0F7B2291E5B200AC8C7C3B925 PUSH1 0x40 MLOAD PUSH1 0x40 MLOAD DUP1 SWAP2 SUB SWAP1 LOG4 POP POP JUMP JUMPDEST PUSH0 PUSH0 PUSH2 0x13A1 DUP4 PUSH2 0xB5B JUMP JUMPDEST SWAP1 POP DUP1 PUSH20 0xFFFFFFFFFFFFFFFFFFFFFFFFFFFFFFFFFFFFFFFF AND DUP5 PUSH20 0xFFFFFFFFFFFFFFFFFFFFFFFFFFFFFFFFFFFFFFFF AND EQ DUP1 PUSH2 0x13E3 JUMPI POP PUSH2 0x13E2 DUP2 DUP6 PUSH2 0x1089 JUMP JUMPDEST JUMPDEST DUP1 PUSH2 0x1421 JUMPI POP DUP4 PUSH20 0xFFFFFFFFFFFFFFFFFFFFFFFFFFFFFFFFFFFFFFFF AND PUSH2 0x1409 DUP5 PUSH2 0x676 JUMP JUMPDEST PUSH20 0xFFFFFFFFFFFFFFFFFFFFFFFFFFFFFFFFFFFFFFFF AND EQ JUMPDEST SWAP2 POP POP SWAP3 SWAP2 POP POP JUMP JUMPDEST DUP3 PUSH20 0xFFFFFFFFFFFFFFFFFFFFFFFFFFFFFFFFFFFFFFFF AND PUSH2 0x144A DUP3 PUSH2 0xB5B JUMP JUMPDEST PUSH20 0xFFFFFFFFFFFFFFFFFFFFFFFFFFFFFFFFFFFFFFFF AND EQ PUSH2 0x14A0 JUMPI PUSH1 0x40 MLOAD PUSH32 0x8C379A000000000000000000000000000000000000000000000000000000000 DUP2 MSTORE PUSH1 0x4 ADD PUSH2 0x1497 SWAP1 PUSH2 0x357E JUMP JUMPDEST PUSH1 0x40 MLOAD DUP1 SWAP2 SUB SWAP1 REVERT JUMPDEST PUSH0 PUSH20 0xFFFFFFFFFFFFFFFFFFFFFFFFFFFFFFFFFFFFFFFF AND DUP3 PUSH20 0xFFFFFFFFFFFFFFFFFFFFFFFFFFFFFFFFFFFFFFFF AND SUB PUSH2 0x150E JUMPI PUSH1 0x40 MLOAD PUSH32 0x8C379A000000000000000000000000000000000000000000000000000000000 DUP2 MSTORE PUSH1 0x4 ADD PUSH2 0x1505 SWAP1 PUSH2 0x360C JUMP JUMPDEST PUSH1 0x40 MLOAD DUP1 SWAP2 SUB SWAP1 REVERT JUMPDEST PUSH2 0x151B DUP4 DUP4 DUP4 PUSH1 0x1 PUSH2 0x1D1A JUMP JUMPDEST DUP3 PUSH20 0xFFFFFFFFFFFFFFFFFFFFFFFFFFFFFFFFFFFFFFFF AND PUSH2 0x153B DUP3 PUSH2 0xB5B JUMP JUMPDEST PUSH20 0xFFFFFFFFFFFFFFFFFFFFFFFFFFFFFFFFFFFFFFFF AND EQ PUSH2 0x1591 JUMPI PUSH1 0x40 MLOAD PUSH32 0x8C379A000000000000000000000000000000000000000000000000000000000 DUP2 MSTORE PUSH1 0x4 ADD PUSH2 0x1588 SWAP1 PUSH2 0x357E JUMP JUMPDEST PUSH1 0x40 MLOAD DUP1 SWAP2 SUB SWAP1 REVERT JUMPDEST PUSH1 0x4 PUSH0 DUP3 DUP2 MSTORE PUSH1 0x20 ADD SWAP1 DUP2 MSTORE PUSH1 0x20 ADD PUSH0 KECCAK256 PUSH0 PUSH2 0x100 EXP DUP2 SLOAD SWAP1 PUSH20 0xFFFFFFFFFFFFFFFFFFFFFFFFFFFFFFFFFFFFFFFF MUL NOT AND SWAP1 SSTORE PUSH1 0x1 PUSH1 0x3 PUSH0 DUP6 PUSH20 0xFFFFFFFFFFFFFFFFFFFFFFFFFFFFFFFFFFFFFFFF AND PUSH20 0xFFFFFFFFFFFFFFFFFFFFFFFFFFFFFFFFFFFFFFFF AND DUP2 MSTORE PUSH1 0x20 ADD SWAP1 DUP2 MSTORE PUSH1 0x20 ADD PUSH0 KECCAK256 PUSH0 DUP3 DUP3 SLOAD SUB SWAP3 POP POP DUP2 SWAP1 SSTORE POP PUSH1 0x1 PUSH1 0x3 PUSH0 DUP5 PUSH20 0xFFFFFFFFFFFFFFFFFFFFFFFFFFFFFFFFFFFFFFFF AND PUSH20 0xFFFFFFFFFFFFFFFFFFFFFFFFFFFFFFFFFFFFFFFF AND DUP2 MSTORE PUSH1 0x20 ADD SWAP1 DUP2 MSTORE PUSH1 0x20 ADD PUSH0 KECCAK256 PUSH0 DUP3 DUP3 SLOAD ADD SWAP3 POP POP DUP2 SWAP1 SSTORE POP DUP2 PUSH1 0x2 PUSH0 DUP4 DUP2 MSTORE PUSH1 0x20 ADD SWAP1 DUP2 MSTORE PUSH1 0x20 ADD PUSH0 KECCAK256 PUSH0 PUSH2 0x100 EXP DUP2 SLOAD DUP2 PUSH20 0xFFFFFFFFFFFFFFFFFFFFFFFFFFFFFFFFFFFFFFFF MUL NOT AND SWAP1 DUP4 PUSH20 0xFFFFFFFFFFFFFFFFFFFFFFFFFFFFFFFFFFFFFFFF AND MUL OR SWAP1 SSTORE POP DUP1 DUP3 PUSH20 0xFFFFFFFFFFFFFFFFFFFFFFFFFFFFFFFFFFFFFFFF AND DUP5 PUSH20 0xFFFFFFFFFFFFFFFFFFFFFFFFFFFFFFFFFFFFFFFF AND PUSH32 0xDDF252AD1BE2C89B69C2B068FC378DAA952BA7F163C4A11628F55A4DF523B3EF PUSH1 0x40 MLOAD PUSH1 0x40 MLOAD DUP1 SWAP2 SUB SWAP1 LOG4 PUSH2 0x1711 DUP4 DUP4 DUP4 PUSH1 0x1 PUSH2 0x1D20 JUMP JUMPDEST POP POP POP JUMP JUMPDEST PUSH2 0x1727 DUP2 PUSH2 0x1722 PUSH2 0x12D9 JUMP JUMPDEST PUSH2 0x1D26 JUMP JUMPDEST POP JUMP JUMPDEST PUSH2 0x1734 DUP3 DUP3 PUSH2 0xC99 JUMP JUMPDEST PUSH2 0x1801 JUMPI PUSH1 0x1 PUSH1 0x6 PUSH0 DUP5 DUP2 MSTORE PUSH1 0x20 ADD SWAP1 DUP2 MSTORE PUSH1 0x20 ADD PUSH0 KECCAK256 PUSH0 ADD PUSH0 DUP4 PUSH20 0xFFFFFFFFFFFFFFFFFFFFFFFFFFFFFFFFFFFFFFFF AND PUSH20 0xFFFFFFFFFFFFFFFFFFFFFFFFFFFFFFFFFFFFFFFF AND DUP2 MSTORE PUSH1 0x20 ADD SWAP1 DUP2 MSTORE PUSH1 0x20 ADD PUSH0 KECCAK256 PUSH0 PUSH2 0x100 EXP DUP2 SLOAD DUP2 PUSH1 0xFF MUL NOT AND SWAP1 DUP4 ISZERO ISZERO MUL OR SWAP1 SSTORE POP PUSH2 0x17A6 PUSH2 0x12D9 JUMP JUMPDEST PUSH20 0xFFFFFFFFFFFFFFFFFFFFFFFFFFFFFFFFFFFFFFFF AND DUP2 PUSH20 0xFFFFFFFFFFFFFFFFFFFFFFFFFFFFFFFFFFFFFFFF AND DUP4 PUSH32 0x2F8788117E7EFF1D82E926EC794901D17C78024A50270940304540A733656F0D PUSH1 0x40 MLOAD PUSH1 0x40 MLOAD DUP1 SWAP2 SUB SWAP1 LOG4 JUMPDEST POP POP JUMP JUMPDEST PUSH2 0x180F DUP3 DUP3 PUSH2 0xC99 JUMP JUMPDEST ISZERO PUSH2 0x18DC JUMPI PUSH0 PUSH1 0x6 PUSH0 DUP5 DUP2 MSTORE PUSH1 0x20 ADD SWAP1 DUP2 MSTORE PUSH1 0x20 ADD PUSH0 KECCAK256 PUSH0 ADD PUSH0 DUP4 PUSH20 0xFFFFFFFFFFFFFFFFFFFFFFFFFFFFFFFFFFFFFFFF AND PUSH20 0xFFFFFFFFFFFFFFFFFFFFFFFFFFFFFFFFFFFFFFFF AND DUP2 MSTORE PUSH1 0x20 ADD SWAP1 DUP2 MSTORE PUSH1 0x20 ADD PUSH0 KECCAK256 PUSH0 PUSH2 0x100 EXP DUP2 SLOAD DUP2 PUSH1 0xFF MUL NOT AND SWAP1 DUP4 ISZERO ISZERO MUL OR SWAP1 SSTORE POP PUSH2 0x1881 PUSH2 0x12D9 JUMP JUMPDEST PUSH20 0xFFFFFFFFFFFFFFFFFFFFFFFFFFFFFFFFFFFFFFFF AND DUP2 PUSH20 0xFFFFFFFFFFFFFFFFFFFFFFFFFFFFFFFFFFFFFFFF AND DUP4 PUSH32 0xF6391F5C32D9C69D2A47EA670B442974B53935D1EDC7FD64EB21E047A839171B PUSH1 0x40 MLOAD PUSH1 0x40 MLOAD DUP1 SWAP2 SUB SWAP1 LOG4 JUMPDEST POP POP JUMP JUMPDEST PUSH0 PUSH0 PUSH20 0xFFFFFFFFFFFFFFFFFFFFFFFFFFFFFFFFFFFFFFFF AND PUSH2 0x1901 DUP4 PUSH2 0x1920 JUMP JUMPDEST PUSH20 0xFFFFFFFFFFFFFFFFFFFFFFFFFFFFFFFFFFFFFFFF AND EQ ISZERO SWAP1 POP SWAP2 SWAP1 POP JUMP JUMPDEST PUSH0 PUSH1 0x2 PUSH0 DUP4 DUP2 MSTORE PUSH1 0x20 ADD SWAP1 DUP2 MSTORE PUSH1 0x20 ADD PUSH0 KECCAK256 PUSH0 SWAP1 SLOAD SWAP1 PUSH2 0x100 EXP SWAP1 DIV PUSH20 0xFFFFFFFFFFFFFFFFFFFFFFFFFFFFFFFFFFFFFFFF AND SWAP1 POP SWAP2 SWAP1 POP JUMP JUMPDEST DUP2 PUSH20 0xFFFFFFFFFFFFFFFFFFFFFFFFFFFFFFFFFFFFFFFF AND DUP4 PUSH20 0xFFFFFFFFFFFFFFFFFFFFFFFFFFFFFFFFFFFFFFFF AND SUB PUSH2 0x19C7 JUMPI PUSH1 0x40 MLOAD PUSH32 0x8C379A000000000000000000000000000000000000000000000000000000000 DUP2 MSTORE PUSH1 0x4 ADD PUSH2 0x19BE SWAP1 PUSH2 0x3674 JUMP JUMPDEST PUSH1 0x40 MLOAD DUP1 SWAP2 SUB SWAP1 REVERT JUMPDEST DUP1 PUSH1 0x5 PUSH0 DUP6 PUSH20 0xFFFFFFFFFFFFFFFFFFFFFFFFFFFFFFFFFFFFFFFF AND PUSH20 0xFFFFFFFFFFFFFFFFFFFFFFFFFFFFFFFFFFFFFFFF AND DUP2 MSTORE PUSH1 0x20 ADD SWAP1 DUP2 MSTORE PUSH1 0x20 ADD PUSH0 KECCAK256 PUSH0 DUP5 PUSH20 0xFFFFFFFFFFFFFFFFFFFFFFFFFFFFFFFFFFFFFFFF AND PUSH20 0xFFFFFFFFFFFFFFFFFFFFFFFFFFFFFFFFFFFFFFFF AND DUP2 MSTORE PUSH1 0x20 ADD SWAP1 DUP2 MSTORE PUSH1 0x20 ADD PUSH0 KECCAK256 PUSH0 PUSH2 0x100 EXP DUP2 SLOAD DUP2 PUSH1 0xFF MUL NOT AND SWAP1 DUP4 ISZERO ISZERO MUL OR SWAP1 SSTORE POP DUP2 PUSH20 0xFFFFFFFFFFFFFFFFFFFFFFFFFFFFFFFFFFFFFFFF AND DUP4 PUSH20 0xFFFFFFFFFFFFFFFFFFFFFFFFFFFFFFFFFFFFFFFF AND PUSH32 0x17307EAB39AB6107E8899845AD3D59BD9653F200F220920489CA2B5937696C31 DUP4 PUSH1 0x40 MLOAD PUSH2 0x1AB3 SWAP2 SWAP1 PUSH2 0x2682 JUMP JUMPDEST PUSH1 0x40 MLOAD DUP1 SWAP2 SUB SWAP1 LOG3 POP POP POP JUMP JUMPDEST PUSH1 0x1 DUP2 PUSH0 ADD PUSH0 DUP3 DUP3 SLOAD ADD SWAP3 POP POP DUP2 SWAP1 SSTORE POP POP JUMP JUMPDEST PUSH0 DUP2 PUSH0 ADD SLOAD SWAP1 POP SWAP2 SWAP1 POP JUMP JUMPDEST PUSH2 0x1AF9 DUP3 DUP3 PUSH1 0x40 MLOAD DUP1 PUSH1 0x20 ADD PUSH1 0x40 MSTORE DUP1 PUSH0 DUP2 MSTORE POP PUSH2 0x1DAA JUMP JUMPDEST POP POP JUMP JUMPDEST PUSH2 0x1B08 DUP5 DUP5 DUP5 PUSH2 0x142A JUMP JUMPDEST PUSH2 0x1B14 DUP5 DUP5 DUP5 DUP5 PUSH2 0x1E04 JUMP JUMPDEST PUSH2 0x1B53 JUMPI PUSH1 0x40 MLOAD PUSH32 0x8C379A000000000000000000000000000000000000000000000000000000000 DUP2 MSTORE PUSH1 0x4 ADD PUSH2 0x1B4A SWAP1 PUSH2 0x3702 JUMP JUMPDEST PUSH1 0x40 MLOAD DUP1 SWAP2 SUB SWAP1 REVERT JUMPDEST POP POP POP POP JUMP JUMPDEST PUSH1 0x60 PUSH1 0x40 MLOAD DUP1 PUSH1 0x20 ADD PUSH1 0x40 MSTORE DUP1 PUSH0 DUP2 MSTORE POP SWAP1 POP SWAP1 JUMP JUMPDEST PUSH1 0x60 PUSH0 PUSH1 0x1 PUSH2 0x1B7D DUP5 PUSH2 0x1F86 JUMP JUMPDEST ADD SWAP1 POP PUSH0 DUP2 PUSH8 0xFFFFFFFFFFFFFFFF DUP2 GT ISZERO PUSH2 0x1B9B JUMPI PUSH2 0x1B9A PUSH2 0x2BCF JUMP JUMPDEST JUMPDEST PUSH1 0x40 MLOAD SWAP1 DUP1 DUP3 MSTORE DUP1 PUSH1 0x1F ADD PUSH1 0x1F NOT AND PUSH1 0x20 ADD DUP3 ADD PUSH1 0x40 MSTORE DUP1 ISZERO PUSH2 0x1BCD JUMPI DUP2 PUSH1 0x20 ADD PUSH1 0x1 DUP3 MUL DUP1 CALLDATASIZE DUP4 CALLDATACOPY DUP1 DUP3 ADD SWAP2 POP POP SWAP1 POP JUMPDEST POP SWAP1 POP PUSH0 DUP3 PUSH1 0x20 ADD DUP3 ADD SWAP1 POP JUMPDEST PUSH1 0x1 ISZERO PUSH2 0x1C2E JUMPI DUP1 DUP1 PUSH1 0x1 SWAP1 SUB SWAP2 POP POP PUSH32 0x3031323334353637383961626364656600000000000000000000000000000000 PUSH1 0xA DUP7 MOD BYTE DUP2 MSTORE8 PUSH1 0xA DUP6 DUP2 PUSH2 0x1C23 JUMPI PUSH2 0x1C22 PUSH2 0x3720 JUMP JUMPDEST JUMPDEST DIV SWAP5 POP PUSH0 DUP6 SUB PUSH2 0x1BDA JUMPI JUMPDEST DUP2 SWAP4 POP POP POP POP SWAP2 SWAP1 POP JUMP JUMPDEST PUSH0 PUSH32 0x80AC58CD00000000000000000000000000000000000000000000000000000000 PUSH28 0xFFFFFFFFFFFFFFFFFFFFFFFFFFFFFFFFFFFFFFFFFFFFFFFFFFFFFFFF NOT AND DUP3 PUSH28 0xFFFFFFFFFFFFFFFFFFFFFFFFFFFFFFFFFFFFFFFFFFFFFFFFFFFFFFFF NOT AND EQ DUP1 PUSH2 0x1D03 JUMPI POP PUSH32 0x5B5E139F00000000000000000000000000000000000000000000000000000000 PUSH28 0xFFFFFFFFFFFFFFFFFFFFFFFFFFFFFFFFFFFFFFFFFFFFFFFFFFFFFFFF NOT AND DUP3 PUSH28 0xFFFFFFFFFFFFFFFFFFFFFFFFFFFFFFFFFFFFFFFFFFFFFFFFFFFFFFFF NOT AND EQ JUMPDEST DUP1 PUSH2 0x1D13 JUMPI POP PUSH2 0x1D12 DUP3 PUSH2 0x20D7 JUMP JUMPDEST JUMPDEST SWAP1 POP SWAP2 SWAP1 POP JUMP JUMPDEST POP POP POP POP JUMP JUMPDEST POP POP POP POP JUMP JUMPDEST PUSH2 0x1D30 DUP3 DUP3 PUSH2 0xC99 JUMP JUMPDEST PUSH2 0x1DA6 JUMPI PUSH2 0x1D3D DUP2 PUSH2 0x2140 JUMP JUMPDEST PUSH2 0x1D4A DUP4 PUSH0 SHR PUSH1 0x20 PUSH2 0x216D JUMP JUMPDEST PUSH1 0x40 MLOAD PUSH1 0x20 ADD PUSH2 0x1D5B SWAP3 SWAP2 SWAP1 PUSH2 0x37E1 JUMP JUMPDEST PUSH1 0x40 MLOAD PUSH1 0x20 DUP2 DUP4 SUB SUB DUP2 MSTORE SWAP1 PUSH1 0x40 MSTORE PUSH1 0x40 MLOAD PUSH32 0x8C379A000000000000000000000000000000000000000000000000000000000 DUP2 MSTORE PUSH1 0x4 ADD PUSH2 0x1D9D SWAP2 SWAP1 PUSH2 0x270B JUMP JUMPDEST PUSH1 0x40 MLOAD DUP1 SWAP2 SUB SWAP1 REVERT JUMPDEST POP POP JUMP JUMPDEST PUSH2 0x1DB4 DUP4 DUP4 PUSH2 0x23A2 JUMP JUMPDEST PUSH2 0x1DC0 PUSH0 DUP5 DUP5 DUP5 PUSH2 0x1E04 JUMP JUMPDEST PUSH2 0x1DFF JUMPI PUSH1 0x40 MLOAD PUSH32 0x8C379A000000000000000000000000000000000000000000000000000000000 DUP2 MSTORE PUSH1 0x4 ADD PUSH2 0x1DF6 SWAP1 PUSH2 0x3702 JUMP JUMPDEST PUSH1 0x40 MLOAD DUP1 SWAP2 SUB SWAP1 REVERT JUMPDEST POP POP POP JUMP JUMPDEST PUSH0 PUSH2 0x1E24 DUP5 PUSH20 0xFFFFFFFFFFFFFFFFFFFFFFFFFFFFFFFFFFFFFFFF AND PUSH2 0x25B5 JUMP JUMPDEST ISZERO PUSH2 0x1F79 JUMPI DUP4 PUSH20 0xFFFFFFFFFFFFFFFFFFFFFFFFFFFFFFFFFFFFFFFF AND PUSH4 0x150B7A02 PUSH2 0x1E4D PUSH2 0x12D9 JUMP JUMPDEST DUP8 DUP7 DUP7 PUSH1 0x40 MLOAD DUP6 PUSH4 0xFFFFFFFF AND PUSH1 0xE0 SHL DUP2 MSTORE PUSH1 0x4 ADD PUSH2 0x1E6F SWAP5 SWAP4 SWAP3 SWAP2 SWAP1 PUSH2 0x386C JUMP JUMPDEST PUSH1 0x20 PUSH1 0x40 MLOAD DUP1 DUP4 SUB DUP2 PUSH0 DUP8 GAS CALL SWAP3 POP POP POP DUP1 ISZERO PUSH2 0x1EAA JUMPI POP PUSH1 0x40 MLOAD RETURNDATASIZE PUSH1 0x1F NOT PUSH1 0x1F DUP3 ADD AND DUP3 ADD DUP1 PUSH1 0x40 MSTORE POP DUP2 ADD SWAP1 PUSH2 0x1EA7 SWAP2 SWAP1 PUSH2 0x38CA JUMP JUMPDEST PUSH1 0x1 JUMPDEST PUSH2 0x1F29 JUMPI RETURNDATASIZE DUP1 PUSH0 DUP2 EQ PUSH2 0x1ED8 JUMPI PUSH1 0x40 MLOAD SWAP2 POP PUSH1 0x1F NOT PUSH1 0x3F RETURNDATASIZE ADD AND DUP3 ADD PUSH1 0x40 MSTORE RETURNDATASIZE DUP3 MSTORE RETURNDATASIZE PUSH0 PUSH1 0x20 DUP5 ADD RETURNDATACOPY PUSH2 0x1EDD JUMP JUMPDEST PUSH1 0x60 SWAP2 POP JUMPDEST POP PUSH0 DUP2 MLOAD SUB PUSH2 0x1F21 JUMPI PUSH1 0x40 MLOAD PUSH32 0x8C379A000000000000000000000000000000000000000000000000000000000 DUP2 MSTORE PUSH1 0x4 ADD PUSH2 0x1F18 SWAP1 PUSH2 0x3702 JUMP JUMPDEST PUSH1 0x40 MLOAD DUP1 SWAP2 SUB SWAP1 REVERT JUMPDEST DUP1 MLOAD DUP2 PUSH1 0x20 ADD REVERT JUMPDEST PUSH4 0x150B7A02 PUSH1 0xE0 SHL PUSH28 0xFFFFFFFFFFFFFFFFFFFFFFFFFFFFFFFFFFFFFFFFFFFFFFFFFFFFFFFF NOT AND DUP2 PUSH28 0xFFFFFFFFFFFFFFFFFFFFFFFFFFFFFFFFFFFFFFFFFFFFFFFFFFFFFFFF NOT AND EQ SWAP2 POP POP PUSH2 0x1F7E JUMP JUMPDEST PUSH1 0x1 SWAP1 POP JUMPDEST SWAP5 SWAP4 POP POP POP POP JUMP JUMPDEST PUSH0 PUSH0 PUSH0 SWAP1 POP PUSH27 0x184F03E93FF9F4DAA797ED6E38ED64BF6A1F010000000000000000 DUP4 LT PUSH2 0x1FE2 JUMPI PUSH27 0x184F03E93FF9F4DAA797ED6E38ED64BF6A1F010000000000000000 DUP4 DUP2 PUSH2 0x1FD8 JUMPI PUSH2 0x1FD7 PUSH2 0x3720 JUMP JUMPDEST JUMPDEST DIV SWAP3 POP PUSH1 0x40 DUP2 ADD SWAP1 POP JUMPDEST PUSH14 0x4EE2D6D415B85ACEF8100000000 DUP4 LT PUSH2 0x201F JUMPI PUSH14 0x4EE2D6D415B85ACEF8100000000 DUP4 DUP2 PUSH2 0x2015 JUMPI PUSH2 0x2014 PUSH2 0x3720 JUMP JUMPDEST JUMPDEST DIV SWAP3 POP PUSH1 0x20 DUP2 ADD SWAP1 POP JUMPDEST PUSH7 0x2386F26FC10000 DUP4 LT PUSH2 0x204E JUMPI PUSH7 0x2386F26FC10000 DUP4 DUP2 PUSH2 0x2044 JUMPI PUSH2 0x2043 PUSH2 0x3720 JUMP JUMPDEST JUMPDEST DIV SWAP3 POP PUSH1 0x10 DUP2 ADD SWAP1 POP JUMPDEST PUSH4 0x5F5E100 DUP4 LT PUSH2 0x2077 JUMPI PUSH4 0x5F5E100 DUP4 DUP2 PUSH2 0x206D JUMPI PUSH2 0x206C PUSH2 0x3720 JUMP JUMPDEST JUMPDEST DIV SWAP3 POP PUSH1 0x8 DUP2 ADD SWAP1 POP JUMPDEST PUSH2 0x2710 DUP4 LT PUSH2 0x209C JUMPI PUSH2 0x2710 DUP4 DUP2 PUSH2 0x2092 JUMPI PUSH2 0x2091 PUSH2 0x3720 JUMP JUMPDEST JUMPDEST DIV SWAP3 POP PUSH1 0x4 DUP2 ADD SWAP1 POP JUMPDEST PUSH1 0x64 DUP4 LT PUSH2 0x20BF JUMPI PUSH1 0x64 DUP4 DUP2 PUSH2 0x20B5 JUMPI PUSH2 0x20B4 PUSH2 0x3720 JUMP JUMPDEST JUMPDEST DIV SWAP3 POP PUSH1 0x2 DUP2 ADD SWAP1 POP JUMPDEST PUSH1 0xA DUP4 LT PUSH2 0x20CE JUMPI PUSH1 0x1 DUP2 ADD SWAP1 POP JUMPDEST DUP1 SWAP2 POP POP SWAP2 SWAP1 POP JUMP JUMPDEST PUSH0 PUSH32 0x1FFC9A700000000000000000000000000000000000000000000000000000000 PUSH28 0xFFFFFFFFFFFFFFFFFFFFFFFFFFFFFFFFFFFFFFFFFFFFFFFFFFFFFFFF NOT AND DUP3 PUSH28 0xFFFFFFFFFFFFFFFFFFFFFFFFFFFFFFFFFFFFFFFFFFFFFFFFFFFFFFFF NOT AND EQ SWAP1 POP SWAP2 SWAP1 POP JUMP JUMPDEST PUSH1 0x60 PUSH2 0x2166 DUP3 PUSH20 0xFFFFFFFFFFFFFFFFFFFFFFFFFFFFFFFFFFFFFFFF AND PUSH1 0x14 PUSH1 0xFF AND PUSH2 0x216D JUMP JUMPDEST SWAP1 POP SWAP2 SWAP1 POP JUMP JUMPDEST PUSH1 0x60 PUSH0 PUSH1 0x2 DUP4 PUSH1 0x2 PUSH2 0x217F SWAP2 SWAP1 PUSH2 0x38F5 JUMP JUMPDEST PUSH2 0x2189 SWAP2 SWAP1 PUSH2 0x3119 JUMP JUMPDEST PUSH8 0xFFFFFFFFFFFFFFFF DUP2 GT ISZERO PUSH2 0x21A2 JUMPI PUSH2 0x21A1 PUSH2 0x2BCF JUMP JUMPDEST JUMPDEST PUSH1 0x40 MLOAD SWAP1 DUP1 DUP3 MSTORE DUP1 PUSH1 0x1F ADD PUSH1 0x1F NOT AND PUSH1 0x20 ADD DUP3 ADD PUSH1 0x40 MSTORE DUP1 ISZERO PUSH2 0x21D4 JUMPI DUP2 PUSH1 0x20 ADD PUSH1 0x1 DUP3 MUL DUP1 CALLDATASIZE DUP4 CALLDATACOPY DUP1 DUP3 ADD SWAP2 POP POP SWAP1 POP JUMPDEST POP SWAP1 POP PUSH32 0x3000000000000000000000000000000000000000000000000000000000000000 DUP2 PUSH0 DUP2 MLOAD DUP2 LT PUSH2 0x220B JUMPI PUSH2 0x220A PUSH2 0x3936 JUMP JUMPDEST JUMPDEST PUSH1 0x20 ADD ADD SWAP1 PUSH31 0xFFFFFFFFFFFFFFFFFFFFFFFFFFFFFFFFFFFFFFFFFFFFFFFFFFFFFFFFFFFFFF NOT AND SWAP1 DUP2 PUSH0 BYTE SWAP1 MSTORE8 POP PUSH32 0x7800000000000000000000000000000000000000000000000000000000000000 DUP2 PUSH1 0x1 DUP2 MLOAD DUP2 LT PUSH2 0x226E JUMPI PUSH2 0x226D PUSH2 0x3936 JUMP JUMPDEST JUMPDEST PUSH1 0x20 ADD ADD SWAP1 PUSH31 0xFFFFFFFFFFFFFFFFFFFFFFFFFFFFFFFFFFFFFFFFFFFFFFFFFFFFFFFFFFFFFF NOT AND SWAP1 DUP2 PUSH0 BYTE SWAP1 MSTORE8 POP PUSH0 PUSH1 0x1 DUP5 PUSH1 0x2 PUSH2 0x22AC SWAP2 SWAP1 PUSH2 0x38F5 JUMP JUMPDEST PUSH2 0x22B6 SWAP2 SWAP1 PUSH2 0x3119 JUMP JUMPDEST SWAP1 POP JUMPDEST PUSH1 0x1 DUP2 GT ISZERO PUSH2 0x2355 JUMPI PUSH32 0x3031323334353637383961626364656600000000000000000000000000000000 PUSH1 0xF DUP7 AND PUSH1 0x10 DUP2 LT PUSH2 0x22F8 JUMPI PUSH2 0x22F7 PUSH2 0x3936 JUMP JUMPDEST JUMPDEST BYTE PUSH1 0xF8 SHL DUP3 DUP3 DUP2 MLOAD DUP2 LT PUSH2 0x230F JUMPI PUSH2 0x230E PUSH2 0x3936 JUMP JUMPDEST JUMPDEST PUSH1 0x20 ADD ADD SWAP1 PUSH31 0xFFFFFFFFFFFFFFFFFFFFFFFFFFFFFFFFFFFFFFFFFFFFFFFFFFFFFFFFFFFFFF NOT AND SWAP1 DUP2 PUSH0 BYTE SWAP1 MSTORE8 POP PUSH1 0x4 DUP6 SWAP1 SHR SWAP5 POP DUP1 PUSH2 0x234E SWAP1 PUSH2 0x3963 JUMP JUMPDEST SWAP1 POP PUSH2 0x22B9 JUMP JUMPDEST POP PUSH0 DUP5 EQ PUSH2 0x2398 JUMPI PUSH1 0x40 MLOAD PUSH32 0x8C379A000000000000000000000000000000000000000000000000000000000 DUP2 MSTORE PUSH1 0x4 ADD PUSH2 0x238F SWAP1 PUSH2 0x39D4 JUMP JUMPDEST PUSH1 0x40 MLOAD DUP1 SWAP2 SUB SWAP1 REVERT JUMPDEST DUP1 SWAP2 POP POP SWAP3 SWAP2 POP POP JUMP JUMPDEST PUSH0 PUSH20 0xFFFFFFFFFFFFFFFFFFFFFFFFFFFFFFFFFFFFFFFF AND DUP3 PUSH20 0xFFFFFFFFFFFFFFFFFFFFFFFFFFFFFFFFFFFFFFFF AND SUB PUSH2 0x2410 JUMPI PUSH1 0x40 MLOAD PUSH32 0x8C379A000000000000000000000000000000000000000000000000000000000 DUP2 MSTORE PUSH1 0x4 ADD PUSH2 0x2407 SWAP1 PUSH2 0x3A3C JUMP JUMPDEST PUSH1 0x40 MLOAD DUP1 SWAP2 SUB SWAP1 REVERT JUMPDEST PUSH2 0x2419 DUP2 PUSH2 0x18E0 JUMP JUMPDEST ISZERO PUSH2 0x2459 JUMPI PUSH1 0x40 MLOAD PUSH32 0x8C379A000000000000000000000000000000000000000000000000000000000 DUP2 MSTORE PUSH1 0x4 ADD PUSH2 0x2450 SWAP1 PUSH2 0x3AA4 JUMP JUMPDEST PUSH1 0x40 MLOAD DUP1 SWAP2 SUB SWAP1 REVERT JUMPDEST PUSH2 0x2466 PUSH0 DUP4 DUP4 PUSH1 0x1 PUSH2 0x1D1A JUMP JUMPDEST PUSH2 0x246F DUP2 PUSH2 0x18E0 JUMP JUMPDEST ISZERO PUSH2 0x24AF JUMPI PUSH1 0x40 MLOAD PUSH32 0x8C379A000000000000000000000000000000000000000000000000000000000 DUP2 MSTORE PUSH1 0x4 ADD PUSH2 0x24A6 SWAP1 PUSH2 0x3AA4 JUMP JUMPDEST PUSH1 0x40 MLOAD DUP1 SWAP2 SUB SWAP1 REVERT JUMPDEST PUSH1 0x1 PUSH1 0x3 PUSH0 DUP5 PUSH20 0xFFFFFFFFFFFFFFFFFFFFFFFFFFFFFFFFFFFFFFFF AND PUSH20 0xFFFFFFFFFFFFFFFFFFFFFFFFFFFFFFFFFFFFFFFF AND DUP2 MSTORE PUSH1 0x20 ADD SWAP1 DUP2 MSTORE PUSH1 0x20 ADD PUSH0 KECCAK256 PUSH0 DUP3 DUP3 SLOAD ADD SWAP3 POP POP DUP2 SWAP1 SSTORE POP DUP2 PUSH1 0x2 PUSH0 DUP4 DUP2 MSTORE PUSH1 0x20 ADD SWAP1 DUP2 MSTORE PUSH1 0x20 ADD PUSH0 KECCAK256 PUSH0 PUSH2 0x100 EXP DUP2 SLOAD DUP2 PUSH20 0xFFFFFFFFFFFFFFFFFFFFFFFFFFFFFFFFFFFFFFFF MUL NOT AND SWAP1 DUP4 PUSH20 0xFFFFFFFFFFFFFFFFFFFFFFFFFFFFFFFFFFFFFFFF AND MUL OR SWAP1 SSTORE POP DUP1 DUP3 PUSH20 0xFFFFFFFFFFFFFFFFFFFFFFFFFFFFFFFFFFFFFFFF AND PUSH0 PUSH20 0xFFFFFFFFFFFFFFFFFFFFFFFFFFFFFFFFFFFFFFFF AND PUSH32 0xDDF252AD1BE2C89B69C2B068FC378DAA952BA7F163C4A11628F55A4DF523B3EF PUSH1 0x40 MLOAD PUSH1 0x40 MLOAD DUP1 SWAP2 SUB SWAP1 LOG4 PUSH2 0x25B1 PUSH0 DUP4 DUP4 PUSH1 0x1 PUSH2 0x1D20 JUMP JUMPDEST POP POP JUMP JUMPDEST PUSH0 PUSH0 DUP3 PUSH20 0xFFFFFFFFFFFFFFFFFFFFFFFFFFFFFFFFFFFFFFFF AND EXTCODESIZE GT SWAP1 POP SWAP2 SWAP1 POP JUMP JUMPDEST PUSH0 PUSH1 0x40 MLOAD SWAP1 POP SWAP1 JUMP JUMPDEST PUSH0 PUSH0 REVERT JUMPDEST PUSH0 PUSH0 REVERT JUMPDEST PUSH0 PUSH32 0xFFFFFFFF00000000000000000000000000000000000000000000000000000000 DUP3 AND SWAP1 POP SWAP2 SWAP1 POP JUMP JUMPDEST PUSH2 0x261C DUP2 PUSH2 0x25E8 JUMP JUMPDEST DUP2 EQ PUSH2 0x2626 JUMPI PUSH0 PUSH0 REVERT JUMPDEST POP JUMP JUMPDEST PUSH0 DUP2 CALLDATALOAD SWAP1 POP PUSH2 0x2637 DUP2 PUSH2 0x2613 JUMP JUMPDEST SWAP3 SWAP2 POP POP JUMP JUMPDEST PUSH0 PUSH1 0x20 DUP3 DUP5 SUB SLT ISZERO PUSH2 0x2652 JUMPI PUSH2 0x2651 PUSH2 0x25E0 JUMP JUMPDEST JUMPDEST PUSH0 PUSH2 0x265F DUP5 DUP3 DUP6 ADD PUSH2 0x2629 JUMP JUMPDEST SWAP2 POP POP SWAP3 SWAP2 POP POP JUMP JUMPDEST PUSH0 DUP2 ISZERO ISZERO SWAP1 POP SWAP2 SWAP1 POP JUMP JUMPDEST PUSH2 0x267C DUP2 PUSH2 0x2668 JUMP JUMPDEST DUP3 MSTORE POP POP JUMP JUMPDEST PUSH0 PUSH1 0x20 DUP3 ADD SWAP1 POP PUSH2 0x2695 PUSH0 DUP4 ADD DUP5 PUSH2 0x2673 JUMP JUMPDEST SWAP3 SWAP2 POP POP JUMP JUMPDEST PUSH0 DUP2 MLOAD SWAP1 POP SWAP2 SWAP1 POP JUMP JUMPDEST PUSH0 DUP3 DUP3 MSTORE PUSH1 0x20 DUP3 ADD SWAP1 POP SWAP3 SWAP2 POP POP JUMP JUMPDEST DUP3 DUP2 DUP4 MCOPY PUSH0 DUP4 DUP4 ADD MSTORE POP POP POP JUMP JUMPDEST PUSH0 PUSH1 0x1F NOT PUSH1 0x1F DUP4 ADD AND SWAP1 POP SWAP2 SWAP1 POP JUMP JUMPDEST PUSH0 PUSH2 0x26DD DUP3 PUSH2 0x269B JUMP JUMPDEST PUSH2 0x26E7 DUP2 DUP6 PUSH2 0x26A5 JUMP JUMPDEST SWAP4 POP PUSH2 0x26F7 DUP2 DUP6 PUSH1 0x20 DUP7 ADD PUSH2 0x26B5 JUMP JUMPDEST PUSH2 0x2700 DUP2 PUSH2 0x26C3 JUMP JUMPDEST DUP5 ADD SWAP2 POP POP SWAP3 SWAP2 POP POP JUMP JUMPDEST PUSH0 PUSH1 0x20 DUP3 ADD SWAP1 POP DUP2 DUP2 SUB PUSH0 DUP4 ADD MSTORE PUSH2 0x2723 DUP2 DUP5 PUSH2 0x26D3 JUMP JUMPDEST SWAP1 POP SWAP3 SWAP2 POP POP JUMP JUMPDEST PUSH0 DUP2 SWAP1 POP SWAP2 SWAP1 POP JUMP JUMPDEST PUSH2 0x273D DUP2 PUSH2 0x272B JUMP JUMPDEST DUP2 EQ PUSH2 0x2747 JUMPI PUSH0 PUSH0 REVERT JUMPDEST POP JUMP JUMPDEST PUSH0 DUP2 CALLDATALOAD SWAP1 POP PUSH2 0x2758 DUP2 PUSH2 0x2734 JUMP JUMPDEST SWAP3 SWAP2 POP POP JUMP JUMPDEST PUSH0 PUSH1 0x20 DUP3 DUP5 SUB SLT ISZERO PUSH2 0x2773 JUMPI PUSH2 0x2772 PUSH2 0x25E0 JUMP JUMPDEST JUMPDEST PUSH0 PUSH2 0x2780 DUP5 DUP3 DUP6 ADD PUSH2 0x274A JUMP JUMPDEST SWAP2 POP POP SWAP3 SWAP2 POP POP JUMP JUMPDEST PUSH0 PUSH20 0xFFFFFFFFFFFFFFFFFFFFFFFFFFFFFFFFFFFFFFFF DUP3 AND SWAP1 POP SWAP2 SWAP1 POP JUMP JUMPDEST PUSH0 PUSH2 0x27B2 DUP3 PUSH2 0x2789 JUMP JUMPDEST SWAP1 POP SWAP2 SWAP1 POP JUMP JUMPDEST PUSH2 0x27C2 DUP2 PUSH2 0x27A8 JUMP JUMPDEST DUP3 MSTORE POP POP JUMP JUMPDEST PUSH0 PUSH1 0x20 DUP3 ADD SWAP1 POP PUSH2 0x27DB PUSH0 DUP4 ADD DUP5 PUSH2 0x27B9 JUMP JUMPDEST SWAP3 SWAP2 POP POP JUMP JUMPDEST PUSH2 0x27EA DUP2 PUSH2 0x27A8 JUMP JUMPDEST DUP2 EQ PUSH2 0x27F4 JUMPI PUSH0 PUSH0 REVERT JUMPDEST POP JUMP JUMPDEST PUSH0 DUP2 CALLDATALOAD SWAP1 POP PUSH2 0x2805 DUP2 PUSH2 0x27E1 JUMP JUMPDEST SWAP3 SWAP2 POP POP JUMP JUMPDEST PUSH0 PUSH0 PUSH1 0x40 DUP4 DUP6 SUB SLT ISZERO PUSH2 0x2821 JUMPI PUSH2 0x2820 PUSH2 0x25E0 JUMP JUMPDEST JUMPDEST PUSH0 PUSH2 0x282E DUP6 DUP3 DUP7 ADD PUSH2 0x27F7 JUMP JUMPDEST SWAP3 POP POP PUSH1 0x20 PUSH2 0x283F DUP6 DUP3 DUP7 ADD PUSH2 0x274A JUMP JUMPDEST SWAP2 POP POP SWAP3 POP SWAP3 SWAP1 POP JUMP JUMPDEST PUSH2 0x2852 DUP2 PUSH2 0x272B JUMP JUMPDEST DUP3 MSTORE POP POP JUMP JUMPDEST PUSH0 PUSH1 0xA0 DUP3 ADD SWAP1 POP DUP2 DUP2 SUB PUSH0 DUP4 ADD MSTORE PUSH2 0x2870 DUP2 DUP9 PUSH2 0x26D3 JUMP JUMPDEST SWAP1 POP PUSH2 0x287F PUSH1 0x20 DUP4 ADD DUP8 PUSH2 0x2849 JUMP JUMPDEST DUP2 DUP2 SUB PUSH1 0x40 DUP4 ADD MSTORE PUSH2 0x2891 DUP2 DUP7 PUSH2 0x26D3 JUMP JUMPDEST SWAP1 POP PUSH2 0x28A0 PUSH1 0x60 DUP4 ADD DUP6 PUSH2 0x2849 JUMP JUMPDEST PUSH2 0x28AD PUSH1 0x80 DUP4 ADD DUP5 PUSH2 0x2673 JUMP JUMPDEST SWAP7 SWAP6 POP POP POP POP POP POP JUMP JUMPDEST PUSH0 PUSH0 PUSH0 PUSH1 0x60 DUP5 DUP7 SUB SLT ISZERO PUSH2 0x28CE JUMPI PUSH2 0x28CD PUSH2 0x25E0 JUMP JUMPDEST JUMPDEST PUSH0 PUSH2 0x28DB DUP7 DUP3 DUP8 ADD PUSH2 0x27F7 JUMP JUMPDEST SWAP4 POP POP PUSH1 0x20 PUSH2 0x28EC DUP7 DUP3 DUP8 ADD PUSH2 0x27F7 JUMP JUMPDEST SWAP3 POP POP PUSH1 0x40 PUSH2 0x28FD DUP7 DUP3 DUP8 ADD PUSH2 0x274A JUMP JUMPDEST SWAP2 POP POP SWAP3 POP SWAP3 POP SWAP3 JUMP JUMPDEST PUSH0 DUP2 SWAP1 POP SWAP2 SWAP1 POP JUMP JUMPDEST PUSH2 0x2919 DUP2 PUSH2 0x2907 JUMP JUMPDEST DUP2 EQ PUSH2 0x2923 JUMPI PUSH0 PUSH0 REVERT JUMPDEST POP JUMP JUMPDEST PUSH0 DUP2 CALLDATALOAD SWAP1 POP PUSH2 0x2934 DUP2 PUSH2 0x2910 JUMP JUMPDEST SWAP3 SWAP2 POP POP JUMP JUMPDEST PUSH0 PUSH1 0x20 DUP3 DUP5 SUB SLT ISZERO PUSH2 0x294F JUMPI PUSH2 0x294E PUSH2 0x25E0 JUMP JUMPDEST JUMPDEST PUSH0 PUSH2 0x295C DUP5 DUP3 DUP6 ADD PUSH2 0x2926 JUMP JUMPDEST SWAP2 POP POP SWAP3 SWAP2 POP POP JUMP JUMPDEST PUSH2 0x296E DUP2 PUSH2 0x2907 JUMP JUMPDEST DUP3 MSTORE POP POP JUMP JUMPDEST PUSH0 PUSH1 0x20 DUP3 ADD SWAP1 POP PUSH2 0x2987 PUSH0 DUP4 ADD DUP5 PUSH2 0x2965 JUMP JUMPDEST SWAP3 SWAP2 POP POP JUMP JUMPDEST PUSH0 PUSH0 PUSH1 0x40 DUP4 DUP6 SUB SLT ISZERO PUSH2 0x29A3 JUMPI PUSH2 0x29A2 PUSH2 0x25E0 JUMP JUMPDEST JUMPDEST PUSH0 PUSH2 0x29B0 DUP6 DUP3 DUP7 ADD PUSH2 0x2926 JUMP JUMPDEST SWAP3 POP POP PUSH1 0x20 PUSH2 0x29C1 DUP6 DUP3 DUP7 ADD PUSH2 0x27F7 JUMP JUMPDEST SWAP2 POP POP SWAP3 POP SWAP3 SWAP1 POP JUMP JUMPDEST PUSH0 PUSH1 0x20 DUP3 ADD SWAP1 POP PUSH2 0x29DE PUSH0 DUP4 ADD DUP5 PUSH2 0x2849 JUMP JUMPDEST SWAP3 SWAP2 POP POP JUMP JUMPDEST PUSH0 PUSH0 PUSH0 PUSH1 0x60 DUP5 DUP7 SUB SLT ISZERO PUSH2 0x29FB JUMPI PUSH2 0x29FA PUSH2 0x25E0 JUMP JUMPDEST JUMPDEST PUSH0 PUSH2 0x2A08 DUP7 DUP3 DUP8 ADD PUSH2 0x274A JUMP JUMPDEST SWAP4 POP POP PUSH1 0x20 PUSH2 0x2A19 DUP7 DUP3 DUP8 ADD PUSH2 0x274A JUMP JUMPDEST SWAP3 POP POP PUSH1 0x40 PUSH2 0x2A2A DUP7 DUP3 DUP8 ADD PUSH2 0x274A JUMP JUMPDEST SWAP2 POP POP SWAP3 POP SWAP3 POP SWAP3 JUMP JUMPDEST PUSH0 PUSH1 0x20 DUP3 DUP5 SUB SLT ISZERO PUSH2 0x2A49 JUMPI PUSH2 0x2A48 PUSH2 0x25E0 JUMP JUMPDEST JUMPDEST PUSH0 PUSH2 0x2A56 DUP5 DUP3 DUP6 ADD PUSH2 0x27F7 JUMP JUMPDEST SWAP2 POP POP SWAP3 SWAP2 POP POP JUMP JUMPDEST PUSH2 0x2A68 DUP2 PUSH2 0x2668 JUMP JUMPDEST DUP2 EQ PUSH2 0x2A72 JUMPI PUSH0 PUSH0 REVERT JUMPDEST POP JUMP JUMPDEST PUSH0 DUP2 CALLDATALOAD SWAP1 POP PUSH2 0x2A83 DUP2 PUSH2 0x2A5F JUMP JUMPDEST SWAP3 SWAP2 POP POP JUMP JUMPDEST PUSH0 PUSH0 PUSH1 0x40 DUP4 DUP6 SUB SLT ISZERO PUSH2 0x2A9F JUMPI PUSH2 0x2A9E PUSH2 0x25E0 JUMP JUMPDEST JUMPDEST PUSH0 PUSH2 0x2AAC DUP6 DUP3 DUP7 ADD PUSH2 0x27F7 JUMP JUMPDEST SWAP3 POP POP PUSH1 0x20 PUSH2 0x2ABD DUP6 DUP3 DUP7 ADD PUSH2 0x2A75 JUMP JUMPDEST SWAP2 POP POP SWAP3 POP SWAP3 SWAP1 POP JUMP JUMPDEST PUSH0 PUSH0 REVERT JUMPDEST PUSH0 PUSH0 REVERT JUMPDEST PUSH0 PUSH0 REVERT JUMPDEST PUSH0 PUSH0 DUP4 PUSH1 0x1F DUP5 ADD SLT PUSH2 0x2AE8 JUMPI PUSH2 0x2AE7 PUSH2 0x2AC7 JUMP JUMPDEST JUMPDEST DUP3 CALLDATALOAD SWAP1 POP PUSH8 0xFFFFFFFFFFFFFFFF DUP2 GT ISZERO PUSH2 0x2B05 JUMPI PUSH2 0x2B04 PUSH2 0x2ACB JUMP JUMPDEST JUMPDEST PUSH1 0x20 DUP4 ADD SWAP2 POP DUP4 PUSH1 0x1 DUP3 MUL DUP4 ADD GT ISZERO PUSH2 0x2B21 JUMPI PUSH2 0x2B20 PUSH2 0x2ACF JUMP JUMPDEST JUMPDEST SWAP3 POP SWAP3 SWAP1 POP JUMP JUMPDEST PUSH0 PUSH0 PUSH0 PUSH0 PUSH0 PUSH0 PUSH1 0x80 DUP8 DUP10 SUB SLT ISZERO PUSH2 0x2B42 JUMPI PUSH2 0x2B41 PUSH2 0x25E0 JUMP JUMPDEST JUMPDEST PUSH0 PUSH2 0x2B4F DUP10 DUP3 DUP11 ADD PUSH2 0x27F7 JUMP JUMPDEST SWAP7 POP POP PUSH1 0x20 DUP8 ADD CALLDATALOAD PUSH8 0xFFFFFFFFFFFFFFFF DUP2 GT ISZERO PUSH2 0x2B70 JUMPI PUSH2 0x2B6F PUSH2 0x25E4 JUMP JUMPDEST JUMPDEST PUSH2 0x2B7C DUP10 DUP3 DUP11 ADD PUSH2 0x2AD3 JUMP JUMPDEST SWAP6 POP SWAP6 POP POP PUSH1 0x40 PUSH2 0x2B8F DUP10 DUP3 DUP11 ADD PUSH2 0x274A JUMP JUMPDEST SWAP4 POP POP PUSH1 0x60 DUP8 ADD CALLDATALOAD PUSH8 0xFFFFFFFFFFFFFFFF DUP2 GT ISZERO PUSH2 0x2BB0 JUMPI PUSH2 0x2BAF PUSH2 0x25E4 JUMP JUMPDEST JUMPDEST PUSH2 0x2BBC DUP10 DUP3 DUP11 ADD PUSH2 0x2AD3 JUMP JUMPDEST SWAP3 POP SWAP3 POP POP SWAP3 SWAP6 POP SWAP3 SWAP6 POP SWAP3 SWAP6 JUMP JUMPDEST PUSH0 PUSH0 REVERT JUMPDEST PUSH32 0x4E487B7100000000000000000000000000000000000000000000000000000000 PUSH0 MSTORE PUSH1 0x41 PUSH1 0x4 MSTORE PUSH1 0x24 PUSH0 REVERT JUMPDEST PUSH2 0x2C05 DUP3 PUSH2 0x26C3 JUMP JUMPDEST DUP2 ADD DUP2 DUP2 LT PUSH8 0xFFFFFFFFFFFFFFFF DUP3 GT OR ISZERO PUSH2 0x2C24 JUMPI PUSH2 0x2C23 PUSH2 0x2BCF JUMP JUMPDEST JUMPDEST DUP1 PUSH1 0x40 MSTORE POP POP POP JUMP JUMPDEST PUSH0 PUSH2 0x2C36 PUSH2 0x25D7 JUMP JUMPDEST SWAP1 POP PUSH2 0x2C42 DUP3 DUP3 PUSH2 0x2BFC JUMP JUMPDEST SWAP2 SWAP1 POP JUMP JUMPDEST PUSH0 PUSH8 0xFFFFFFFFFFFFFFFF DUP3 GT ISZERO PUSH2 0x2C61 JUMPI PUSH2 0x2C60 PUSH2 0x2BCF JUMP JUMPDEST JUMPDEST PUSH2 0x2C6A DUP3 PUSH2 0x26C3 JUMP JUMPDEST SWAP1 POP PUSH1 0x20 DUP2 ADD SWAP1 POP SWAP2 SWAP1 POP JUMP JUMPDEST DUP3 DUP2 DUP4 CALLDATACOPY PUSH0 DUP4 DUP4 ADD MSTORE POP POP POP JUMP JUMPDEST PUSH0 PUSH2 0x2C97 PUSH2 0x2C92 DUP5 PUSH2 0x2C47 JUMP JUMPDEST PUSH2 0x2C2D JUMP JUMPDEST SWAP1 POP DUP3 DUP2 MSTORE PUSH1 0x20 DUP2 ADD DUP5 DUP5 DUP5 ADD GT ISZERO PUSH2 0x2CB3 JUMPI PUSH2 0x2CB2 PUSH2 0x2BCB JUMP JUMPDEST JUMPDEST PUSH2 0x2CBE DUP5 DUP3 DUP6 PUSH2 0x2C77 JUMP JUMPDEST POP SWAP4 SWAP3 POP POP POP JUMP JUMPDEST PUSH0 DUP3 PUSH1 0x1F DUP4 ADD SLT PUSH2 0x2CDA JUMPI PUSH2 0x2CD9 PUSH2 0x2AC7 JUMP JUMPDEST JUMPDEST DUP2 CALLDATALOAD PUSH2 0x2CEA DUP5 DUP3 PUSH1 0x20 DUP7 ADD PUSH2 0x2C85 JUMP JUMPDEST SWAP2 POP POP SWAP3 SWAP2 POP POP JUMP JUMPDEST PUSH0 PUSH0 PUSH0 PUSH0 PUSH1 0x80 DUP6 DUP8 SUB SLT ISZERO PUSH2 0x2D0B JUMPI PUSH2 0x2D0A PUSH2 0x25E0 JUMP JUMPDEST JUMPDEST PUSH0 PUSH2 0x2D18 DUP8 DUP3 DUP9 ADD PUSH2 0x27F7 JUMP JUMPDEST SWAP5 POP POP PUSH1 0x20 PUSH2 0x2D29 DUP8 DUP3 DUP9 ADD PUSH2 0x27F7 JUMP JUMPDEST SWAP4 POP POP PUSH1 0x40 PUSH2 0x2D3A DUP8 DUP3 DUP9 ADD PUSH2 0x274A JUMP JUMPDEST SWAP3 POP POP PUSH1 0x60 DUP6 ADD CALLDATALOAD PUSH8 0xFFFFFFFFFFFFFFFF DUP2 GT ISZERO PUSH2 0x2D5B JUMPI PUSH2 0x2D5A PUSH2 0x25E4 JUMP JUMPDEST JUMPDEST PUSH2 0x2D67 DUP8 DUP3 DUP9 ADD PUSH2 0x2CC6 JUMP JUMPDEST SWAP2 POP POP SWAP3 SWAP6 SWAP2 SWAP5 POP SWAP3 POP JUMP JUMPDEST PUSH0 PUSH0 PUSH1 0x40 DUP4 DUP6 SUB SLT ISZERO PUSH2 0x2D89 JUMPI PUSH2 0x2D88 PUSH2 0x25E0 JUMP JUMPDEST JUMPDEST PUSH0 PUSH2 0x2D96 DUP6 DUP3 DUP7 ADD PUSH2 0x27F7 JUMP JUMPDEST SWAP3 POP POP PUSH1 0x20 PUSH2 0x2DA7 DUP6 DUP3 DUP7 ADD PUSH2 0x27F7 JUMP JUMPDEST SWAP2 POP POP SWAP3 POP SWAP3 SWAP1 POP JUMP JUMPDEST PUSH0 PUSH0 PUSH1 0x40 DUP4 DUP6 SUB SLT ISZERO PUSH2 0x2DC7 JUMPI PUSH2 0x2DC6 PUSH2 0x25E0 JUMP JUMPDEST JUMPDEST PUSH0 PUSH2 0x2DD4 DUP6 DUP3 DUP7 ADD PUSH2 0x274A JUMP JUMPDEST SWAP3 POP POP PUSH1 0x20 PUSH2 0x2DE5 DUP6 DUP3 DUP7 ADD PUSH2 0x2A75 JUMP JUMPDEST SWAP2 POP POP SWAP3 POP SWAP3 SWAP1 POP JUMP JUMPDEST PUSH32 0x4E487B7100000000000000000000000000000000000000000000000000000000 PUSH0 MSTORE PUSH1 0x22 PUSH1 0x4 MSTORE PUSH1 0x24 PUSH0 REVERT JUMPDEST PUSH0 PUSH1 0x2 DUP3 DIV SWAP1 POP PUSH1 0x1 DUP3 AND DUP1 PUSH2 0x2E33 JUMPI PUSH1 0x7F DUP3 AND SWAP2 POP JUMPDEST PUSH1 0x20 DUP3 LT DUP2 SUB PUSH2 0x2E46 JUMPI PUSH2 0x2E45 PUSH2 0x2DEF JUMP JUMPDEST JUMPDEST POP SWAP2 SWAP1 POP JUMP JUMPDEST PUSH32 0x4552433732313A20617070726F76616C20746F2063757272656E74206F776E65 PUSH0 DUP3 ADD MSTORE PUSH32 0x7200000000000000000000000000000000000000000000000000000000000000 PUSH1 0x20 DUP3 ADD MSTORE POP JUMP JUMPDEST PUSH0 PUSH2 0x2EA6 PUSH1 0x21 DUP4 PUSH2 0x26A5 JUMP JUMPDEST SWAP2 POP PUSH2 0x2EB1 DUP3 PUSH2 0x2E4C JUMP JUMPDEST PUSH1 0x40 DUP3 ADD SWAP1 POP SWAP2 SWAP1 POP JUMP JUMPDEST PUSH0 PUSH1 0x20 DUP3 ADD SWAP1 POP DUP2 DUP2 SUB PUSH0 DUP4 ADD MSTORE PUSH2 0x2ED3 DUP2 PUSH2 0x2E9A JUMP JUMPDEST SWAP1 POP SWAP2 SWAP1 POP JUMP JUMPDEST PUSH32 0x4552433732313A20617070726F76652063616C6C6572206973206E6F7420746F PUSH0 DUP3 ADD MSTORE PUSH32 0x6B656E206F776E6572206F7220617070726F76656420666F7220616C6C000000 PUSH1 0x20 DUP3 ADD MSTORE POP JUMP JUMPDEST PUSH0 PUSH2 0x2F34 PUSH1 0x3D DUP4 PUSH2 0x26A5 JUMP JUMPDEST SWAP2 POP PUSH2 0x2F3F DUP3 PUSH2 0x2EDA JUMP JUMPDEST PUSH1 0x40 DUP3 ADD SWAP1 POP SWAP2 SWAP1 POP JUMP JUMPDEST PUSH0 PUSH1 0x20 DUP3 ADD SWAP1 POP DUP2 DUP2 SUB PUSH0 DUP4 ADD MSTORE PUSH2 0x2F61 DUP2 PUSH2 0x2F28 JUMP JUMPDEST SWAP1 POP SWAP2 SWAP1 POP JUMP JUMPDEST PUSH32 0x4552433732313A2063616C6C6572206973206E6F7420746F6B656E206F776E65 PUSH0 DUP3 ADD MSTORE PUSH32 0x72206F7220617070726F76656400000000000000000000000000000000000000 PUSH1 0x20 DUP3 ADD MSTORE POP JUMP JUMPDEST PUSH0 PUSH2 0x2FC2 PUSH1 0x2D DUP4 PUSH2 0x26A5 JUMP JUMPDEST SWAP2 POP PUSH2 0x2FCD DUP3 PUSH2 0x2F68 JUMP JUMPDEST PUSH1 0x40 DUP3 ADD SWAP1 POP SWAP2 SWAP1 POP JUMP JUMPDEST PUSH0 PUSH1 0x20 DUP3 ADD SWAP1 POP DUP2 DUP2 SUB PUSH0 DUP4 ADD MSTORE PUSH2 0x2FEF DUP2 PUSH2 0x2FB6 JUMP JUMPDEST SWAP1 POP SWAP2 SWAP1 POP JUMP JUMPDEST PUSH32 0x416363657373436F6E74726F6C3A2063616E206F6E6C792072656E6F756E6365 PUSH0 DUP3 ADD MSTORE PUSH32 0x20726F6C657320666F722073656C660000000000000000000000000000000000 PUSH1 0x20 DUP3 ADD MSTORE POP JUMP JUMPDEST PUSH0 PUSH2 0x3050 PUSH1 0x2F DUP4 PUSH2 0x26A5 JUMP JUMPDEST SWAP2 POP PUSH2 0x305B DUP3 PUSH2 0x2FF6 JUMP JUMPDEST PUSH1 0x40 DUP3 ADD SWAP1 POP SWAP2 SWAP1 POP JUMP JUMPDEST PUSH0 PUSH1 0x20 DUP3 ADD SWAP1 POP DUP2 DUP2 SUB PUSH0 DUP4 ADD MSTORE PUSH2 0x307D DUP2 PUSH2 0x3044 JUMP JUMPDEST SWAP1 POP SWAP2 SWAP1 POP JUMP JUMPDEST PUSH32 0x50726F6A65637420646F6573206E6F7420657869737400000000000000000000 PUSH0 DUP3 ADD MSTORE POP JUMP JUMPDEST PUSH0 PUSH2 0x30B8 PUSH1 0x16 DUP4 PUSH2 0x26A5 JUMP JUMPDEST SWAP2 POP PUSH2 0x30C3 DUP3 PUSH2 0x3084 JUMP JUMPDEST PUSH1 0x20 DUP3 ADD SWAP1 POP SWAP2 SWAP1 POP JUMP JUMPDEST PUSH0 PUSH1 0x20 DUP3 ADD SWAP1 POP DUP2 DUP2 SUB PUSH0 DUP4 ADD MSTORE PUSH2 0x30E5 DUP2 PUSH2 0x30AC JUMP JUMPDEST SWAP1 POP SWAP2 SWAP1 POP JUMP JUMPDEST PUSH32 0x4E487B7100000000000000000000000000000000000000000000000000000000 PUSH0 MSTORE PUSH1 0x11 PUSH1 0x4 MSTORE PUSH1 0x24 PUSH0 REVERT JUMPDEST PUSH0 PUSH2 0x3123 DUP3 PUSH2 0x272B JUMP JUMPDEST SWAP2 POP PUSH2 0x312E DUP4 PUSH2 0x272B JUMP JUMPDEST SWAP3 POP DUP3 DUP3 ADD SWAP1 POP DUP1 DUP3 GT ISZERO PUSH2 0x3146 JUMPI PUSH2 0x3145 PUSH2 0x30EC JUMP JUMPDEST JUMPDEST SWAP3 SWAP2 POP POP JUMP JUMPDEST PUSH32 0x4552433732313A20696E76616C696420746F6B656E2049440000000000000000 PUSH0 DUP3 ADD MSTORE POP JUMP JUMPDEST PUSH0 PUSH2 0x3180 PUSH1 0x18 DUP4 PUSH2 0x26A5 JUMP JUMPDEST SWAP2 POP PUSH2 0x318B DUP3 PUSH2 0x314C JUMP JUMPDEST PUSH1 0x20 DUP3 ADD SWAP1 POP SWAP2 SWAP1 POP JUMP JUMPDEST PUSH0 PUSH1 0x20 DUP3 ADD SWAP1 POP DUP2 DUP2 SUB PUSH0 DUP4 ADD MSTORE PUSH2 0x31AD DUP2 PUSH2 0x3174 JUMP JUMPDEST SWAP1 POP SWAP2 SWAP1 POP JUMP JUMPDEST PUSH32 0x4552433732313A2061646472657373207A65726F206973206E6F742061207661 PUSH0 DUP3 ADD MSTORE PUSH32 0x6C6964206F776E65720000000000000000000000000000000000000000000000 PUSH1 0x20 DUP3 ADD MSTORE POP JUMP JUMPDEST PUSH0 PUSH2 0x320E PUSH1 0x29 DUP4 PUSH2 0x26A5 JUMP JUMPDEST SWAP2 POP PUSH2 0x3219 DUP3 PUSH2 0x31B4 JUMP JUMPDEST PUSH1 0x40 DUP3 ADD SWAP1 POP SWAP2 SWAP1 POP JUMP JUMPDEST PUSH0 PUSH1 0x20 DUP3 ADD SWAP1 POP DUP2 DUP2 SUB PUSH0 DUP4 ADD MSTORE PUSH2 0x323B DUP2 PUSH2 0x3202 JUMP JUMPDEST SWAP1 POP SWAP2 SWAP1 POP JUMP JUMPDEST PUSH0 DUP2 SWAP1 POP DUP2 PUSH0 MSTORE PUSH1 0x20 PUSH0 KECCAK256 SWAP1 POP SWAP2 SWAP1 POP JUMP JUMPDEST PUSH0 PUSH1 0x20 PUSH1 0x1F DUP4 ADD DIV SWAP1 POP SWAP2 SWAP1 POP JUMP JUMPDEST PUSH0 DUP3 DUP3 SHL SWAP1 POP SWAP3 SWAP2 POP POP JUMP JUMPDEST PUSH0 PUSH1 0x8 DUP4 MUL PUSH2 0x329E PUSH32 0xFFFFFFFFFFFFFFFFFFFFFFFFFFFFFFFFFFFFFFFFFFFFFFFFFFFFFFFFFFFFFFFF DUP3 PUSH2 0x3263 JUMP JUMPDEST PUSH2 0x32A8 DUP7 DUP4 PUSH2 0x3263 JUMP JUMPDEST SWAP6 POP DUP1 NOT DUP5 AND SWAP4 POP DUP1 DUP7 AND DUP5 OR SWAP3 POP POP POP SWAP4 SWAP3 POP POP POP JUMP JUMPDEST PUSH0 DUP2 SWAP1 POP SWAP2 SWAP1 POP JUMP JUMPDEST PUSH0 PUSH2 0x32E3 PUSH2 0x32DE PUSH2 0x32D9 DUP5 PUSH2 0x272B JUMP JUMPDEST PUSH2 0x32C0 JUMP JUMPDEST PUSH2 0x272B JUMP JUMPDEST SWAP1 POP SWAP2 SWAP1 POP JUMP JUMPDEST PUSH0 DUP2 SWAP1 POP SWAP2 SWAP1 POP JUMP JUMPDEST PUSH2 0x32FC DUP4 PUSH2 0x32C9 JUMP JUMPDEST PUSH2 0x3310 PUSH2 0x3308 DUP3 PUSH2 0x32EA JUMP JUMPDEST DUP5 DUP5 SLOAD PUSH2 0x326F JUMP JUMPDEST DUP3 SSTORE POP POP POP POP JUMP JUMPDEST PUSH0 PUSH0 SWAP1 POP SWAP1 JUMP JUMPDEST PUSH2 0x3327 PUSH2 0x3318 JUMP JUMPDEST PUSH2 0x3332 DUP2 DUP5 DUP5 PUSH2 0x32F3 JUMP JUMPDEST POP POP POP JUMP JUMPDEST JUMPDEST DUP2 DUP2 LT ISZERO PUSH2 0x3355 JUMPI PUSH2 0x334A PUSH0 DUP3 PUSH2 0x331F JUMP JUMPDEST PUSH1 0x1 DUP2 ADD SWAP1 POP PUSH2 0x3338 JUMP JUMPDEST POP POP JUMP JUMPDEST PUSH1 0x1F DUP3 GT ISZERO PUSH2 0x339A JUMPI PUSH2 0x336B DUP2 PUSH2 0x3242 JUMP JUMPDEST PUSH2 0x3374 DUP5 PUSH2 0x3254 JUMP JUMPDEST DUP2 ADD PUSH1 0x20 DUP6 LT ISZERO PUSH2 0x3383 JUMPI DUP2 SWAP1 POP JUMPDEST PUSH2 0x3397 PUSH2 0x338F DUP6 PUSH2 0x3254 JUMP JUMPDEST DUP4 ADD DUP3 PUSH2 0x3337 JUMP JUMPDEST POP POP JUMPDEST POP POP POP JUMP JUMPDEST PUSH0 DUP3 DUP3 SHR SWAP1 POP SWAP3 SWAP2 POP POP JUMP JUMPDEST PUSH0 PUSH2 0x33BA PUSH0 NOT DUP5 PUSH1 0x8 MUL PUSH2 0x339F JUMP JUMPDEST NOT DUP1 DUP4 AND SWAP2 POP POP SWAP3 SWAP2 POP POP JUMP JUMPDEST PUSH0 PUSH2 0x33D2 DUP4 DUP4 PUSH2 0x33AB JUMP JUMPDEST SWAP2 POP DUP3 PUSH1 0x2 MUL DUP3 OR SWAP1 POP SWAP3 SWAP2 POP POP JUMP JUMPDEST PUSH2 0x33EB DUP3 PUSH2 0x269B JUMP JUMPDEST PUSH8 0xFFFFFFFFFFFFFFFF DUP2 GT ISZERO PUSH2 0x3404 JUMPI PUSH2 0x3403 PUSH2 0x2BCF JUMP JUMPDEST JUMPDEST PUSH2 0x340E DUP3 SLOAD PUSH2 0x2E1C JUMP JUMPDEST PUSH2 0x3419 DUP3 DUP3 DUP6 PUSH2 0x3359 JUMP JUMPDEST PUSH0 PUSH1 0x20 SWAP1 POP PUSH1 0x1F DUP4 GT PUSH1 0x1 DUP2 EQ PUSH2 0x344A JUMPI PUSH0 DUP5 ISZERO PUSH2 0x3438 JUMPI DUP3 DUP8 ADD MLOAD SWAP1 POP JUMPDEST PUSH2 0x3442 DUP6 DUP3 PUSH2 0x33C7 JUMP JUMPDEST DUP7 SSTORE POP PUSH2 0x34A9 JUMP JUMPDEST PUSH1 0x1F NOT DUP5 AND PUSH2 0x3458 DUP7 PUSH2 0x3242 JUMP JUMPDEST PUSH0 JUMPDEST DUP3 DUP2 LT ISZERO PUSH2 0x347F JUMPI DUP5 DUP10 ADD MLOAD DUP3 SSTORE PUSH1 0x1 DUP3 ADD SWAP2 POP PUSH1 0x20 DUP6 ADD SWAP5 POP PUSH1 0x20 DUP2 ADD SWAP1 POP PUSH2 0x345A JUMP JUMPDEST DUP7 DUP4 LT ISZERO PUSH2 0x349C JUMPI DUP5 DUP10 ADD MLOAD PUSH2 0x3498 PUSH1 0x1F DUP10 AND DUP3 PUSH2 0x33AB JUMP JUMPDEST DUP4 SSTORE POP JUMPDEST PUSH1 0x1 PUSH1 0x2 DUP9 MUL ADD DUP9 SSTORE POP POP POP JUMPDEST POP POP POP POP POP POP JUMP JUMPDEST PUSH0 DUP2 SWAP1 POP SWAP3 SWAP2 POP POP JUMP JUMPDEST PUSH0 PUSH2 0x34C5 DUP3 PUSH2 0x269B JUMP JUMPDEST PUSH2 0x34CF DUP2 DUP6 PUSH2 0x34B1 JUMP JUMPDEST SWAP4 POP PUSH2 0x34DF DUP2 DUP6 PUSH1 0x20 DUP7 ADD PUSH2 0x26B5 JUMP JUMPDEST DUP1 DUP5 ADD SWAP2 POP POP SWAP3 SWAP2 POP POP JUMP JUMPDEST PUSH0 PUSH2 0x34F6 DUP3 DUP6 PUSH2 0x34BB JUMP JUMPDEST SWAP2 POP PUSH2 0x3502 DUP3 DUP5 PUSH2 0x34BB JUMP JUMPDEST SWAP2 POP DUP2 SWAP1 POP SWAP4 SWAP3 POP POP POP JUMP JUMPDEST PUSH32 0x4552433732313A207472616E736665722066726F6D20696E636F727265637420 PUSH0 DUP3 ADD MSTORE PUSH32 0x6F776E6572000000000000000000000000000000000000000000000000000000 PUSH1 0x20 DUP3 ADD MSTORE POP JUMP JUMPDEST PUSH0 PUSH2 0x3568 PUSH1 0x25 DUP4 PUSH2 0x26A5 JUMP JUMPDEST SWAP2 POP PUSH2 0x3573 DUP3 PUSH2 0x350E JUMP JUMPDEST PUSH1 0x40 DUP3 ADD SWAP1 POP SWAP2 SWAP1 POP JUMP JUMPDEST PUSH0 PUSH1 0x20 DUP3 ADD SWAP1 POP DUP2 DUP2 SUB PUSH0 DUP4 ADD MSTORE PUSH2 0x3595 DUP2 PUSH2 0x355C JUMP JUMPDEST SWAP1 POP SWAP2 SWAP1 POP JUMP JUMPDEST PUSH32 0x4552433732313A207472616E7366657220746F20746865207A65726F20616464 PUSH0 DUP3 ADD MSTORE PUSH32 0x7265737300000000000000000000000000000000000000000000000000000000 PUSH1 0x20 DUP3 ADD MSTORE POP JUMP JUMPDEST PUSH0 PUSH2 0x35F6 PUSH1 0x24 DUP4 PUSH2 0x26A5 JUMP JUMPDEST SWAP2 POP PUSH2 0x3601 DUP3 PUSH2 0x359C JUMP JUMPDEST PUSH1 0x40 DUP3 ADD SWAP1 POP SWAP2 SWAP1 POP JUMP JUMPDEST PUSH0 PUSH1 0x20 DUP3 ADD SWAP1 POP DUP2 DUP2 SUB PUSH0 DUP4 ADD MSTORE PUSH2 0x3623 DUP2 PUSH2 0x35EA JUMP JUMPDEST SWAP1 POP SWAP2 SWAP1 POP JUMP JUMPDEST PUSH32 0x4552433732313A20617070726F766520746F2063616C6C657200000000000000 PUSH0 DUP3 ADD MSTORE POP JUMP JUMPDEST PUSH0 PUSH2 0x365E PUSH1 0x19 DUP4 PUSH2 0x26A5 JUMP JUMPDEST SWAP2 POP PUSH2 0x3669 DUP3 PUSH2 0x362A JUMP JUMPDEST PUSH1 0x20 DUP3 ADD SWAP1 POP SWAP2 SWAP1 POP JUMP JUMPDEST PUSH0 PUSH1 0x20 DUP3 ADD SWAP1 POP DUP2 DUP2 SUB PUSH0 DUP4 ADD MSTORE PUSH2 0x368B DUP2 PUSH2 0x3652 JUMP JUMPDEST SWAP1 POP SWAP2 SWAP1 POP JUMP JUMPDEST PUSH32 0x4552433732313A207472616E7366657220746F206E6F6E204552433732315265 PUSH0 DUP3 ADD MSTORE PUSH32 0x63656976657220696D706C656D656E7465720000000000000000000000000000 PUSH1 0x20 DUP3 ADD MSTORE POP JUMP JUMPDEST PUSH0 PUSH2 0x36EC PUSH1 0x32 DUP4 PUSH2 0x26A5 JUMP JUMPDEST SWAP2 POP PUSH2 0x36F7 DUP3 PUSH2 0x3692 JUMP JUMPDEST PUSH1 0x40 DUP3 ADD SWAP1 POP SWAP2 SWAP1 POP JUMP JUMPDEST PUSH0 PUSH1 0x20 DUP3 ADD SWAP1 POP DUP2 DUP2 SUB PUSH0 DUP4 ADD MSTORE PUSH2 0x3719 DUP2 PUSH2 0x36E0 JUMP JUMPDEST SWAP1 POP SWAP2 SWAP1 POP JUMP JUMPDEST PUSH32 0x4E487B7100000000000000000000000000000000000000000000000000000000 PUSH0 MSTORE PUSH1 0x12 PUSH1 0x4 MSTORE PUSH1 0x24 PUSH0 REVERT JUMPDEST PUSH32 0x416363657373436F6E74726F6C3A206163636F756E7420000000000000000000 PUSH0 DUP3 ADD MSTORE POP JUMP JUMPDEST PUSH0 PUSH2 0x3781 PUSH1 0x17 DUP4 PUSH2 0x34B1 JUMP JUMPDEST SWAP2 POP PUSH2 0x378C DUP3 PUSH2 0x374D JUMP JUMPDEST PUSH1 0x17 DUP3 ADD SWAP1 POP SWAP2 SWAP1 POP JUMP JUMPDEST PUSH32 0x206973206D697373696E6720726F6C6520000000000000000000000000000000 PUSH0 DUP3 ADD MSTORE POP JUMP JUMPDEST PUSH0 PUSH2 0x37CB PUSH1 0x11 DUP4 PUSH2 0x34B1 JUMP JUMPDEST SWAP2 POP PUSH2 0x37D6 DUP3 PUSH2 0x3797 JUMP JUMPDEST PUSH1 0x11 DUP3 ADD SWAP1 POP SWAP2 SWAP1 POP JUMP JUMPDEST PUSH0 PUSH2 0x37EB DUP3 PUSH2 0x3775 JUMP JUMPDEST SWAP2 POP PUSH2 0x37F7 DUP3 DUP6 PUSH2 0x34BB JUMP JUMPDEST SWAP2 POP PUSH2 0x3802 DUP3 PUSH2 0x37BF JUMP JUMPDEST SWAP2 POP PUSH2 0x380E DUP3 DUP5 PUSH2 0x34BB JUMP JUMPDEST SWAP2 POP DUP2 SWAP1 POP SWAP4 SWAP3 POP POP POP JUMP JUMPDEST PUSH0 DUP2 MLOAD SWAP1 POP SWAP2 SWAP1 POP JUMP JUMPDEST PUSH0 DUP3 DUP3 MSTORE PUSH1 0x20 DUP3 ADD SWAP1 POP SWAP3 SWAP2 POP POP JUMP JUMPDEST PUSH0 PUSH2 0x383E DUP3 PUSH2 0x381A JUMP JUMPDEST PUSH2 0x3848 DUP2 DUP6 PUSH2 0x3824 JUMP JUMPDEST SWAP4 POP PUSH2 0x3858 DUP2 DUP6 PUSH1 0x20 DUP7 ADD PUSH2 0x26B5 JUMP JUMPDEST PUSH2 0x3861 DUP2 PUSH2 0x26C3 JUMP JUMPDEST DUP5 ADD SWAP2 POP POP SWAP3 SWAP2 POP POP JUMP JUMPDEST PUSH0 PUSH1 0x80 DUP3 ADD SWAP1 POP PUSH2 0x387F PUSH0 DUP4 ADD DUP8 PUSH2 0x27B9 JUMP JUMPDEST PUSH2 0x388C PUSH1 0x20 DUP4 ADD DUP7 PUSH2 0x27B9 JUMP JUMPDEST PUSH2 0x3899 PUSH1 0x40 DUP4 ADD DUP6 PUSH2 0x2849 JUMP JUMPDEST DUP2 DUP2 SUB PUSH1 0x60 DUP4 ADD MSTORE PUSH2 0x38AB DUP2 DUP5 PUSH2 0x3834 JUMP JUMPDEST SWAP1 POP SWAP6 SWAP5 POP POP POP POP POP JUMP JUMPDEST PUSH0 DUP2 MLOAD SWAP1 POP PUSH2 0x38C4 DUP2 PUSH2 0x2613 JUMP JUMPDEST SWAP3 SWAP2 POP POP JUMP JUMPDEST PUSH0 PUSH1 0x20 DUP3 DUP5 SUB SLT ISZERO PUSH2 0x38DF JUMPI PUSH2 0x38DE PUSH2 0x25E0 JUMP JUMPDEST JUMPDEST PUSH0 PUSH2 0x38EC DUP5 DUP3 DUP6 ADD PUSH2 0x38B6 JUMP JUMPDEST SWAP2 POP POP SWAP3 SWAP2 POP POP JUMP JUMPDEST PUSH0 PUSH2 0x38FF DUP3 PUSH2 0x272B JUMP JUMPDEST SWAP2 POP PUSH2 0x390A DUP4 PUSH2 0x272B JUMP JUMPDEST SWAP3 POP DUP3 DUP3 MUL PUSH2 0x3918 DUP2 PUSH2 0x272B JUMP JUMPDEST SWAP2 POP DUP3 DUP3 DIV DUP5 EQ DUP4 ISZERO OR PUSH2 0x392F JUMPI PUSH2 0x392E PUSH2 0x30EC JUMP JUMPDEST JUMPDEST POP SWAP3 SWAP2 POP POP JUMP JUMPDEST PUSH32 0x4E487B7100000000000000000000000000000000000000000000000000000000 PUSH0 MSTORE PUSH1 0x32 PUSH1 0x4 MSTORE PUSH1 0x24 PUSH0 REVERT JUMPDEST PUSH0 PUSH2 0x396D DUP3 PUSH2 0x272B JUMP JUMPDEST SWAP2 POP PUSH0 DUP3 SUB PUSH2 0x397F JUMPI PUSH2 0x397E PUSH2 0x30EC JUMP JUMPDEST JUMPDEST PUSH1 0x1 DUP3 SUB SWAP1 POP SWAP2 SWAP1 POP JUMP JUMPDEST PUSH32 0x537472696E67733A20686578206C656E67746820696E73756666696369656E74 PUSH0 DUP3 ADD MSTORE POP JUMP JUMPDEST PUSH0 PUSH2 0x39BE PUSH1 0x20 DUP4 PUSH2 0x26A5 JUMP JUMPDEST SWAP2 POP PUSH2 0x39C9 DUP3 PUSH2 0x398A JUMP JUMPDEST PUSH1 0x20 DUP3 ADD SWAP1 POP SWAP2 SWAP1 POP JUMP JUMPDEST PUSH0 PUSH1 0x20 DUP3 ADD SWAP1 POP DUP2 DUP2 SUB PUSH0 DUP4 ADD MSTORE PUSH2 0x39EB DUP2 PUSH2 0x39B2 JUMP JUMPDEST SWAP1 POP SWAP2 SWAP1 POP JUMP JUMPDEST PUSH32 0x4552433732313A206D696E7420746F20746865207A65726F2061646472657373 PUSH0 DUP3 ADD MSTORE POP JUMP JUMPDEST PUSH0 PUSH2 0x3A26 PUSH1 0x20 DUP4 PUSH2 0x26A5 JUMP JUMPDEST SWAP2 POP PUSH2 0x3A31 DUP3 PUSH2 0x39F2 JUMP JUMPDEST PUSH1 0x20 DUP3 ADD SWAP1 POP SWAP2 SWAP1 POP JUMP JUMPDEST PUSH0 PUSH1 0x20 DUP3 ADD SWAP1 POP DUP2 DUP2 SUB PUSH0 DUP4 ADD MSTORE PUSH2 0x3A53 DUP2 PUSH2 0x3A1A JUMP JUMPDEST SWAP1 POP SWAP2 SWAP1 POP JUMP JUMPDEST PUSH32 0x4552433732313A20746F6B656E20616C7265616479206D696E74656400000000 PUSH0 DUP3 ADD MSTORE POP JUMP JUMPDEST PUSH0 PUSH2 0x3A8E PUSH1 0x1C DUP4 PUSH2 0x26A5 JUMP JUMPDEST SWAP2 POP PUSH2 0x3A99 DUP3 PUSH2 0x3A5A JUMP JUMPDEST PUSH1 0x20 DUP3 ADD SWAP1 POP SWAP2 SWAP1 POP JUMP JUMPDEST PUSH0 PUSH1 0x20 DUP3 ADD SWAP1 POP DUP2 DUP2 SUB PUSH0 DUP4 ADD MSTORE PUSH2 0x3ABB DUP2 PUSH2 0x3A82 JUMP JUMPDEST SWAP1 POP SWAP2 SWAP1 POP JUMP INVALID LOG2 PUSH5 0x6970667358 0x22 SLT KECCAK256 0xAA PUSH6 0x5D2968C61A48 GT RETURNDATACOPY RETF PUSH4 0x75CEA2BF CALLF 0x1913 RETF 0x25 0x2A 0xE CALLVALUE PUSH20 0x23689392B832F664736F6C634300081E00330000 "
		},
		"gasEstimates": {
			"creation": {
				"codeDepositCost": "3019200",
				"executionCost": "infinite",
				"totalCost": "infinite"
			},
			"external": {
				"ADMIN_ROLE()": "375",
				"DEFAULT_ADMIN_ROLE()": "396",
				"NGO_ROLE()": "413",
				"VERIFIER_ROLE()": "369",
				"approve(address,uint256)": "infinite",
				"balanceOf(address)": "2974",
				"getApproved(uint256)": "5304",
				"getRoleAdmin(bytes32)": "infinite",
				"grantRole(bytes32,address)": "infinite",
				"hasRole(bytes32,address)": "3189",
				"isApprovedForAll(address,address)": "infinite",
				"linkCarbonCredits(uint256,uint256,uint256)": "infinite",
				"linkedCarbonTokenId(uint256)": "infinite",
				"mintProject(address,string,uint256,string)": "infinite",
				"name()": "infinite",
				"ownerOf(uint256)": "3071",
				"projects(uint256)": "infinite",
				"renounceRole(bytes32,address)": "infinite",
				"revokeRole(bytes32,address)": "infinite",
				"safeTransferFrom(address,address,uint256)": "infinite",
				"safeTransferFrom(address,address,uint256,bytes)": "infinite",
				"setApprovalForAll(address,bool)": "infinite",
				"supportsInterface(bytes4)": "940",
				"symbol()": "infinite",
				"tokenURI(uint256)": "infinite",
				"totalCreditsLinked(uint256)": "infinite",
				"transferFrom(address,address,uint256)": "infinite",
				"updateVerificationStatus(uint256,bool)": "infinite"
			}
		},
		"methodIdentifiers": {
			"ADMIN_ROLE()": "75b238fc",
			"DEFAULT_ADMIN_ROLE()": "a217fddf",
			"NGO_ROLE()": "f10a6dfc",
			"VERIFIER_ROLE()": "e7705db6",
			"approve(address,uint256)": "095ea7b3",
			"balanceOf(address)": "70a08231",
			"getApproved(uint256)": "081812fc",
			"getRoleAdmin(bytes32)": "248a9ca3",
			"grantRole(bytes32,address)": "2f2ff15d",
			"hasRole(bytes32,address)": "91d14854",
			"isApprovedForAll(address,address)": "e985e9c5",
			"linkCarbonCredits(uint256,uint256,uint256)": "54403efc",
			"linkedCarbonTokenId(uint256)": "4e865f98",
			"mintProject(address,string,uint256,string)": "a378484c",
			"name()": "06fdde03",
			"ownerOf(uint256)": "6352211e",
			"projects(uint256)": "107046bd",
			"renounceRole(bytes32,address)": "36568abe",
			"revokeRole(bytes32,address)": "d547741f",
			"safeTransferFrom(address,address,uint256)": "42842e0e",
			"safeTransferFrom(address,address,uint256,bytes)": "b88d4fde",
			"setApprovalForAll(address,bool)": "a22cb465",
			"supportsInterface(bytes4)": "01ffc9a7",
			"symbol()": "95d89b41",
			"tokenURI(uint256)": "c87b56dd",
			"totalCreditsLinked(uint256)": "9ec2c153",
			"transferFrom(address,address,uint256)": "23b872dd",
			"updateVerificationStatus(uint256,bool)": "f320beac"
		}
	},
	"abi": [
		{
			"inputs": [
				{
					"internalType": "string",
					"name": "name_",
					"type": "string"
				},
				{
					"internalType": "string",
					"name": "symbol_",
					"type": "string"
				}
			],
			"stateMutability": "nonpayable",
			"type": "constructor"
		},
		{
			"anonymous": false,
			"inputs": [
				{
					"indexed": true,
					"internalType": "address",
					"name": "owner",
					"type": "address"
				},
				{
					"indexed": true,
					"internalType": "address",
					"name": "approved",
					"type": "address"
				},
				{
					"indexed": true,
					"internalType": "uint256",
					"name": "tokenId",
					"type": "uint256"
				}
			],
			"name": "Approval",
			"type": "event"
		},
		{
			"anonymous": false,
			"inputs": [
				{
					"indexed": true,
					"internalType": "address",
					"name": "owner",
					"type": "address"
				},
				{
					"indexed": true,
					"internalType": "address",
					"name": "operator",
					"type": "address"
				},
				{
					"indexed": false,
					"internalType": "bool",
					"name": "approved",
					"type": "bool"
				}
			],
			"name": "ApprovalForAll",
			"type": "event"
		},
		{
			"anonymous": false,
			"inputs": [
				{
					"indexed": true,
					"internalType": "uint256",
					"name": "projectId",
					"type": "uint256"
				},
				{
					"indexed": true,
					"internalType": "uint256",
					"name": "creditTokenId",
					"type": "uint256"
				},
				{
					"indexed": false,
					"internalType": "uint256",
					"name": "amount",
					"type": "uint256"
				}
			],
			"name": "CarbonCreditsLinked",
			"type": "event"
		},
		{
			"anonymous": false,
			"inputs": [
				{
					"indexed": true,
					"internalType": "uint256",
					"name": "projectId",
					"type": "uint256"
				},
				{
					"indexed": true,
					"internalType": "address",
					"name": "owner",
					"type": "address"
				}
			],
			"name": "ProjectMinted",
			"type": "event"
		},
		{
			"anonymous": false,
			"inputs": [
				{
					"indexed": true,
					"internalType": "bytes32",
					"name": "role",
					"type": "bytes32"
				},
				{
					"indexed": true,
					"internalType": "bytes32",
					"name": "previousAdminRole",
					"type": "bytes32"
				},
				{
					"indexed": true,
					"internalType": "bytes32",
					"name": "newAdminRole",
					"type": "bytes32"
				}
			],
			"name": "RoleAdminChanged",
			"type": "event"
		},
		{
			"anonymous": false,
			"inputs": [
				{
					"indexed": true,
					"internalType": "bytes32",
					"name": "role",
					"type": "bytes32"
				},
				{
					"indexed": true,
					"internalType": "address",
					"name": "account",
					"type": "address"
				},
				{
					"indexed": true,
					"internalType": "address",
					"name": "sender",
					"type": "address"
				}
			],
			"name": "RoleGranted",
			"type": "event"
		},
		{
			"anonymous": false,
			"inputs": [
				{
					"indexed": true,
					"internalType": "bytes32",
					"name": "role",
					"type": "bytes32"
				},
				{
					"indexed": true,
					"internalType": "address",
					"name": "account",
					"type": "address"
				},
				{
					"indexed": true,
					"internalType": "address",
					"name": "sender",
					"type": "address"
				}
			],
			"name": "RoleRevoked",
			"type": "event"
		},
		{
			"anonymous": false,
			"inputs": [
				{
					"indexed": true,
					"internalType": "address",
					"name": "from",
					"type": "address"
				},
				{
					"indexed": true,
					"internalType": "address",
					"name": "to",
					"type": "address"
				},
				{
					"indexed": true,
					"internalType": "uint256",
					"name": "tokenId",
					"type": "uint256"
				}
			],
			"name": "Transfer",
			"type": "event"
		},
		{
			"anonymous": false,
			"inputs": [
				{
					"indexed": true,
					"internalType": "uint256",
					"name": "projectId",
					"type": "uint256"
				},
				{
					"indexed": false,
					"internalType": "bool",
					"name": "verified",
					"type": "bool"
				}
			],
			"name": "VerificationStatusUpdated",
			"type": "event"
		},
		{
			"inputs": [],
			"name": "ADMIN_ROLE",
			"outputs": [
				{
					"internalType": "bytes32",
					"name": "",
					"type": "bytes32"
				}
			],
			"stateMutability": "view",
			"type": "function"
		},
		{
			"inputs": [],
			"name": "DEFAULT_ADMIN_ROLE",
			"outputs": [
				{
					"internalType": "bytes32",
					"name": "",
					"type": "bytes32"
				}
			],
			"stateMutability": "view",
			"type": "function"
		},
		{
			"inputs": [],
			"name": "NGO_ROLE",
			"outputs": [
				{
					"internalType": "bytes32",
					"name": "",
					"type": "bytes32"
				}
			],
			"stateMutability": "view",
			"type": "function"
		},
		{
			"inputs": [],
			"name": "VERIFIER_ROLE",
			"outputs": [
				{
					"internalType": "bytes32",
					"name": "",
					"type": "bytes32"
				}
			],
			"stateMutability": "view",
			"type": "function"
		},
		{
			"inputs": [
				{
					"internalType": "address",
					"name": "to",
					"type": "address"
				},
				{
					"internalType": "uint256",
					"name": "tokenId",
					"type": "uint256"
				}
			],
			"name": "approve",
			"outputs": [],
			"stateMutability": "nonpayable",
			"type": "function"
		},
		{
			"inputs": [
				{
					"internalType": "address",
					"name": "owner",
					"type": "address"
				}
			],
			"name": "balanceOf",
			"outputs": [
				{
					"internalType": "uint256",
					"name": "",
					"type": "uint256"
				}
			],
			"stateMutability": "view",
			"type": "function"
		},
		{
			"inputs": [
				{
					"internalType": "uint256",
					"name": "tokenId",
					"type": "uint256"
				}
			],
			"name": "getApproved",
			"outputs": [
				{
					"internalType": "address",
					"name": "",
					"type": "address"
				}
			],
			"stateMutability": "view",
			"type": "function"
		},
		{
			"inputs": [
				{
					"internalType": "bytes32",
					"name": "role",
					"type": "bytes32"
				}
			],
			"name": "getRoleAdmin",
			"outputs": [
				{
					"internalType": "bytes32",
					"name": "",
					"type": "bytes32"
				}
			],
			"stateMutability": "view",
			"type": "function"
		},
		{
			"inputs": [
				{
					"internalType": "bytes32",
					"name": "role",
					"type": "bytes32"
				},
				{
					"internalType": "address",
					"name": "account",
					"type": "address"
				}
			],
			"name": "grantRole",
			"outputs": [],
			"stateMutability": "nonpayable",
			"type": "function"
		},
		{
			"inputs": [
				{
					"internalType": "bytes32",
					"name": "role",
					"type": "bytes32"
				},
				{
					"internalType": "address",
					"name": "account",
					"type": "address"
				}
			],
			"name": "hasRole",
			"outputs": [
				{
					"internalType": "bool",
					"name": "",
					"type": "bool"
				}
			],
			"stateMutability": "view",
			"type": "function"
		},
		{
			"inputs": [
				{
					"internalType": "address",
					"name": "owner",
					"type": "address"
				},
				{
					"internalType": "address",
					"name": "operator",
					"type": "address"
				}
			],
			"name": "isApprovedForAll",
			"outputs": [
				{
					"internalType": "bool",
					"name": "",
					"type": "bool"
				}
			],
			"stateMutability": "view",
			"type": "function"
		},
		{
			"inputs": [
				{
					"internalType": "uint256",
					"name": "projectId",
					"type": "uint256"
				},
				{
					"internalType": "uint256",
					"name": "creditTokenId",
					"type": "uint256"
				},
				{
					"internalType": "uint256",
					"name": "amount",
					"type": "uint256"
				}
			],
			"name": "linkCarbonCredits",
			"outputs": [],
			"stateMutability": "nonpayable",
			"type": "function"
		},
		{
			"inputs": [
				{
					"internalType": "uint256",
					"name": "",
					"type": "uint256"
				}
			],
			"name": "linkedCarbonTokenId",
			"outputs": [
				{
					"internalType": "uint256",
					"name": "",
					"type": "uint256"
				}
			],
			"stateMutability": "view",
			"type": "function"
		},
		{
			"inputs": [
				{
					"internalType": "address",
					"name": "to",
					"type": "address"
				},
				{
					"internalType": "string",
					"name": "location",
					"type": "string"
				},
				{
					"internalType": "uint256",
					"name": "size",
					"type": "uint256"
				},
				{
					"internalType": "string",
					"name": "species",
					"type": "string"
				}
			],
			"name": "mintProject",
			"outputs": [
				{
					"internalType": "uint256",
					"name": "",
					"type": "uint256"
				}
			],
			"stateMutability": "nonpayable",
			"type": "function"
		},
		{
			"inputs": [],
			"name": "name",
			"outputs": [
				{
					"internalType": "string",
					"name": "",
					"type": "string"
				}
			],
			"stateMutability": "view",
			"type": "function"
		},
		{
			"inputs": [
				{
					"internalType": "uint256",
					"name": "tokenId",
					"type": "uint256"
				}
			],
			"name": "ownerOf",
			"outputs": [
				{
					"internalType": "address",
					"name": "",
					"type": "address"
				}
			],
			"stateMutability": "view",
			"type": "function"
		},
		{
			"inputs": [
				{
					"internalType": "uint256",
					"name": "",
					"type": "uint256"
				}
			],
			"name": "projects",
			"outputs": [
				{
					"internalType": "string",
					"name": "location",
					"type": "string"
				},
				{
					"internalType": "uint256",
					"name": "size",
					"type": "uint256"
				},
				{
					"internalType": "string",
					"name": "species",
					"type": "string"
				},
				{
					"internalType": "uint256",
					"name": "createdAt",
					"type": "uint256"
				},
				{
					"internalType": "bool",
					"name": "verified",
					"type": "bool"
				}
			],
			"stateMutability": "view",
			"type": "function"
		},
		{
			"inputs": [
				{
					"internalType": "bytes32",
					"name": "role",
					"type": "bytes32"
				},
				{
					"internalType": "address",
					"name": "account",
					"type": "address"
				}
			],
			"name": "renounceRole",
			"outputs": [],
			"stateMutability": "nonpayable",
			"type": "function"
		},
		{
			"inputs": [
				{
					"internalType": "bytes32",
					"name": "role",
					"type": "bytes32"
				},
				{
					"internalType": "address",
					"name": "account",
					"type": "address"
				}
			],
			"name": "revokeRole",
			"outputs": [],
			"stateMutability": "nonpayable",
			"type": "function"
		},
		{
			"inputs": [
				{
					"internalType": "address",
					"name": "from",
					"type": "address"
				},
				{
					"internalType": "address",
					"name": "to",
					"type": "address"
				},
				{
					"internalType": "uint256",
					"name": "tokenId",
					"type": "uint256"
				}
			],
			"name": "safeTransferFrom",
			"outputs": [],
			"stateMutability": "nonpayable",
			"type": "function"
		},
		{
			"inputs": [
				{
					"internalType": "address",
					"name": "from",
					"type": "address"
				},
				{
					"internalType": "address",
					"name": "to",
					"type": "address"
				},
				{
					"internalType": "uint256",
					"name": "tokenId",
					"type": "uint256"
				},
				{
					"internalType": "bytes",
					"name": "data",
					"type": "bytes"
				}
			],
			"name": "safeTransferFrom",
			"outputs": [],
			"stateMutability": "nonpayable",
			"type": "function"
		},
		{
			"inputs": [
				{
					"internalType": "address",
					"name": "operator",
					"type": "address"
				},
				{
					"internalType": "bool",
					"name": "approved",
					"type": "bool"
				}
			],
			"name": "setApprovalForAll",
			"outputs": [],
			"stateMutability": "nonpayable",
			"type": "function"
		},
		{
			"inputs": [
				{
					"internalType": "bytes4",
					"name": "interfaceId",
					"type": "bytes4"
				}
			],
			"name": "supportsInterface",
			"outputs": [
				{
					"internalType": "bool",
					"name": "",
					"type": "bool"
				}
			],
			"stateMutability": "view",
			"type": "function"
		},
		{
			"inputs": [],
			"name": "symbol",
			"outputs": [
				{
					"internalType": "string",
					"name": "",
					"type": "string"
				}
			],
			"stateMutability": "view",
			"type": "function"
		},
		{
			"inputs": [
				{
					"internalType": "uint256",
					"name": "tokenId",
					"type": "uint256"
				}
			],
			"name": "tokenURI",
			"outputs": [
				{
					"internalType": "string",
					"name": "",
					"type": "string"
				}
			],
			"stateMutability": "view",
			"type": "function"
		},
		{
			"inputs": [
				{
					"internalType": "uint256",
					"name": "",
					"type": "uint256"
				}
			],
			"name": "totalCreditsLinked",
			"outputs": [
				{
					"internalType": "uint256",
					"name": "",
					"type": "uint256"
				}
			],
			"stateMutability": "view",
			"type": "function"
		},
		{
			"inputs": [
				{
					"internalType": "address",
					"name": "from",
					"type": "address"
				},
				{
					"internalType": "address",
					"name": "to",
					"type": "address"
				},
				{
					"internalType": "uint256",
					"name": "tokenId",
					"type": "uint256"
				}
			],
			"name": "transferFrom",
			"outputs": [],
			"stateMutability": "nonpayable",
			"type": "function"
		},
		{
			"inputs": [
				{
					"internalType": "uint256",
					"name": "projectId",
					"type": "uint256"
				},
				{
					"internalType": "bool",
					"name": "verified",
					"type": "bool"
				}
			],
			"name": "updateVerificationStatus",
			"outputs": [],
			"stateMutability": "nonpayable",
			"type": "function"
		}
	]
}