{
  "contractName": "ProjectRegistry",
  "abi": [
    {
      "inputs": [
        {
          "internalType": "string",
          "name": "name_",
          "type": "string"
        },
        {
          "internalType": "string",
          "name": "symbol_",
          "type": "string"
        }
      ],
      "stateMutability": "nonpayable",
      "type": "constructor"
    },
    {
      "anonymous": false,
      "inputs": [
        {
          "indexed": true,
          "internalType": "address",
          "name": "owner",
          "type": "address"
        },
        {
          "indexed": true,
          "internalType": "address",
          "name": "approved",
          "type": "address"
        },
        {
          "indexed": true,
          "internalType": "uint256",
          "name": "tokenId",
          "type": "uint256"
        }
      ],
      "name": "Approval",
      "type": "event"
    },
    {
      "anonymous": false,
      "inputs": [
        {
          "indexed": true,
          "internalType": "address",
          "name": "owner",
          "type": "address"
        },
        {
          "indexed": true,
          "internalType": "address",
          "name": "operator",
          "type": "address"
        },
        {
          "indexed": false,
          "internalType": "bool",
          "name": "approved",
          "type": "bool"
        }
      ],
      "name": "ApprovalForAll",
      "type": "event"
    },
    {
      "anonymous": false,
      "inputs": [
        {
          "indexed": true,
          "internalType": "uint256",
          "name": "projectId",
          "type": "uint256"
        },
        {
          "indexed": true,
          "internalType": "uint256",
          "name": "creditTokenId",
          "type": "uint256"
        },
        {
          "indexed": false,
          "internalType": "uint256",
          "name": "amount",
          "type": "uint256"
        }
      ],
      "name": "CarbonCreditsLinked",
      "type": "event"
    },
    {
      "anonymous": false,
      "inputs": [
        {
          "indexed": true,
          "internalType": "uint256",
          "name": "projectId",
          "type": "uint256"
        },
        {
          "indexed": true,
          "internalType": "address",
          "name": "owner",
          "type": "address"
        }
      ],
      "name": "ProjectMinted",
      "type": "event"
    },
    {
      "anonymous": false,
      "inputs": [
        {
          "indexed": true,
          "internalType": "bytes32",
          "name": "role",
          "type": "bytes32"
        },
        {
          "indexed": true,
          "internalType": "bytes32",
          "name": "previousAdminRole",
          "type": "bytes32"
        },
        {
          "indexed": true,
          "internalType": "bytes32",
          "name": "newAdminRole",
          "type": "bytes32"
        }
      ],
      "name": "RoleAdminChanged",
      "type": "event"
    },
    {
      "anonymous": false,
      "inputs": [
        {
          "indexed": true,
          "internalType": "bytes32",
          "name": "role",
          "type": "bytes32"
        },
        {
          "indexed": true,
          "internalType": "address",
          "name": "account",
          "type": "address"
        },
        {
          "indexed": true,
          "internalType": "address",
          "name": "sender",
          "type": "address"
        }
      ],
      "name": "RoleGranted",
      "type": "event"
    },
    {
      "anonymous": false,
      "inputs": [
        {
          "indexed": true,
          "internalType": "bytes32",
          "name": "role",
          "type": "bytes32"
        },
        {
          "indexed": true,
          "internalType": "address",
          "name": "account",
          "type": "address"
        },
        {
          "indexed": true,
          "internalType": "address",
          "name": "sender",
          "type": "address"
        }
      ],
      "name": "RoleRevoked",
      "type": "event"
    },
    {
      "anonymous": false,
      "inputs": [
        {
          "indexed": true,
          "internalType": "address",
          "name": "from",
          "type": "address"
        },
        {
          "indexed": true,
          "internalType": "address",
          "name": "to",
          "type": "address"
        },
        {
          "indexed": true,
          "internalType": "uint256",
          "name": "tokenId",
          "type": "uint256"
        }
      ],
      "name": "Transfer",
      "type": "event"
    },
    {
      "anonymous": false,
      "inputs": [
        {
          "indexed": true,
          "internalType": "uint256",
          "name": "projectId",
          "type": "uint256"
        },
        {
          "indexed": false,
          "internalType": "bool",
          "name": "verified",
          "type": "bool"
        }
      ],
      "name": "VerificationStatusUpdated",
      "type": "event"
    },
    {
      "inputs": [],
      "name": "ADMIN_ROLE",
      "outputs": [
        {
          "internalType": "bytes32",
          "name": "",
          "type": "bytes32"
        }
      ],
      "stateMutability": "view",
      "type": "function"
    },
    {
      "inputs": [],
      "name": "DEFAULT_ADMIN_ROLE",
      "outputs": [
        {
          "internalType": "bytes32",
          "name": "",
          "type": "bytes32"
        }
      ],
      "stateMutability": "view",
      "type": "function"
    },
    {
      "inputs": [],
      "name": "NGO_ROLE",
      "outputs": [
        {
          "internalType": "bytes32",
          "name": "",
          "type": "bytes32"
        }
      ],
      "stateMutability": "view",
      "type": "function"
    },
    {
      "inputs": [],
      "name": "VERIFIER_ROLE",
      "outputs": [
        {
          "internalType": "bytes32",
          "name": "",
          "type": "bytes32"
        }
      ],
      "stateMutability": "view",
      "type": "function"
    },
    {
      "inputs": [
        {
          "internalType": "address",
          "name": "to",
          "type": "address"
        },
        {
          "internalType": "uint256",
          "name": "tokenId",
          "type": "uint256"
        }
      ],
      "name": "approve",
      "outputs": [],
      "stateMutability": "nonpayable",
      "type": "function"
    },
    {
      "inputs": [
        {
          "internalType": "address",
          "name": "owner",
          "type": "address"
        }
      ],
      "name": "balanceOf",
      "outputs": [
        {
          "internalType": "uint256",
          "name": "",
          "type": "uint256"
        }
      ],
      "stateMutability": "view",
      "type": "function"
    },
    {
      "inputs": [
        {
          "internalType": "uint256",
          "name": "tokenId",
          "type": "uint256"
        }
      ],
      "name": "getApproved",
      "outputs": [
        {
          "internalType": "address",
          "name": "",
          "type": "address"
        }
      ],
      "stateMutability": "view",
      "type": "function"
    },
    {
      "inputs": [
        {
          "internalType": "bytes32",
          "name": "role",
          "type": "bytes32"
        }
      ],
      "name": "getRoleAdmin",
      "outputs": [
        {
          "internalType": "bytes32",
          "name": "",
          "type": "bytes32"
        }
      ],
      "stateMutability": "view",
      "type": "function"
    },
    {
      "inputs": [
        {
          "internalType": "bytes32",
          "name": "role",
          "type": "bytes32"
        },
        {
          "internalType": "address",
          "name": "account",
          "type": "address"
        }
      ],
      "name": "grantRole",
      "outputs": [],
      "stateMutability": "nonpayable",
      "type": "function"
    },
    {
      "inputs": [
        {
          "internalType": "bytes32",
          "name": "role",
          "type": "bytes32"
        },
        {
          "internalType": "address",
          "name": "account",
          "type": "address"
        }
      ],
      "name": "hasRole",
      "outputs": [
        {
          "internalType": "bool",
          "name": "",
          "type": "bool"
        }
      ],
      "stateMutability": "view",
      "type": "function"
    },
    {
      "inputs": [
        {
          "internalType": "address",
          "name": "owner",
          "type": "address"
        },
        {
          "internalType": "address",
          "name": "operator",
          "type": "address"
        }
      ],
      "name": "isApprovedForAll",
      "outputs": [
        {
          "internalType": "bool",
          "name": "",
          "type": "bool"
        }
      ],
      "stateMutability": "view",
      "type": "function"
    },
    {
      "inputs": [
        {
          "internalType": "uint256",
          "name": "",
          "type": "uint256"
        }
      ],
      "name": "linkedCarbonTokenId",
      "outputs": [
        {
          "internalType": "uint256",
          "name": "",
          "type": "uint256"
        }
      ],
      "stateMutability": "view",
      "type": "function"
    },
    {
      "inputs": [],
      "name": "name",
      "outputs": [
        {
          "internalType": "string",
          "name": "",
          "type": "string"
        }
      ],
      "stateMutability": "view",
      "type": "function"
    },
    {
      "inputs": [
        {
          "internalType": "uint256",
          "name": "tokenId",
          "type": "uint256"
        }
      ],
      "name": "ownerOf",
      "outputs": [
        {
          "internalType": "address",
          "name": "",
          "type": "address"
        }
      ],
      "stateMutability": "view",
      "type": "function"
    },
    {
      "inputs": [
        {
          "internalType": "uint256",
          "name": "",
          "type": "uint256"
        }
      ],
      "name": "projects",
      "outputs": [
        {
          "internalType": "string",
          "name": "location",
          "type": "string"
        },
        {
          "internalType": "uint256",
          "name": "size",
          "type": "uint256"
        },
        {
          "internalType": "string",
          "name": "species",
          "type": "string"
        },
        {
          "internalType": "uint256",
          "name": "createdAt",
          "type": "uint256"
        },
        {
          "internalType": "bool",
          "name": "verified",
          "type": "bool"
        }
      ],
      "stateMutability": "view",
      "type": "function"
    },
    {
      "inputs": [
        {
          "internalType": "bytes32",
          "name": "role",
          "type": "bytes32"
        },
        {
          "internalType": "address",
          "name": "account",
          "type": "address"
        }
      ],
      "name": "renounceRole",
      "outputs": [],
      "stateMutability": "nonpayable",
      "type": "function"
    },
    {
      "inputs": [
        {
          "internalType": "bytes32",
          "name": "role",
          "type": "bytes32"
        },
        {
          "internalType": "address",
          "name": "account",
          "type": "address"
        }
      ],
      "name": "revokeRole",
      "outputs": [],
      "stateMutability": "nonpayable",
      "type": "function"
    },
    {
      "inputs": [
        {
          "internalType": "address",
          "name": "from",
          "type": "address"
        },
        {
          "internalType": "address",
          "name": "to",
          "type": "address"
        },
        {
          "internalType": "uint256",
          "name": "tokenId",
          "type": "uint256"
        }
      ],
      "name": "safeTransferFrom",
      "outputs": [],
      "stateMutability": "nonpayable",
      "type": "function"
    },
    {
      "inputs": [
        {
          "internalType": "address",
          "name": "from",
          "type": "address"
        },
        {
          "internalType": "address",
          "name": "to",
          "type": "address"
        },
        {
          "internalType": "uint256",
          "name": "tokenId",
          "type": "uint256"
        },
        {
          "internalType": "bytes",
          "name": "data",
          "type": "bytes"
        }
      ],
      "name": "safeTransferFrom",
      "outputs": [],
      "stateMutability": "nonpayable",
      "type": "function"
    },
    {
      "inputs": [
        {
          "internalType": "address",
          "name": "operator",
          "type": "address"
        },
        {
          "internalType": "bool",
          "name": "approved",
          "type": "bool"
        }
      ],
      "name": "setApprovalForAll",
      "outputs": [],
      "stateMutability": "nonpayable",
      "type": "function"
    },
    {
      "inputs": [],
      "name": "symbol",
      "outputs": [
        {
          "internalType": "string",
          "name": "",
          "type": "string"
        }
      ],
      "stateMutability": "view",
      "type": "function"
    },
    {
      "inputs": [
        {
          "internalType": "uint256",
          "name": "tokenId",
          "type": "uint256"
        }
      ],
      "name": "tokenURI",
      "outputs": [
        {
          "internalType": "string",
          "name": "",
          "type": "string"
        }
      ],
      "stateMutability": "view",
      "type": "function"
    },
    {
      "inputs": [
        {
          "internalType": "uint256",
          "name": "",
          "type": "uint256"
        }
      ],
      "name": "totalCreditsLinked",
      "outputs": [
        {
          "internalType": "uint256",
          "name": "",
          "type": "uint256"
        }
      ],
      "stateMutability": "view",
      "type": "function"
    },
    {
      "inputs": [
        {
          "internalType": "address",
          "name": "from",
          "type": "address"
        },
        {
          "internalType": "address",
          "name": "to",
          "type": "address"
        },
        {
          "internalType": "uint256",
          "name": "tokenId",
          "type": "uint256"
        }
      ],
      "name": "transferFrom",
      "outputs": [],
      "stateMutability": "nonpayable",
      "type": "function"
    },
    {
      "inputs": [
        {
          "internalType": "address",
          "name": "to",
          "type": "address"
        },
        {
          "internalType": "string",
          "name": "location",
          "type": "string"
        },
        {
          "internalType": "uint256",
          "name": "size",
          "type": "uint256"
        },
        {
          "internalType": "string",
          "name": "species",
          "type": "string"
        }
      ],
      "name": "mintProject",
      "outputs": [
        {
          "internalType": "uint256",
          "name": "",
          "type": "uint256"
        }
      ],
      "stateMutability": "nonpayable",
      "type": "function"
    },
    {
      "inputs": [
        {
          "internalType": "uint256",
          "name": "projectId",
          "type": "uint256"
        },
        {
          "internalType": "bool",
          "name": "verified",
          "type": "bool"
        }
      ],
      "name": "updateVerificationStatus",
      "outputs": [],
      "stateMutability": "nonpayable",
      "type": "function"
    },
    {
      "inputs": [
        {
          "internalType": "uint256",
          "name": "projectId",
          "type": "uint256"
        },
        {
          "internalType": "uint256",
          "name": "creditTokenId",
          "type": "uint256"
        },
        {
          "internalType": "uint256",
          "name": "amount",
          "type": "uint256"
        }
      ],
      "name": "linkCarbonCredits",
      "outputs": [],
      "stateMutability": "nonpayable",
      "type": "function"
    },
    {
      "inputs": [
        {
          "internalType": "bytes4",
          "name": "interfaceId",
          "type": "bytes4"
        }
      ],
      "name": "supportsInterface",
      "outputs": [
        {
          "internalType": "bool",
          "name": "",
          "type": "bool"
        }
      ],
      "stateMutability": "view",
      "type": "function"
    }
  ],
  "bytecode": "0x608060405234801562000010575f80fd5b50604051620042263803806200422683398181016040528101906200003691906200036b565b8181815f908162000048919062000625565b5080600190816200005a919062000625565b505050620000715f801b336200007960201b60201c565b505062000709565b6200008b82826200008f60201b60201c565b5050565b620000a182826200017b60201b60201c565b6200017757600160065f8481526020019081526020015f205f015f8373ffffffffffffffffffffffffffffffffffffffff1673ffffffffffffffffffffffffffffffffffffffff1681526020019081526020015f205f6101000a81548160ff0219169083151502179055506200011c620001df60201b60201c565b73ffffffffffffffffffffffffffffffffffffffff168173ffffffffffffffffffffffffffffffffffffffff16837f2f8788117e7eff1d82e926ec794901d17c78024a50270940304540a733656f0d60405160405180910390a45b5050565b5f60065f8481526020019081526020015f205f015f8373ffffffffffffffffffffffffffffffffffffffff1673ffffffffffffffffffffffffffffffffffffffff1681526020019081526020015f205f9054906101000a900460ff16905092915050565b5f33905090565b5f604051905090565b5f80fd5b5f80fd5b5f80fd5b5f80fd5b5f601f19601f8301169050919050565b7f4e487b71000000000000000000000000000000000000000000000000000000005f52604160045260245ffd5b6200024782620001ff565b810181811067ffffffffffffffff821117156200026957620002686200020f565b5b80604052505050565b5f6200027d620001e6565b90506200028b82826200023c565b919050565b5f67ffffffffffffffff821115620002ad57620002ac6200020f565b5b620002b882620001ff565b9050602081019050919050565b5f5b83811015620002e4578082015181840152602081019050620002c7565b5f8484015250505050565b5f62000305620002ff8462000290565b62000272565b905082815260208101848484011115620003245762000323620001fb565b5b62000331848285620002c5565b509392505050565b5f82601f83011262000350576200034f620001f7565b5b815162000362848260208601620002ef565b91505092915050565b5f8060408385031215620003845762000383620001ef565b5b5f83015167ffffffffffffffff811115620003a457620003a3620001f3565b5b620003b28582860162000339565b925050602083015167ffffffffffffffff811115620003d657620003d5620001f3565b5b620003e48582860162000339565b9150509250929050565b5f81519050919050565b7f4e487b71000000000000000000000000000000000000000000000000000000005f52602260045260245ffd5b5f60028204905060018216806200043d57607f821691505b602082108103620004535762000452620003f8565b5b50919050565b5f819050815f5260205f209050919050565b5f6020601f8301049050919050565b5f82821b905092915050565b5f60088302620004b77fffffffffffffffffffffffffffffffffffffffffffffffffffffffffffffffff826200047a565b620004c386836200047a565b95508019841693508086168417925050509392505050565b5f819050919050565b5f819050919050565b5f6200050d620005076200050184620004db565b620004e4565b620004db565b9050919050565b5f819050919050565b6200052883620004ed565b62000540620005378262000514565b84845462000486565b825550505050565b5f90565b6200055662000548565b620005638184846200051d565b505050565b5b818110156200058a576200057e5f826200054c565b60018101905062000569565b5050565b601f821115620005d957620005a38162000459565b620005ae846200046b565b81016020851015620005be578190505b620005d6620005cd856200046b565b83018262000568565b50505b505050565b5f82821c905092915050565b5f620005fb5f1984600802620005de565b1980831691505092915050565b5f620006158383620005ea565b9150826002028217905092915050565b6200063082620003ee565b67ffffffffffffffff8111156200064c576200064b6200020f565b5b62000658825462000425565b620006658282856200058e565b5f60209050601f8311600181146200069b575f841562000686578287015190505b62000692858262000608565b86555062000701565b601f198416620006ab8662000459565b5f5b82811015620006d457848901518255600182019150602085019450602081019050620006ad565b86831015620006f45784890151620006f0601f891682620005ea565b8355505b6001600288020188555050505b505050505050565b613b0f80620007175f395ff3fe608060405234801561000f575f80fd5b50600436106101c2575f3560e01c806375b238fc116100f7578063b88d4fde11610095578063e7705db61161006f578063e7705db61461054e578063e985e9c51461056c578063f10a6dfc1461059c578063f320beac146105ba576101c2565b8063b88d4fde146104e6578063c87b56dd14610502578063d547741f14610532576101c2565b80639ec2c153116100d15780639ec2c1531461044c578063a217fddf1461047c578063a22cb4651461049a578063a378484c146104b6576101c2565b806375b238fc146103e057806391d14854146103fe57806395d89b411461042e576101c2565b80632f2ff15d116101645780634e865f981161013e5780634e865f981461033457806354403efc146103645780636352211e1461038057806370a08231146103b0576101c2565b80632f2ff15d146102e057806336568abe146102fc57806342842e0e14610318576101c2565b8063095ea7b3116101a0578063095ea7b314610244578063107046bd1461026057806323b872dd14610294578063248a9ca3146102b0576101c2565b806301ffc9a7146101c657806306fdde03146101f6578063081812fc14610214575b5f80fd5b6101e060048036038101906101db919061263d565b6105d6565b6040516101ed9190612682565b60405180910390f35b6101fe6105e7565b60405161020b9190612725565b60405180910390f35b61022e60048036038101906102299190612778565b610676565b60405161023b91906127e2565b60405180910390f35b61025e60048036038101906102599190612825565b6106b8565b005b61027a60048036038101906102759190612778565b6107ce565b60405161028b959493929190612872565b60405180910390f35b6102ae60048036038101906102a991906128d1565b610918565b005b6102ca60048036038101906102c59190612954565b610978565b6040516102d7919061298e565b60405180910390f35b6102fa60048036038101906102f591906129a7565b610995565b005b610316600480360381019061031191906129a7565b6109b6565b005b610332600480360381019061032d91906128d1565b610a39565b005b61034e60048036038101906103499190612778565b610a58565b60405161035b91906129e5565b60405180910390f35b61037e600480360381019061037991906129fe565b610a6d565b005b61039a60048036038101906103959190612778565b610b5b565b6040516103a791906127e2565b60405180910390f35b6103ca60048036038101906103c59190612a4e565b610bdf565b6040516103d791906129e5565b60405180910390f35b6103e8610c93565b6040516103f5919061298e565b60405180910390f35b610418600480360381019061041391906129a7565b610c99565b6040516104259190612682565b60405180910390f35b610436610cfd565b6040516104439190612725565b60405180910390f35b61046660048036038101906104619190612778565b610d8d565b60405161047391906129e5565b60405180910390f35b610484610da2565b604051610491919061298e565b60405180910390f35b6104b460048036038101906104af9190612aa3565b610da8565b005b6104d060048036038101906104cb9190612b42565b610dbe565b6040516104dd91906129e5565b60405180910390f35b61050060048036038101906104fb9190612d0d565b610f7d565b005b61051c60048036038101906105179190612778565b610fdf565b6040516105299190612725565b60405180910390f35b61054c600480360381019061054791906129a7565b611044565b005b610556611065565b604051610563919061298e565b60405180910390f35b61058660048036038101906105819190612d8d565b611089565b6040516105939190612682565b60405180910390f35b6105a4611117565b6040516105b1919061298e565b60405180910390f35b6105d460048036038101906105cf9190612dcb565b61113b565b005b5f6105e082611215565b9050919050565b60605f80546105f590612e36565b80601f016020809104026020016040519081016040528092919081815260200182805461062190612e36565b801561066c5780601f106106435761010080835404028352916020019161066c565b820191905f5260205f20905b81548152906001019060200180831161064f57829003601f168201915b5050505050905090565b5f6106808261128e565b60045f8381526020019081526020015f205f9054906101000a900473ffffffffffffffffffffffffffffffffffffffff169050919050565b5f6106c282610b5b565b90508073ffffffffffffffffffffffffffffffffffffffff168373ffffffffffffffffffffffffffffffffffffffff1603610732576040517f08c379a000000000000000000000000000000000000000000000000000000000815260040161072990612ed6565b60405180910390fd5b8073ffffffffffffffffffffffffffffffffffffffff166107516112d9565b73ffffffffffffffffffffffffffffffffffffffff161480610780575061077f8161077a6112d9565b611089565b5b6107bf576040517f08c379a00000000000000000000000000000000000000000000000000000000081526004016107b690612f64565b60405180910390fd5b6107c983836112e0565b505050565b6008602052805f5260405f205f91509050805f0180546107ed90612e36565b80601f016020809104026020016040519081016040528092919081815260200182805461081990612e36565b80156108645780601f1061083b57610100808354040283529160200191610864565b820191905f5260205f20905b81548152906001019060200180831161084757829003601f168201915b50505050509080600101549080600201805461087f90612e36565b80601f01602080910402602001604051908101604052809291908181526020018280546108ab90612e36565b80156108f65780601f106108cd576101008083540402835291602001916108f6565b820191905f5260205f20905b8154815290600101906020018083116108d957829003601f168201915b505050505090806003015490806004015f9054906101000a900460ff16905085565b6109296109236112d9565b82611396565b610968576040517f08c379a000000000000000000000000000000000000000000000000000000000815260040161095f90612ff2565b60405180910390fd5b61097383838361142a565b505050565b5f60065f8381526020019081526020015f20600101549050919050565b61099e82610978565b6109a781611716565b6109b1838361172a565b505050565b6109be6112d9565b73ffffffffffffffffffffffffffffffffffffffff168173ffffffffffffffffffffffffffffffffffffffff1614610a2b576040517f08c379a0000000000000000000000000000000000000000000000000000000008152600401610a2290613080565b60405180910390fd5b610a358282611805565b5050565b610a5383838360405180602001604052805f815250610f7d565b505050565b6009602052805f5260405f205f915090505481565b7f0ce23c3e399818cfee81a7ab0880f714e53d7672b08df0fa62f2843416e1ea09610a9781611716565b610aa0846118e0565b610adf576040517f08c379a0000000000000000000000000000000000000000000000000000000008152600401610ad6906130e8565b60405180910390fd5b8260095f8681526020019081526020015f208190555081600a5f8681526020019081526020015f205f828254610b159190613133565b9250508190555082847f1a43e2d936094a29ced9f8fb2c1df0c7c08ddbe1d75aebff8b87dcd97c055f6c84604051610b4d91906129e5565b60405180910390a350505050565b5f80610b6683611920565b90505f73ffffffffffffffffffffffffffffffffffffffff168173ffffffffffffffffffffffffffffffffffffffff1603610bd6576040517f08c379a0000000000000000000000000000000000000000000000000000000008152600401610bcd906131b0565b60405180910390fd5b80915050919050565b5f8073ffffffffffffffffffffffffffffffffffffffff168273ffffffffffffffffffffffffffffffffffffffff1603610c4e576040517f08c379a0000000000000000000000000000000000000000000000000000000008152600401610c459061323e565b60405180910390fd5b60035f8373ffffffffffffffffffffffffffffffffffffffff1673ffffffffffffffffffffffffffffffffffffffff1681526020019081526020015f20549050919050565b5f801b81565b5f60065f8481526020019081526020015f205f015f8373ffffffffffffffffffffffffffffffffffffffff1673ffffffffffffffffffffffffffffffffffffffff1681526020019081526020015f205f9054906101000a900460ff16905092915050565b606060018054610d0c90612e36565b80601f0160208091040260200160405190810160405280929190818152602001828054610d3890612e36565b8015610d835780601f10610d5a57610100808354040283529160200191610d83565b820191905f5260205f20905b815481529060010190602001808311610d6657829003601f168201915b5050505050905090565b600a602052805f5260405f205f915090505481565b5f801b81565b610dba610db36112d9565b8383611959565b5050565b5f7f7409dd26ef14054436243be79996fa1ab352eb1e8f34bcf72012e7de1d1176f0610de981611716565b610df36007611ac0565b5f610dfe6007611ad4565b90506040518060a0016040528089898080601f0160208091040260200160405190810160405280939291908181526020018383808284375f81840152601f19601f82011690508083019250505050505050815260200187815260200186868080601f0160208091040260200160405190810160405280939291908181526020018383808284375f81840152601f19601f8201169050808301925050505050505081526020014281526020015f151581525060085f8381526020019081526020015f205f820151815f019081610ed391906133f9565b50602082015181600101556040820151816002019081610ef391906133f9565b50606082015181600301556080820151816004015f6101000a81548160ff021916908315150217905550905050610f2a8982611ae0565b8873ffffffffffffffffffffffffffffffffffffffff16817f8cc21e69f47223aa07e145829f349af742ddadbc1ac6b242607a0694cd47a66a60405160405180910390a380925050509695505050505050565b610f8e610f886112d9565b83611396565b610fcd576040517f08c379a0000000000000000000000000000000000000000000000000000000008152600401610fc490612ff2565b60405180910390fd5b610fd984848484611afd565b50505050565b6060610fea8261128e565b5f610ff3611b59565b90505f8151116110115760405180602001604052805f81525061103c565b8061101b84611b6f565b60405160200161102c929190613502565b6040516020818303038152906040525b915050919050565b61104d82610978565b61105681611716565b6110608383611805565b505050565b7f0ce23c3e399818cfee81a7ab0880f714e53d7672b08df0fa62f2843416e1ea0981565b5f60055f8473ffffffffffffffffffffffffffffffffffffffff1673ffffffffffffffffffffffffffffffffffffffff1681526020019081526020015f205f8373ffffffffffffffffffffffffffffffffffffffff1673ffffffffffffffffffffffffffffffffffffffff1681526020019081526020015f205f9054906101000a900460ff16905092915050565b7f7409dd26ef14054436243be79996fa1ab352eb1e8f34bcf72012e7de1d1176f081565b7f0ce23c3e399818cfee81a7ab0880f714e53d7672b08df0fa62f2843416e1ea0961116581611716565b61116e836118e0565b6111ad576040517f08c379a00000000000000000000000000000000000000000000000000000000081526004016111a4906130e8565b60405180910390fd5b8160085f8581526020019081526020015f206004015f6101000a81548160ff021916908315150217905550827f4b50f64cf60b845001af6ec00bf4365ecb69047b3d8896de0fdfa37c7c8815e9836040516112089190612682565b60405180910390a2505050565b5f7f7965db0b000000000000000000000000000000000000000000000000000000007bffffffffffffffffffffffffffffffffffffffffffffffffffffffff1916827bffffffffffffffffffffffffffffffffffffffffffffffffffffffff19161480611287575061128682611c39565b5b9050919050565b611297816118e0565b6112d6576040517f08c379a00000000000000000000000000000000000000000000000000000000081526004016112cd906131b0565b60405180910390fd5b50565b5f33905090565b8160045f8381526020019081526020015f205f6101000a81548173ffffffffffffffffffffffffffffffffffffffff021916908373ffffffffffffffffffffffffffffffffffffffff160217905550808273ffffffffffffffffffffffffffffffffffffffff1661135083610b5b565b73ffffffffffffffffffffffffffffffffffffffff167f8c5be1e5ebec7d5bd14f71427d1e84f3dd0314c0f7b2291e5b200ac8c7c3b92560405160405180910390a45050565b5f806113a183610b5b565b90508073ffffffffffffffffffffffffffffffffffffffff168473ffffffffffffffffffffffffffffffffffffffff1614806113e357506113e28185611089565b5b8061142157508373ffffffffffffffffffffffffffffffffffffffff1661140984610676565b73ffffffffffffffffffffffffffffffffffffffff16145b91505092915050565b8273ffffffffffffffffffffffffffffffffffffffff1661144a82610b5b565b73ffffffffffffffffffffffffffffffffffffffff16146114a0576040517f08c379a000000000000000000000000000000000000000000000000000000000815260040161149790613595565b60405180910390fd5b5f73ffffffffffffffffffffffffffffffffffffffff168273ffffffffffffffffffffffffffffffffffffffff160361150e576040517f08c379a000000000000000000000000000000000000000000000000000000000815260040161150590613623565b60405180910390fd5b61151b8383836001611d1a565b8273ffffffffffffffffffffffffffffffffffffffff1661153b82610b5b565b73ffffffffffffffffffffffffffffffffffffffff1614611591576040517f08c379a000000000000000000000000000000000000000000000000000000000815260040161158890613595565b60405180910390fd5b60045f8281526020019081526020015f205f6101000a81549073ffffffffffffffffffffffffffffffffffffffff0219169055600160035f8573ffffffffffffffffffffffffffffffffffffffff1673ffffffffffffffffffffffffffffffffffffffff1681526020019081526020015f205f8282540392505081905550600160035f8473ffffffffffffffffffffffffffffffffffffffff1673ffffffffffffffffffffffffffffffffffffffff1681526020019081526020015f205f82825401925050819055508160025f8381526020019081526020015f205f6101000a81548173ffffffffffffffffffffffffffffffffffffffff021916908373ffffffffffffffffffffffffffffffffffffffff160217905550808273ffffffffffffffffffffffffffffffffffffffff168473ffffffffffffffffffffffffffffffffffffffff167fddf252ad1be2c89b69c2b068fc378daa952ba7f163c4a11628f55a4df523b3ef60405160405180910390a46117118383836001611d20565b505050565b611727816117226112d9565b611d26565b50565b6117348282610c99565b61180157600160065f8481526020019081526020015f205f015f8373ffffffffffffffffffffffffffffffffffffffff1673ffffffffffffffffffffffffffffffffffffffff1681526020019081526020015f205f6101000a81548160ff0219169083151502179055506117a66112d9565b73ffffffffffffffffffffffffffffffffffffffff168173ffffffffffffffffffffffffffffffffffffffff16837f2f8788117e7eff1d82e926ec794901d17c78024a50270940304540a733656f0d60405160405180910390a45b5050565b61180f8282610c99565b156118dc575f60065f8481526020019081526020015f205f015f8373ffffffffffffffffffffffffffffffffffffffff1673ffffffffffffffffffffffffffffffffffffffff1681526020019081526020015f205f6101000a81548160ff0219169083151502179055506118816112d9565b73ffffffffffffffffffffffffffffffffffffffff168173ffffffffffffffffffffffffffffffffffffffff16837ff6391f5c32d9c69d2a47ea670b442974b53935d1edc7fd64eb21e047a839171b60405160405180910390a45b5050565b5f8073ffffffffffffffffffffffffffffffffffffffff1661190183611920565b73ffffffffffffffffffffffffffffffffffffffff1614159050919050565b5f60025f8381526020019081526020015f205f9054906101000a900473ffffffffffffffffffffffffffffffffffffffff169050919050565b8173ffffffffffffffffffffffffffffffffffffffff168373ffffffffffffffffffffffffffffffffffffffff16036119c7576040517f08c379a00000000000000000000000000000000000000000000000000000000081526004016119be9061368b565b60405180910390fd5b8060055f8573ffffffffffffffffffffffffffffffffffffffff1673ffffffffffffffffffffffffffffffffffffffff1681526020019081526020015f205f8473ffffffffffffffffffffffffffffffffffffffff1673ffffffffffffffffffffffffffffffffffffffff1681526020019081526020015f205f6101000a81548160ff0219169083151502179055508173ffffffffffffffffffffffffffffffffffffffff168373ffffffffffffffffffffffffffffffffffffffff167f17307eab39ab6107e8899845ad3d59bd9653f200f220920489ca2b5937696c3183604051611ab39190612682565b60405180910390a3505050565b6001815f015f828254019250508190555050565b5f815f01549050919050565b611af9828260405180602001604052805f815250611daa565b5050565b611b0884848461142a565b611b1484848484611e04565b611b53576040517f08c379a0000000000000000000000000000000000000000000000000000000008152600401611b4a90613719565b60405180910390fd5b50505050565b606060405180602001604052805f815250905090565b60605f6001611b7d84611f86565b0190505f8167ffffffffffffffff811115611b9b57611b9a612be9565b5b6040519080825280601f01601f191660200182016040528015611bcd5781602001600182028036833780820191505090505b5090505f82602001820190505b600115611c2e578080600190039150507f3031323334353637383961626364656600000000000000000000000000000000600a86061a8153600a8581611c2357611c22613737565b5b0494505f8503611bda575b819350505050919050565b5f7f80ac58cd000000000000000000000000000000000000000000000000000000007bffffffffffffffffffffffffffffffffffffffffffffffffffffffff1916827bffffffffffffffffffffffffffffffffffffffffffffffffffffffff19161480611d0357507f5b5e139f000000000000000000000000000000000000000000000000000000007bffffffffffffffffffffffffffffffffffffffffffffffffffffffff1916827bffffffffffffffffffffffffffffffffffffffffffffffffffffffff1916145b80611d135750611d12826120d7565b5b9050919050565b50505050565b50505050565b611d308282610c99565b611da657611d3d81612140565b611d4a835f1c602061216d565b604051602001611d5b9291906137f8565b6040516020818303038152906040526040517f08c379a0000000000000000000000000000000000000000000000000000000008152600401611d9d9190612725565b60405180910390fd5b5050565b611db483836123a2565b611dc05f848484611e04565b611dff576040517f08c379a0000000000000000000000000000000000000000000000000000000008152600401611df690613719565b60405180910390fd5b505050565b5f611e248473ffffffffffffffffffffffffffffffffffffffff166125b5565b15611f79578373ffffffffffffffffffffffffffffffffffffffff1663150b7a02611e4d6112d9565b8786866040518563ffffffff1660e01b8152600401611e6f9493929190613883565b6020604051808303815f875af1925050508015611eaa57506040513d601f19601f82011682018060405250810190611ea791906138e1565b60015b611f29573d805f8114611ed8576040519150601f19603f3d011682016040523d82523d5f602084013e611edd565b606091505b505f815103611f21576040517f08c379a0000000000000000000000000000000000000000000000000000000008152600401611f1890613719565b60405180910390fd5b805181602001fd5b63150b7a0260e01b7bffffffffffffffffffffffffffffffffffffffffffffffffffffffff1916817bffffffffffffffffffffffffffffffffffffffffffffffffffffffff191614915050611f7e565b600190505b949350505050565b5f805f90507a184f03e93ff9f4daa797ed6e38ed64bf6a1f0100000000000000008310611fe2577a184f03e93ff9f4daa797ed6e38ed64bf6a1f0100000000000000008381611fd857611fd7613737565b5b0492506040810190505b6d04ee2d6d415b85acef8100000000831061201f576d04ee2d6d415b85acef8100000000838161201557612014613737565b5b0492506020810190505b662386f26fc10000831061204e57662386f26fc10000838161204457612043613737565b5b0492506010810190505b6305f5e1008310612077576305f5e100838161206d5761206c613737565b5b0492506008810190505b612710831061209c57612710838161209257612091613737565b5b0492506004810190505b606483106120bf57606483816120b5576120b4613737565b5b0492506002810190505b600a83106120ce576001810190505b80915050919050565b5f7f01ffc9a7000000000000000000000000000000000000000000000000000000007bffffffffffffffffffffffffffffffffffffffffffffffffffffffff1916827bffffffffffffffffffffffffffffffffffffffffffffffffffffffff1916149050919050565b60606121668273ffffffffffffffffffffffffffffffffffffffff16601460ff1661216d565b9050919050565b60605f600283600261217f919061390c565b6121899190613133565b67ffffffffffffffff8111156121a2576121a1612be9565b5b6040519080825280601f01601f1916602001820160405280156121d45781602001600182028036833780820191505090505b5090507f3000000000000000000000000000000000000000000000000000000000000000815f8151811061220b5761220a61394d565b5b60200101907effffffffffffffffffffffffffffffffffffffffffffffffffffffffffffff191690815f1a9053507f78000000000000000000000000000000000000000000000000000000000000008160018151811061226e5761226d61394d565b5b60200101907effffffffffffffffffffffffffffffffffffffffffffffffffffffffffffff191690815f1a9053505f60018460026122ac919061390c565b6122b69190613133565b90505b6001811115612355577f3031323334353637383961626364656600000000000000000000000000000000600f8616601081106122f8576122f761394d565b5b1a60f81b82828151811061230f5761230e61394d565b5b60200101907effffffffffffffffffffffffffffffffffffffffffffffffffffffffffffff191690815f1a905350600485901c94508061234e9061397a565b90506122b9565b505f8414612398576040517f08c379a000000000000000000000000000000000000000000000000000000000815260040161238f906139eb565b60405180910390fd5b8091505092915050565b5f73ffffffffffffffffffffffffffffffffffffffff168273ffffffffffffffffffffffffffffffffffffffff1603612410576040517f08c379a000000000000000000000000000000000000000000000000000000000815260040161240790613a53565b60405180910390fd5b612419816118e0565b15612459576040517f08c379a000000000000000000000000000000000000000000000000000000000815260040161245090613abb565b60405180910390fd5b6124665f83836001611d1a565b61246f816118e0565b156124af576040517f08c379a00000000000000000000000000000000000000000000000000000000081526004016124a690613abb565b60405180910390fd5b600160035f8473ffffffffffffffffffffffffffffffffffffffff1673ffffffffffffffffffffffffffffffffffffffff1681526020019081526020015f205f82825401925050819055508160025f8381526020019081526020015f205f6101000a81548173ffffffffffffffffffffffffffffffffffffffff021916908373ffffffffffffffffffffffffffffffffffffffff160217905550808273ffffffffffffffffffffffffffffffffffffffff165f73ffffffffffffffffffffffffffffffffffffffff167fddf252ad1be2c89b69c2b068fc378daa952ba7f163c4a11628f55a4df523b3ef60405160405180910390a46125b15f83836001611d20565b5050565b5f808273ffffffffffffffffffffffffffffffffffffffff163b119050919050565b5f604051905090565b5f80fd5b5f80fd5b5f7fffffffff0000000000000000000000000000000000000000000000000000000082169050919050565b61261c816125e8565b8114612626575f80fd5b50565b5f8135905061263781612613565b92915050565b5f60208284031215612652576126516125e0565b5b5f61265f84828501612629565b91505092915050565b5f8115159050919050565b61267c81612668565b82525050565b5f6020820190506126955f830184612673565b92915050565b5f81519050919050565b5f82825260208201905092915050565b5f5b838110156126d25780820151818401526020810190506126b7565b5f8484015250505050565b5f601f19601f8301169050919050565b5f6126f78261269b565b61270181856126a5565b93506127118185602086016126b5565b61271a816126dd565b840191505092915050565b5f6020820190508181035f83015261273d81846126ed565b905092915050565b5f819050919050565b61275781612745565b8114612761575f80fd5b50565b5f813590506127728161274e565b92915050565b5f6020828403121561278d5761278c6125e0565b5b5f61279a84828501612764565b91505092915050565b5f73ffffffffffffffffffffffffffffffffffffffff82169050919050565b5f6127cc826127a3565b9050919050565b6127dc816127c2565b82525050565b5f6020820190506127f55f8301846127d3565b92915050565b612804816127c2565b811461280e575f80fd5b50565b5f8135905061281f816127fb565b92915050565b5f806040838503121561283b5761283a6125e0565b5b5f61284885828601612811565b925050602061285985828601612764565b9150509250929050565b61286c81612745565b82525050565b5f60a0820190508181035f83015261288a81886126ed565b90506128996020830187612863565b81810360408301526128ab81866126ed565b90506128ba6060830185612863565b6128c76080830184612673565b9695505050505050565b5f805f606084860312156128e8576128e76125e0565b5b5f6128f586828701612811565b935050602061290686828701612811565b925050604061291786828701612764565b9150509250925092565b5f819050919050565b61293381612921565b811461293d575f80fd5b50565b5f8135905061294e8161292a565b92915050565b5f60208284031215612969576129686125e0565b5b5f61297684828501612940565b91505092915050565b61298881612921565b82525050565b5f6020820190506129a15f83018461297f565b92915050565b5f80604083850312156129bd576129bc6125e0565b5b5f6129ca85828601612940565b92505060206129db85828601612811565b9150509250929050565b5f6020820190506129f85f830184612863565b92915050565b5f805f60608486031215612a1557612a146125e0565b5b5f612a2286828701612764565b9350506020612a3386828701612764565b9250506040612a4486828701612764565b9150509250925092565b5f60208284031215612a6357612a626125e0565b5b5f612a7084828501612811565b91505092915050565b612a8281612668565b8114612a8c575f80fd5b50565b5f81359050612a9d81612a79565b92915050565b5f8060408385031215612ab957612ab86125e0565b5b5f612ac685828601612811565b9250506020612ad785828601612a8f565b9150509250929050565b5f80fd5b5f80fd5b5f80fd5b5f8083601f840112612b0257612b01612ae1565b5b8235905067ffffffffffffffff811115612b1f57612b1e612ae5565b5b602083019150836001820283011115612b3b57612b3a612ae9565b5b9250929050565b5f805f805f8060808789031215612b5c57612b5b6125e0565b5b5f612b6989828a01612811565b965050602087013567ffffffffffffffff811115612b8a57612b896125e4565b5b612b9689828a01612aed565b95509550506040612ba989828a01612764565b935050606087013567ffffffffffffffff811115612bca57612bc96125e4565b5b612bd689828a01612aed565b92509250509295509295509295565b5f80fd5b7f4e487b71000000000000000000000000000000000000000000000000000000005f52604160045260245ffd5b612c1f826126dd565b810181811067ffffffffffffffff82111715612c3e57612c3d612be9565b5b80604052505050565b5f612c506125d7565b9050612c5c8282612c16565b919050565b5f67ffffffffffffffff821115612c7b57612c7a612be9565b5b612c84826126dd565b9050602081019050919050565b828183375f83830152505050565b5f612cb1612cac84612c61565b612c47565b905082815260208101848484011115612ccd57612ccc612be5565b5b612cd8848285612c91565b509392505050565b5f82601f830112612cf457612cf3612ae1565b5b8135612d04848260208601612c9f565b91505092915050565b5f805f8060808587031215612d2557612d246125e0565b5b5f612d3287828801612811565b9450506020612d4387828801612811565b9350506040612d5487828801612764565b925050606085013567ffffffffffffffff811115612d7557612d746125e4565b5b612d8187828801612ce0565b91505092959194509250565b5f8060408385031215612da357612da26125e0565b5b5f612db085828601612811565b9250506020612dc185828601612811565b9150509250929050565b5f8060408385031215612de157612de06125e0565b5b5f612dee85828601612764565b9250506020612dff85828601612a8f565b9150509250929050565b7f4e487b71000000000000000000000000000000000000000000000000000000005f52602260045260245ffd5b5f6002820490506001821680612e4d57607f821691505b602082108103612e6057612e5f612e09565b5b50919050565b7f4552433732313a20617070726f76616c20746f2063757272656e74206f776e655f8201527f7200000000000000000000000000000000000000000000000000000000000000602082015250565b5f612ec06021836126a5565b9150612ecb82612e66565b604082019050919050565b5f6020820190508181035f830152612eed81612eb4565b9050919050565b7f4552433732313a20617070726f76652063616c6c6572206973206e6f7420746f5f8201527f6b656e206f776e6572206f7220617070726f76656420666f7220616c6c000000602082015250565b5f612f4e603d836126a5565b9150612f5982612ef4565b604082019050919050565b5f6020820190508181035f830152612f7b81612f42565b9050919050565b7f4552433732313a2063616c6c6572206973206e6f7420746f6b656e206f776e655f8201527f72206f7220617070726f76656400000000000000000000000000000000000000602082015250565b5f612fdc602d836126a5565b9150612fe782612f82565b604082019050919050565b5f6020820190508181035f83015261300981612fd0565b9050919050565b7f416363657373436f6e74726f6c3a2063616e206f6e6c792072656e6f756e63655f8201527f20726f6c657320666f722073656c660000000000000000000000000000000000602082015250565b5f61306a602f836126a5565b915061307582613010565b604082019050919050565b5f6020820190508181035f8301526130978161305e565b9050919050565b7f50726f6a65637420646f6573206e6f74206578697374000000000000000000005f82015250565b5f6130d26016836126a5565b91506130dd8261309e565b602082019050919050565b5f6020820190508181035f8301526130ff816130c6565b9050919050565b7f4e487b71000000000000000000000000000000000000000000000000000000005f52601160045260245ffd5b5f61313d82612745565b915061314883612745565b92508282019050808211156131605761315f613106565b5b92915050565b7f4552433732313a20696e76616c696420746f6b656e20494400000000000000005f82015250565b5f61319a6018836126a5565b91506131a582613166565b602082019050919050565b5f6020820190508181035f8301526131c78161318e565b9050919050565b7f4552433732313a2061646472657373207a65726f206973206e6f7420612076615f8201527f6c6964206f776e65720000000000000000000000000000000000000000000000602082015250565b5f6132286029836126a5565b9150613233826131ce565b604082019050919050565b5f6020820190508181035f8301526132558161321c565b9050919050565b5f819050815f5260205f209050919050565b5f6020601f8301049050919050565b5f82821b905092915050565b5f600883026132b87fffffffffffffffffffffffffffffffffffffffffffffffffffffffffffffffff8261327d565b6132c2868361327d565b95508019841693508086168417925050509392505050565b5f819050919050565b5f6132fd6132f86132f384612745565b6132da565b612745565b9050919050565b5f819050919050565b613316836132e3565b61332a61332282613304565b848454613289565b825550505050565b5f90565b61333e613332565b61334981848461330d565b505050565b5b8181101561336c576133615f82613336565b60018101905061334f565b5050565b601f8211156133b1576133828161325c565b61338b8461326e565b8101602085101561339a578190505b6133ae6133a68561326e565b83018261334e565b50505b505050565b5f82821c905092915050565b5f6133d15f19846008026133b6565b1980831691505092915050565b5f6133e983836133c2565b9150826002028217905092915050565b6134028261269b565b67ffffffffffffffff81111561341b5761341a612be9565b5b6134258254612e36565b613430828285613370565b5f60209050601f831160018114613461575f841561344f578287015190505b61345985826133de565b8655506134c0565b601f19841661346f8661325c565b5f5b8281101561349657848901518255600182019150602085019450602081019050613471565b868310156134b357848901516134af601f8916826133c2565b8355505b6001600288020188555050505b505050505050565b5f81905092915050565b5f6134dc8261269b565b6134e681856134c8565b93506134f68185602086016126b5565b80840191505092915050565b5f61350d82856134d2565b915061351982846134d2565b91508190509392505050565b7f4552433732313a207472616e736665722066726f6d20696e636f7272656374205f8201527f6f776e6572000000000000000000000000000000000000000000000000000000602082015250565b5f61357f6025836126a5565b915061358a82613525565b604082019050919050565b5f6020820190508181035f8301526135ac81613573565b9050919050565b7f4552433732313a207472616e7366657220746f20746865207a65726f206164645f8201527f7265737300000000000000000000000000000000000000000000000000000000602082015250565b5f61360d6024836126a5565b9150613618826135b3565b604082019050919050565b5f6020820190508181035f83015261363a81613601565b9050919050565b7f4552433732313a20617070726f766520746f2063616c6c6572000000000000005f82015250565b5f6136756019836126a5565b915061368082613641565b602082019050919050565b5f6020820190508181035f8301526136a281613669565b9050919050565b7f4552433732313a207472616e7366657220746f206e6f6e2045524337323152655f8201527f63656976657220696d706c656d656e7465720000000000000000000000000000602082015250565b5f6137036032836126a5565b915061370e826136a9565b604082019050919050565b5f6020820190508181035f830152613730816136f7565b9050919050565b7f4e487b71000000000000000000000000000000000000000000000000000000005f52601260045260245ffd5b7f416363657373436f6e74726f6c3a206163636f756e74200000000000000000005f82015250565b5f6137986017836134c8565b91506137a382613764565b601782019050919050565b7f206973206d697373696e6720726f6c65200000000000000000000000000000005f82015250565b5f6137e26011836134c8565b91506137ed826137ae565b601182019050919050565b5f6138028261378c565b915061380e82856134d2565b9150613819826137d6565b915061382582846134d2565b91508190509392505050565b5f81519050919050565b5f82825260208201905092915050565b5f61385582613831565b61385f818561383b565b935061386f8185602086016126b5565b613878816126dd565b840191505092915050565b5f6080820190506138965f8301876127d3565b6138a360208301866127d3565b6138b06040830185612863565b81810360608301526138c2818461384b565b905095945050505050565b5f815190506138db81612613565b92915050565b5f602082840312156138f6576138f56125e0565b5b5f613903848285016138cd565b91505092915050565b5f61391682612745565b915061392183612745565b925082820261392f81612745565b9150828204841483151761394657613945613106565b5b5092915050565b7f4e487b71000000000000000000000000000000000000000000000000000000005f52603260045260245ffd5b5f61398482612745565b91505f820361399657613995613106565b5b600182039050919050565b7f537472696e67733a20686578206c656e67746820696e73756666696369656e745f82015250565b5f6139d56020836126a5565b91506139e0826139a1565b602082019050919050565b5f6020820190508181035f830152613a02816139c9565b9050919050565b7f4552433732313a206d696e7420746f20746865207a65726f20616464726573735f82015250565b5f613a3d6020836126a5565b9150613a4882613a09565b602082019050919050565b5f6020820190508181035f830152613a6a81613a31565b9050919050565b7f4552433732313a20746f6b656e20616c7265616479206d696e746564000000005f82015250565b5f613aa5601c836126a5565b9150613ab082613a71565b602082019050919050565b5f6020820190508181035f830152613ad281613a99565b905091905056fea26469706673582212201c37b3c96e8ae6b4564876d853be3a63e464a7c45c7c9ca71492f61c8f2153b764736f6c63430008150033",
  "immutableReferences": {},
  "source": "// SPDX-License-Identifier: MIT\r\npragma solidity ^0.8.21;\r\n\r\nimport \"@openzeppelin/contracts/token/ERC721/ERC721.sol\";\r\nimport \"@openzeppelin/contracts/access/AccessControl.sol\";\r\nimport \"@openzeppelin/contracts/utils/Counters.sol\";\r\n\r\ncontract ProjectRegistry is ERC721, AccessControl {\r\n    using Counters for Counters.Counter;\r\n    Counters.Counter private _tokenIds;\r\n\r\n    bytes32 public constant ADMIN_ROLE = DEFAULT_ADMIN_ROLE;\r\n    bytes32 public constant NGO_ROLE = keccak256(\"NGO_ROLE\");\r\n    bytes32 public constant VERIFIER_ROLE = keccak256(\"VERIFIER_ROLE\");\r\n\r\n    struct Project {\r\n        string location;\r\n        uint256 size;\r\n        string species;\r\n        uint256 createdAt;\r\n        bool verified;\r\n    }\r\n\r\n    mapping(uint256 => Project) public projects;\r\n    mapping(uint256 => uint256) public linkedCarbonTokenId;\r\n    mapping(uint256 => uint256) public totalCreditsLinked;\r\n\r\n    event ProjectMinted(uint256 indexed projectId, address indexed owner);\r\n    event VerificationStatusUpdated(uint256 indexed projectId, bool verified);\r\n    event CarbonCreditsLinked(uint256 indexed projectId, uint256 indexed creditTokenId, uint256 amount);\r\n\r\n    constructor(string memory name_, string memory symbol_) ERC721(name_, symbol_) {\r\n        _setupRole(ADMIN_ROLE, msg.sender);\r\n    }\r\n\r\n    function mintProject(\r\n        address to,\r\n        string calldata location,\r\n        uint256 size,\r\n        string calldata species\r\n    ) external onlyRole(NGO_ROLE) returns (uint256) {\r\n        _tokenIds.increment();\r\n        uint256 id = _tokenIds.current();\r\n\r\n        projects[id] = Project({\r\n            location: location,\r\n            size: size,\r\n            species: species,\r\n            createdAt: block.timestamp,\r\n            verified: false\r\n        });\r\n\r\n        _safeMint(to, id);\r\n        emit ProjectMinted(id, to);\r\n        return id;\r\n    }\r\n\r\n    function updateVerificationStatus(uint256 projectId, bool verified) external onlyRole(VERIFIER_ROLE) {\r\n        require(_exists(projectId), \"Project does not exist\");\r\n        projects[projectId].verified = verified;\r\n        emit VerificationStatusUpdated(projectId, verified);\r\n    }\r\n\r\n    function linkCarbonCredits(uint256 projectId, uint256 creditTokenId, uint256 amount) external onlyRole(VERIFIER_ROLE) {\r\n        require(_exists(projectId), \"Project does not exist\");\r\n        linkedCarbonTokenId[projectId] = creditTokenId;\r\n        totalCreditsLinked[projectId] += amount;\r\n        emit CarbonCreditsLinked(projectId, creditTokenId, amount);\r\n    }\r\n\r\n    // Resolve multiple inheritance clash: explicitly override supportsInterface from ERC721 and AccessControl\r\n    function supportsInterface(bytes4 interfaceId)\r\n        public\r\n        view\r\n        override(ERC721, AccessControl)\r\n        returns (bool)\r\n    {\r\n        return super.supportsInterface(interfaceId);\r\n    }\r\n}",
  "sourcePath": "E:\\P1\\contracts\\ProjectRegistry.sol",
  "compiler": {
    "name": "solc",
    "version": "0.8.21+commit.d9974bed.Emscripten.clang"
  },
  "schemaVersion": "3.4.16",
  "updatedAt": "2025-09-24T18:10:07.762Z",
  "devdoc": {
    "events": {
      "Approval(address,address,uint256)": {
        "details": "Emitted when `owner` enables `approved` to manage the `tokenId` token."
      },
      "ApprovalForAll(address,address,bool)": {
        "details": "Emitted when `owner` enables or disables (`approved`) `operator` to manage all of its assets."
      },
      "RoleAdminChanged(bytes32,bytes32,bytes32)": {
        "details": "Emitted when `newAdminRole` is set as ``role``'s admin role, replacing `previousAdminRole` `DEFAULT_ADMIN_ROLE` is the starting admin for all roles, despite {RoleAdminChanged} not being emitted signaling this. _Available since v3.1._"
      },
      "RoleGranted(bytes32,address,address)": {
        "details": "Emitted when `account` is granted `role`. `sender` is the account that originated the contract call, an admin role bearer except when using {AccessControl-_setupRole}."
      },
      "RoleRevoked(bytes32,address,address)": {
        "details": "Emitted when `account` is revoked `role`. `sender` is the account that originated the contract call:   - if using `revokeRole`, it is the admin role bearer   - if using `renounceRole`, it is the role bearer (i.e. `account`)"
      },
      "Transfer(address,address,uint256)": {
        "details": "Emitted when `tokenId` token is transferred from `from` to `to`."
      }
    },
    "kind": "dev",
    "methods": {
      "approve(address,uint256)": {
        "details": "See {IERC721-approve}."
      },
      "balanceOf(address)": {
        "details": "See {IERC721-balanceOf}."
      },
      "getApproved(uint256)": {
        "details": "See {IERC721-getApproved}."
      },
      "getRoleAdmin(bytes32)": {
        "details": "Returns the admin role that controls `role`. See {grantRole} and {revokeRole}. To change a role's admin, use {_setRoleAdmin}."
      },
      "grantRole(bytes32,address)": {
        "details": "Grants `role` to `account`. If `account` had not been already granted `role`, emits a {RoleGranted} event. Requirements: - the caller must have ``role``'s admin role. May emit a {RoleGranted} event."
      },
      "hasRole(bytes32,address)": {
        "details": "Returns `true` if `account` has been granted `role`."
      },
      "isApprovedForAll(address,address)": {
        "details": "See {IERC721-isApprovedForAll}."
      },
      "name()": {
        "details": "See {IERC721Metadata-name}."
      },
      "ownerOf(uint256)": {
        "details": "See {IERC721-ownerOf}."
      },
      "renounceRole(bytes32,address)": {
        "details": "Revokes `role` from the calling account. Roles are often managed via {grantRole} and {revokeRole}: this function's purpose is to provide a mechanism for accounts to lose their privileges if they are compromised (such as when a trusted device is misplaced). If the calling account had been revoked `role`, emits a {RoleRevoked} event. Requirements: - the caller must be `account`. May emit a {RoleRevoked} event."
      },
      "revokeRole(bytes32,address)": {
        "details": "Revokes `role` from `account`. If `account` had been granted `role`, emits a {RoleRevoked} event. Requirements: - the caller must have ``role``'s admin role. May emit a {RoleRevoked} event."
      },
      "safeTransferFrom(address,address,uint256)": {
        "details": "See {IERC721-safeTransferFrom}."
      },
      "safeTransferFrom(address,address,uint256,bytes)": {
        "details": "See {IERC721-safeTransferFrom}."
      },
      "setApprovalForAll(address,bool)": {
        "details": "See {IERC721-setApprovalForAll}."
      },
      "symbol()": {
        "details": "See {IERC721Metadata-symbol}."
      },
      "tokenURI(uint256)": {
        "details": "See {IERC721Metadata-tokenURI}."
      },
      "transferFrom(address,address,uint256)": {
        "details": "See {IERC721-transferFrom}."
      }
    },
    "version": 1
  },
  "userdoc": {
    "kind": "user",
    "methods": {},
    "version": 1
  }
}